:100000000C942B010C945C010C945C010C945C012D
:100010000C945C010C945C010C945C010C945C01EC
:100020000C945C010C945C010C945C010C945C01DC
:100030000C945C010C945C010C945C010C945C01CC
:100040000C945C010C945C010C945C010C945C01BC
:100050000C945C010C945C010C945C010C94F8030E
:100060000C945C010C945C010C945C010C945C019C
:100070000C945C010C945C010C945C010C945C018C
:100080000C945C010C945C010C945C010C945C017C
:100090000C945C010C945C010C945C010C945C016C
:1000A0000C945C010C945C010C945C010C945C015C
:1000B0000C945C010C945C010C945C010C945C014C
:1000C0000C945C010C945C010C945C010C94C203D4
:1000D0000C9498030C945C010C945C010C945C01EE
:1000E0000C945C010C94CD010C94B9010C940003A8
:1000F0000C9429030C942D030C941F030C94E1021F
:100100000C9411030C9417030C94DB010C94130250
:100110000C94AA010C941B060C9433030C94E60275
:100120000C9404030C94FC020C941B030C94F80232
:100130000C940D030C9481040C9407030C9460023E
:100140000C947D010C9425030C94370300000A0BDA
:1001500002090C0D0E080703040100000000000056
:10016000000000000000000000000000000000008F
:10017000000000000000000012111000000000004C
:10018000000000000000000000000000000000006F
:10019000000000002200250028002B002E00310066
:1001A000340002010000050108010B0100002100DC
:1001B000240027002A002D00300033000101000038
:1001C000040107010A0105050505070508080808D7
:1001D000020202020A0A08080404040401010101DF
:1001E00001010101030303030303030304070707DA
:1001F0000C0C0C0C0C0C0C0C02020202060606067F
:10020000060606060B0B0B0B0B0B0B0B010210204B
:10021000200808102040102040800201020108043C
:1002200002010102040810204080804020100804D0
:100230000201800402018040201008040201080429
:10024000020101020408102040800102040810206D
:10025000408081041B0611241FBECFEFD1E2DEBF18
:10026000CDBF00E00CBF22E0A8E2B2E001C01D92C9
:10027000A13EB207E1F712E0A0E0B2E0E8EBF0E166
:1002800000E00BBF02C007900D92A832B107D9F76A
:1002900011E0CAE2D1E000E006C021970109802FF9
:1002A000FE010E942C06C932D10780E00807A9F799
:1002B0000E94CB040C944A080C94000090E0FC01CE
:1002C000E45FFD4F24918A539E4FFC018491882363
:1002D00099F090E0880F991FFC01E455FE4FA5911D
:1002E000B491FC01EE56FE4F859194918FB7F8942E
:1002F000EC91E22BEC938FBF0895AF92BF92CF9217
:10030000DF92EF92FF920F931F93CF93DF936C01D5
:100310007B018B01040F151FEB015E01AE18BF08B6
:10032000C017D10759F06991D601ED91FC91019068
:10033000F081E02DC6011995892B79F7C501DF9170
:10034000CF911F910F91FF90EF90DF90CF90BF90D2
:10035000AF900895FC01538D448D252F30E0842FFC
:1003600090E0821B930B541710F0CF9608950197DD
:100370000895FC01918D828D981761F0A28DAE0FCA
:10038000BF2FB11D5D968C91928D9F5F9F73928F51
:1003900090E008958FEF9FEF0895FC01918D828D7D
:1003A000981731F0828DE80FF11D858D90E008954A
:1003B0008FEF9FEF0895FC01918D228D892F90E0A2
:1003C000805C9F4F821B91098F739927089584E366
:1003D00092E00E94DB0121E0892B09F420E0822FCA
:1003E0000895FC01A48DA80FB92FB11DA35ABF4FCA
:1003F0002C91848D90E001968F739927848FA68924
:10040000B7892C93A089B1898C91837080648C9377
:10041000938D848D981306C00288F389E02D808126
:100420008F7D80830895EF92FF920F931F93CF9358
:10043000DF93EC0181E0888F9B8D8C8D98131AC01F
:10044000E889F989808185FF15C09FB7F894EE8906
:10045000FF896083E889F989808183708064808363
:100460009FBF81E090E0DF91CF911F910F91FF90AE
:10047000EF900895F62E0B8D10E00F5F1F4F0F7356
:100480001127E02E8C8D8E110CC00FB607FCFACF11
:10049000E889F989808185FFF5CFCE010E94F101BD
:1004A000F1CFEB8DEC0FFD2FF11DE35AFF4FF082E2
:1004B0009FB7F8940B8FEA89FB8980818062CFCF48
:1004C000CF93DF93EC01888D8823B9F0AA89BB898B
:1004D000E889F9898C9185FD03C0808186FD0DC076
:1004E0000FB607FCF7CF8C9185FFF2CF808185FF97
:1004F000EDCFCE010E94F101E9CFDF91CF910895B8
:1005000080E090E0892B49F080E090E0892B29F091
:100510000E94000081110E94000080E090E0892B81
:1005200049F080E090E0892B29F00E9400008111C1
:100530000E94000080E090E0892B29F00E94E701F2
:1005400081110E94000080E090E0892B49F080E05A
:1005500090E0892B29F00E94000081110C9400008A
:100560000895282F30E0F901E45BFE4F9491F901E2
:10057000E45FFD4F44912A533E4FF9012491222319
:1005800009F435C0992311F191509231F8F4E92F13
:10059000F0E08827E153FD4F8F4F0C942C060003A9
:1005A0000403E102F802FC02E60207030D03110353
:1005B00017031B031F0325032903E6022D0333033F
:1005C0003703809180008F7780938000E22FF0E0E6
:1005D000EE0FFF1FEE56FE4FA591B4918FB7F89422
:1005E000EC91611148C040954E234C938FBF089504
:1005F000809180008F7DE8CF80918000877FE4CF5D
:1006000084B58F7784BDE2CF84B58F7DFBCF809199
:10061000B0008F778093B000D9CF8091B0008F7DEC
:10062000F9CF809190008F7780939000CFCF809109
:1006300090008F7DF9CF80919000877FF5CF8091DA
:10064000A0008F778093A000C1CF8091A0008F7D04
:10065000F9CF8091A000877FF5CF809120018F771F
:1006600080932001B3CF809120018F7DF9CF8091BD
:100670002001877FF5CF4E2BB8CF3FB7F8948091FC
:100680002D0290912E02A0912F02B091300226B53A
:10069000A89B05C02F3F19F00196A11DB11D3FBFBA
:1006A000BA2FA92F982F8827BC01CD01620F711D89
:1006B000811D911D42E0660F771F881F991F4A9583
:1006C000D1F708958F929F92AF92BF92CF92DF920F
:1006D000EF92FF920E943D034B015C0188EEC82E11
:1006E00083E0D82EE12CF12C0E943D036819790992
:1006F0008A099B09683E734081059105A8F321E0B2
:10070000C21AD108E108F10888EE880E83E0981E2D
:10071000A11CB11CC114D104E104F10429F7FF901C
:10072000EF90DF90CF90BF90AF909F908F90089503
:100730001F920F920FB60F9211240BB60F922F93A8
:100740003F934F935F936F937F938F939F93AF9359
:10075000BF93EF93FF9384E392E00E94F101FF9136
:10076000EF91BF91AF919F918F917F916F915F9129
:100770004F913F912F910F900BBE0F900FBE0F9096
:100780001F9018951F920F920FB60F9211240BB65F
:100790000F922F938F939F93EF93FF93E0914402D7
:1007A000F09145028081E0914A02F0914B0282FD76
:1007B0001DC0908180914D028F5F8F7320914E02FA
:1007C000821741F0E0914D02F0E0EC5CFD4F958F17
:1007D00080934D02FF91EF919F918F912F910F90F8
:1007E0000BBE0F900FBE0F901F9018958081F2CF17
:1007F0001F920F920FB60F9211242F933F938F9356
:100800009F93AF93BF938091290290912A02A09168
:100810002B02B0912C023091280223E0230F2D37B8
:1008200058F50196A11DB11D20932802809329023D
:1008300090932A02A0932B02B0932C0280912D0258
:1008400090912E02A0912F02B09130020196A11D2D
:10085000B11D80932D0290932E02A0932F02B0938E
:100860003002BF91AF919F918F913F912F910F9047
:100870000FBE0F901F90189526E8230F0296A11D1A
:10088000B11DD2CFEF92FF920F931F93CF93DF93BF
:10089000EC017B018A0188819981009729F02A81E6
:1008A0003B812417350788F4B8016F5F7F4F0E94A2
:1008B0005907009791F0998388831B830A832C81C1
:1008C0003D81232B11F4FC0110821D830C83B701A1
:1008D000888199810E9443080CC088819981009782
:1008E00011F00E94D006198218821D821C821B8280
:1008F0001A82CE01DF91CF911F910F91FF90EF905F
:100900000895E4E3F2E01382128288EE93E0A0E01F
:10091000B0E084839583A683B7838AE092E09183D5
:10092000808385ED90E09587848784ED90E09787BC
:10093000868780ED90E0918B808B81ED90E0938BAA
:10094000828B82ED90E0958B848B86ED90E0978B87
:10095000868B118E128E138E148EE7EDF2E01182CB
:100960001082138212821582148249E050E06EE1F7
:1009700072E0CF010E944204E1EDF2E011821082A8
:1009800013821282158214824FE050E068E172E017
:10099000CF010C944204789484B5826084BD84B500
:1009A000816084BD85B5826085BD85B5816085BD6A
:1009B00080916E00816080936E0010928100809122
:1009C00081008260809381008091810081608093AA
:1009D0008100809180008160809380008091B100CF
:1009E00084608093B1008091B00081608093B000FA
:1009F000809191008260809391008091910081604C
:100A0000809391008091900081608093900080910C
:100A1000A10082608093A1008091A10081608093F9
:100A2000A1008091A00081608093A00080912101AD
:100A30008260809321018091210181608093210156
:100A40008091200181608093200180917A008460F0
:100A500080937A0080917A00826080937A008091FE
:100A60007A00816080937A0080917A008068809318
:100A70007A001092C100E0914402F091450282E0B8
:100A80008083E0914002F09141021082E0914202A5
:100A9000F09143028FEC808310924C02E091480267
:100AA000F091490286E08083E0914602F09147028E
:100AB000808180618083E0914602F09147028081CD
:100AC00088608083E0914602F091470280818068CF
:100AD0008083E0914602F091470280818F7D808380
:100AE00086E10E945E0187E10E945E01CFB7F89423
:100AF00080913102811124C0EBEFF1E08491E1E4B7
:100B0000F2E09491E82FF0E0EE0FFF1FE455FE4F66
:100B1000A591B491EC91E92321F461E085E30E9471
:100B2000B10285E30E945E018CB580618CBD8CB5FD
:100B300080648CBD84E30E945E0183E30E945E01B9
:100B4000809131028F5F80933102CFBF8CB58C7F53
:100B50008CBD8DB58E7F8DBD61E086E10E94B102B6
:100B600061E087E10E94B102C3E7D0E060E086E186
:100B70000E94B10290E080E02091DB023091DC0223
:100B800082179307F0F42091D7023091D8022115F3
:100B90003105A9F0280F391FF90120812093330274
:100BA000209133022EBD00000DB407FEFDCF2EB5FF
:100BB00020933202FE013197F1F70196DDCF20E05C
:100BC000EDCF61E086E10E94B1020E94620360E025
:100BD00087E10E94B10290E080E02091D50230913F
:100BE000D60282179307F0F42091D1023091D202FD
:100BF00021153105A9F0280F391FF9012081209313
:100C00003302209133022EBD00000DB407FEFDCF4C
:100C10002EB520933202FE013197F1F70196DDCF18
:100C200020E0EDCF61E087E10E94B1020E94620303
:100C30000E9480029BCF8091D1029091D2020097B6
:100C400011F00E94D0068091D7029091D8020097AF
:100C500011F00C94D0060895EE0FFF1F881F8BBF74
:100C60000790F691E02D19940F931F93CF93DF9384
:100C70008230910510F482E090E0E091DF02F09183
:100C8000E00230E020E0B0E0A0E0309799F42115D8
:100C9000310509F44AC0281B390B24303105D8F539
:100CA0008A819B816115710589F1FB0193838283A0
:100CB000FE0111C0408151810281138148175907FB
:100CC000E0F04817590799F4109761F012960C93C9
:100CD000129713961C933296CF01DF91CF911F91FB
:100CE0000F9108950093DF021093E002F4CF2115D5
:100CF000310551F04217530738F0A901DB019A0181
:100D0000BD01DF01F801C1CFEF01F9CF9093E002FF
:100D10008093DF02CDCFFE01E20FF31F8193919309
:100D20002250310939832883D7CF2091DD023091B9
:100D3000DE02232B41F42091020230910302309312
:100D4000DE022093DD022091000230910102211584
:100D5000310541F42DB73EB7409104025091050290
:100D6000241B350BE091DD02F091DE02E217F30760
:100D7000A0F42E1B3F0B2817390778F0AC014E5F0B
:100D80005F4F2417350748F04E0F5F1F5093DE0268
:100D90004093DD02819391939FCFF0E0E0E09CCF00
:100DA000CF93DF930097E9F0FC0132971382128210
:100DB000A091DF02B091E002ED0130E020E0109759
:100DC000A1F420813181820F931F2091DD023091A7
:100DD000DE022817390709F061C0F093DE02E093C4
:100DE000DD02DF91CF910895EA01CE17DF07E8F524
:100DF0004A815B819E0141155105B1F7E901FB83F1
:100E0000EA8349915991C40FD51FEC17FD0761F48E
:100E1000808191810296840F951FE90199838883CF
:100E2000828193819B838A83F0E0E0E012968D912A
:100E30009C9113970097B9F52D913C911197CD0195
:100E40000296820F931F2091DD023091DE02281757
:100E5000390739F6309751F51092E0021092DF020F
:100E6000B093DE02A093DD02BCCFD383C283408166
:100E70005181840F951FC817D90761F44E5F5F4FEA
:100E800088819981480F591F518340838A819B81B2
:100E9000938382832115310509F0B0CFF093E002EE
:100EA000E093DF029ECFFD01DC01C0CF13821282EE
:100EB000D7CF4F925F926F927F928F929F92AF9215
:100EC000BF92CF92DF92EF92FF920F931F93CF9337
:100ED000DF938C01009799F4CB01DF91CF911F91A3
:100EE0000F91FF90EF90DF90CF90BF90AF909F90C9
:100EF0008F907F906F905F904F900C943406FC0120
:100F0000E60FF71F9C0122503109E217F30708F49E
:100F1000AEC0D901CD91DC911197C617D70720F14A
:100F2000C530D10578F0CE0104978617970750F0A9
:100F3000C61BD70B2297C193D1936D937C93CF019E
:100F40000E94D006C801DF91CF911F910F91FF90B1
:100F5000EF90DF90CF90BF90AF909F908F907F9059
:100F60006F905F904F9008955B01AC1ABD0A4C01E1
:100F70008C0E9D1EA091DF02B091E002512C412CFD
:100F8000F12CE12C109731F58091DD029091DE0279
:100F90008815990509F05CC04616570608F058C038
:100FA0008091000290910102009741F48DB79EB7A5
:100FB0004091040250910502841B950BE817F90734
:100FC00008F055C0F093DE02E093DD02F901718371
:100FD0006083B8CF8D919C91119712966C90129767
:100FE00013967C901397A815B90559F56C0142E04A
:100FF000C40ED11CCA14DB0420F1AC014A195B09F0
:10100000DA011296159780F06282738251834083D1
:10101000D9016D937C93E114F10471F0D70113961B
:10102000FC93EE9312978ECF22968C0F9D1FF901A1
:1010300091838083F301EFCFF093E002E093DF022E
:1010400081CF4816590608F42C017D01D3019ACFAF
:10105000CB010E9434067C01009749F0AE01B80133
:101060000E943A08C8010E94D00687016BCF10E0A9
:1010700000E068CFFB01DC0102C001900D924150FD
:101080005040D8F70895FB01DC0101900D9200203B
:10109000E1F7089511E0CAE2D1E000E006C0802F38
:1010A000FE010E942C062196011DCB32D10780E063
:0810B0000807A9F7F894FFCF2F
:1010B8000000E10280000000000013027D01AA0187
:1010C8006002DB01B901CD0148656C6C6F2041629B
:0810D8006F6C66617A6C0A007E
:00000001FF
