:100000000C943A010C946B010C946B010C946B01F1
:100010000C946B010C946B010C946B010C946B01B0
:100020000C946B010C946B010C946B010C946B01A0
:100030000C946B010C946B010C946B010C946B0190
:100040000C946B010C946B010C946B010C946B0180
:100050000C946B010C946B010C946B010C94AA052D
:100060000C946B010C946B010C946B010C946B0160
:100070000C946B010C946B010C946B010C946B0150
:100080000C946B010C946B010C946B010C946B0140
:100090000C946B010C946B010C946B010C946B0130
:1000A0000C946B010C946B010C946B010C946B0120
:1000B0000C946B010C946B010C946B010C946B0110
:1000C0000C946B010C946B010C946B010C946B0100
:1000D0000C946B010C946B010C946B010C946B01F0
:1000E0000C946B010C94BD020C9466020C945D029E
:1000F0000C9486020C9474020C94CE040C946A0244
:100100000C9478020C944B020C9400020C9457034C
:100110000C9473080C947E020C948B020C94510284
:100120000C9458030C948C020C9455020C945902B4
:100130000C942E030C94EE020C94C8040C948202CE
:100140000C9490020C94F0070C9460020C947002D2
:1001500000002100240027002A002D003000330079
:1001600001010000040107010A010000220025002E
:1001700028002B002E003100340002010000050190
:1001800008010B01000020002300260029002C009C
:100190002F003200000100000301060109010505DE
:1001A0000505070508080808020202020A0A0808ED
:1001B000040404040101010101010101030303031B
:1001C00003030303040707070C0C0C0C0C0C0C0CAA
:1001D0000202020206060606060606060B0B0B0BBB
:1001E0000B0B0B0B010210202008081020401020E0
:1001F00040800201020108040201010204081020EB
:1002000040808040201008040201800402018040E8
:100210002010080402010804020101020408102051
:100220004080010204081020408000000A0B0209EF
:100230000C0D0E0807030401000000000000000080
:1002400000000000000000000000000000000000AE
:10025000000000000000121110000000000000006B
:10026000000000000000000000000000000000008E
:10027000F007730811241FBECFEFD1E2DEBFCDBF60
:1002800000E00CBF22E0AEE5B2E001C01D92AE3F3F
:10029000B207E1F712E0A0E0B2E0EAE7F5E100E042
:1002A0000BBF02C007900D92AE35B107D9F711E030
:1002B000C9E3D1E000E006C021970109802FFE01CB
:1002C0000E948408C833D10780E00807A9F70E947C
:1002D00030060C94AB0A0C94000096E0899FD00184
:1002E0001124AD58BD4F90967C936E935F9791E02B
:1002F00091969C939197E091E002F091E1029091A8
:10030000DF02992339F0309751F0811108C08091B4
:100310008F021994309719F05C968C91FACF08955A
:10032000CF92DF92EF92FF920F931F9396E0899FF7
:10033000F0011124ED58FD4F11A2278D30A121307D
:10034000310551F178F02230310509F451C02330E4
:10035000310509F452C01F910F91FF90EF90DF908B
:10036000CF9008956623B9F361E070E00E946D01BB
:100370002FB7F89480916F0290917002A091710252
:10038000B09172022FBF8093CB029093CC02A093C6
:10039000CD02B093CE02DFCF9FB7F894C0906F022A
:1003A000D0907002E0907102F09072029FBF0091B5
:1003B000CB021091CC022091CD023091CE02C01A16
:1003C000D10AE20AF30A0091DD021091DE0230E068
:1003D00020E00C151D052E053F0550F462E070E08D
:1003E0001F910F91FF90EF90DF90CF900C946D01D3
:1003F0006111B1CF63E070E0F3CF70E060E0F0CF67
:10040000AF92BF92CF92DF92EF92FF920F931F9322
:10041000CF93DF936C017B018B01040F151FEB0160
:100420005E01AE18BF08C017D10759F06991D60117
:10043000ED91FC910190F081E02DC6011995892B79
:1004400079F7C501DF91CF911F910F91FF90EF9048
:10045000DF90CF90BF90AF9008958150823108F027
:100460005AC0E82FF0E08827E75CFD4F8F4F0C94CF
:10047000840859025D024B02510255028B02600250
:1004800066026A027002740278027E0282028B02A5
:1004900086028C029002809180008F77809380008A
:1004A0000895809180008F7DF9CF80918000877FB3
:1004B000F5CF84B58F7784BD089584B58F7DFBCF4C
:1004C0008091B0008F778093B00008958091B00044
:1004D0008F7DF9CF809190008F7780939000089561
:1004E000809190008F7DF9CF80919000877FF5CF2C
:1004F0008091A0008F778093A00008958091A00044
:100500008F7DF9CF8091A000877FF5CF809120016A
:100510008F77809320010895809120018F7DF9CFFE
:1005200080912001877FF5CFCF93DF93282F30E094
:10053000F901E65DFD4F8491F901EC51FE4FD49134
:10054000F901E256FE4FC491CC23A1F081110E9423
:100550002D02EC2FF0E0EE0FFF1FEC57FE4FA591A0
:10056000B491EC91ED2381E090E009F480E0DF911B
:10057000CF91089580E090E0FACF862F0C949402FA
:100580001F93CF93DF93282F30E0F901E65DFD4FF5
:100590008491F901EC51FE4FD491F901E256FE4FDE
:1005A000C491CC23A9F0162F81110E942D02EC2FAB
:1005B000F0E0EE0FFF1FE659FE4FA591B4918FB703
:1005C000F894EC91111108C0D095DE23DC938FBF15
:1005D000DF91CF911F910895DE2BF8CF862F642FE6
:1005E0000C94C002CF93DF9390E0FC01EC51FE4FDE
:1005F000249182569E4FFC0184918823C9F090E09B
:10060000880F991FFC01E05BFE4FA591B491FC019E
:10061000E659FE4FC591D49161110DC09FB7F89472
:100620008C91209582238C938881282328839FBFD7
:10063000DF91CF910895623051F49FB7F8943C91C7
:10064000822F809583238C93E8812E2BEFCF8FB759
:10065000F894EC912E2B2C938FBFEACF862F642F2A
:100660000C94F2023FB7F89480916B0290916C0267
:10067000A0916D02B0916E0226B5A89B05C02F3FD8
:1006800019F00196A11DB11D3FBFBA2FA92F982FB8
:100690008827BC01CD01620F711D811D911D42E0B3
:1006A000660F771F881F991F4A95D1F708950895FF
:1006B00090E080E008950F931F93CF93DF93EC01B8
:1006C00088819981009759F02A813B812617370745
:1006D00030F081E0DF91CF911F910F9108958B0150
:1006E0006F5F7F4F0E94B109009759F0998388830B
:1006F0001B830A832C813D81232B59F7FC01108237
:10070000E8CF80E0E7CFCF93DF93EC0160E08E810C
:100710000E94C00261E08E810E94C00260E08E8172
:100720000E94C0028BE891E00197F1F7DF91CF9131
:100730000895CF92DF92EF92FF920F931F93CF9382
:10074000DF936C017C0187E0E80EF11CD0E0C0E093
:10075000062F10E0B8010C2E02C0759567950A941B
:10076000E2F76170F70181917F010E94C00221963A
:10077000C430D10579F7C601DF91CF911F910F9158
:10078000FF90EF90DF90CF900C948303CF92DF9295
:10079000EF92FF920F931F93CF93DF93EC01F62E0E
:1007A000642F8C810E94C0028D818F3F19F060E020
:1007B0000E94C0020F2D10E08F8584FF25C06E01BE
:1007C00087E0C80ED11CF12CE12CB8010E2C02C020
:1007D000759567950A94E2F76170F60181916F0152
:1007E0000E94C002FFEFEF1AFF0A88E0E816F1044A
:1007F00061F7CE01DF91CF911F910F91FF90EF90A4
:10080000DF90CF900C948303B80184E075956795D1
:100810008A95E1F7CE010E9499036F2DCE01DF91F9
:10082000CF911F910F91FF90EF90DF90CF900C949C
:10083000990340E0682F82EE92E00C94C60381E0B9
:100840000E9419048BE39FE10197F1F70895CF937C
:10085000DF93823029F49091F10298609093F10235
:100860008093F5021092F60280E48093F70280E113
:100870008093F80280E58093F90261E08091E602BE
:100880000E94F2028091E7028F3F19F061E00E941E
:10089000F20261E08091E8020E94F202C2EED2E030
:1008A0009E01225E32408091F10284FD0BC084E003
:1008B00090E021962817390744F461E08E810E9468
:1008C000F202EECF88E090E0F4CF8BE39DE0019759
:1008D000F1F760E08091E6020E94C00260E0809142
:1008E000E8020E94C0028091E7028F3F19F060E0A9
:1008F0000E94C0028091F10284FD34C063E082EE68
:1009000092E00E949903CBE4D6E4CE010197F1F77F
:1009100063E082EE92E00E9499032197F1F763E091
:1009200082EE92E00E94990383E592E00197F1F74D
:1009300062E082EE92E00E9499038091F10280626F
:100940000E94190484E08093F2028CE00E94190452
:100950000E941F0482E08093F30286E0DF91CF9132
:100960000C94190480620E9419048BE496E40197A8
:10097000F1F78091F10280620E94190483E592E010
:100980000197F1F78091F10280620E941904D5CF9E
:1009900041E00E94C60381E090E008958F929F920B
:1009A000AF92BF92CF92DF92EF92FF920F931F937D
:1009B000CF93DF931F921F92CDB7DEB720919202A3
:1009C000309193022130310561F5182F80ED810FB0
:1009D0008A30B0F5612F82EE92E00E94C80419833C
:1009E0001A8200916802109169020F5F1F4FB801CF
:1009F00084E692E00E945B03882399F020916402D0
:100A0000309165028091680290916902BE016F5F2A
:100A10007F4F820F931F0E94A40A109369020093D4
:100A200068020F900F90DF91CF911F910F91FF906F
:100A3000EF90DF90CF90BF90AF909F908F900895F0
:100A40001A3279F7E091F502E23008F077C0E15010
:100A5000F0E0EE51FD4F848980680E941904809176
:100A6000680290916902892B71F064E372E08091D1
:100A70006402909165020E949B0A40E150E06CE3A1
:100A800072E0892B21F040E150E06DE472E082EEEB
:100A900092E00E9400020E9432036B017C0188EE0A
:100AA000882E83E0982EA12CB12C0E9432036C1961
:100AB0007D098E099F09683E734081059105A8F361
:100AC00021E0821A9108A108B10888EEC80E83E0DF
:100AD000D81EE11CF11C81149104A104B10429F772
:100AE00070E060E084E692E00E945B032091640283
:100AF00030916502811124C02115310519F0C90119
:100B00000E942809109265021092640210926902F4
:100B10001092680210926702109266020F900F9076
:100B2000DF91CF911F910F91FF90EF90DF90CF90C9
:100B3000BF90AF909F908F900C941F04E1E088CFFE
:100B400010926902109268026DE572E0C9010E947C
:100B5000A40AE4CF1F920F920FB60F9211242F9385
:100B60003F938F939F93AF93BF9380916F02909128
:100B70007002A0917102B091720230916A0223E07A
:100B8000230F2D3758F50196A11DB11D20936A0240
:100B900080936F0290937002A0937102B0937202DF
:100BA00080916B0290916C02A0916D02B0916E02E7
:100BB0000196A11DB11D80936B0290936C02A093CE
:100BC0006D02B0936E02BF91AF919F918F913F9153
:100BD0002F910F900FBE0F901F90189526E8230FAE
:100BE0000296A11DB11DD2CFEF92FF920F931F93DA
:100BF000CF93DF93EC017B01198218821B821A824A
:100C00001D821C82FB0101900020E9F731978F01C2
:100C1000061B170BB8010E945B03288139818111E3
:100C200013C02115310519F0C9010E942809198244
:100C300018821D821C821B821A82DF91CF911F9124
:100C40000F91FF90EF9008951D830C83B701C901A8
:100C5000DF91CF911F910F91FF90EF900C94A40A18
:100C6000789484B5826084BD84B5816084BD85B587
:100C7000826085BD85B5816085BD80916E00816093
:100C800080936E0010928100809181008260809339
:100C9000810080918100816080938100809180003B
:100CA0008160809380008091B10084608093B10066
:100CB0008091B00081608093B0008091910082604B
:100CC0008093910080919100816080939100809148
:100CD00090008160809390008091A1008260809359
:100CE000A1008091A10081608093A1008091A0006B
:100CF00081608093A0008091210182608093210116
:100D00008091210181608093210180912001816087
:100D10008093200180917A00846080937A00809192
:100D20007A00826080937A0080917A00816080935B
:100D30007A0080917A00806880937A001092C100D6
:100D400082E00E9427040E941F048EEC94E090939E
:100D5000E1028093E002812C912C5401839422249F
:100D60002A94322C50E0652E50E0752E51E05093BD
:100D7000DF028FB7F89440916F025091700260913A
:100D80007102709172028FBF8091CF029091D00258
:100D9000A091D102B091D202481B590B6A0B7B0B78
:100DA0008091DB029091DC02B0E0A0E0C0E084170B
:100DB0009507A607B70740F01092DF02611471048F
:100DC000A9F20E940000D2CF8091D902C81760F426
:100DD000E091D502F091D602EC0FF11D62E0808126
:100DE0000E94F202CF5FF0CF512C8091DA025816A8
:100DF00008F05FC0052D10E0E091D702F091D80215
:100E0000E00FF11F61E080810E94F202E091D702C1
:100E1000F091D802E00FF11F60E080810E94C002D3
:100E2000D501C401052C04C0880F991FAA1FBB1F40
:100E30000A94D2F76C017C01E094F094412C8091EB
:100E4000D9024816F8F4C42DD0E0E091D502F09113
:100E5000D602EC0FFD1F80810E9494022496CC0FD5
:100E6000DD1FCD58DD4F892B41F4888199818C2974
:100E70009D29998388834394E2CF888199818E212B
:100E80009F21F7CFE091D702F091D802E00FF11F38
:100E900061E080810E94C0028091D7029091D802C7
:100EA000080F191F60E0F80180810E94F20253943C
:100EB0009CCFC3E7D2E0FE01878D90A1892B21F45E
:100EC000148E368E258E11A2369652E0EF3AF50733
:100ED00099F710E08091D902181708F053C000E08C
:100EE000E12EF12CEE0CFF1CC70185589D4F7C01B3
:100EF0002091DA02021708F043C0F7016081718186
:100F0000002E02C0769567950A94E2F7129F900131
:100F10001124200F311DE3E7F2E080E0458D568D6E
:100F20002417350709F45AC08F5F36968A30B1F717
:100F300060FF24C0E3E7F2E090E080E0448D4111DF
:100F400018C0E091D302F091D402E20FF31F408168
:100F500056E0589FF001599FF00D1124ED58FD4FB8
:100F6000448F368F258F10A2178E61E00E9490016A
:100F700005C0019636968A30910501F70F5FB8CF0C
:100F80001F5FA8CF80E099A19111892F269692E04A
:100F9000CF3AD907C1F79FB7F89440916F025091AB
:100FA000700260917102709172029FBF4093CF02F4
:100FB0005093D0026093D1027093D202882309F437
:100FC000FBCE80919402882309F4F6CE80919202A0
:100FD00090919302019709F0EFCEF0CE6170C6CFE9
:100FE00064E372E08EE592E00E94F4056DE572E044
:100FF00084E692E00E94F4051092E5021092E40269
:101000008CE292E09093E3028093E20282E3809389
:10101000E6028FEF8093E70283E38093E80288E0A3
:101020008093E90289E08093EA028AE08093EB02F0
:101030008BE08093EC021092ED021092EE0210927F
:10104000EF021092F0021092F10281E00E94270458
:1010500010927502109279021092780210927A0220
:1010600082E292E09093740280937302EFE8F2E0E0
:101070001082148213821582369682E0EB3CF807C8
:10108000B9F784E092E09093D6028093D50280E095
:1010900092E09093D8028093D70284E08093D902A3
:1010A0008093DA0288E092E09093D4028093D30296
:1010B0008AE090E09093DC028093DB0284EF91E081
:1010C0009093DE028093DD021092E1021092E00222
:1010D0001092CF021092D0021092D1021092D2023E
:1010E0001092DF020895809164029091650200974A
:1010F00011F00E94280980915E0290915F02009792
:1011000011F00C9428090895EE0FFF1F881F8BBF64
:101110000790F691E02D19940F931F93CF93DF93CF
:101120008230910510F482E090E0E091FC02F091B1
:10113000FD0230E020E0B0E0A0E0309799F4211506
:10114000310509F44AC0281B390B24303105D8F584
:101150008A819B816115710589F1FB0193838283EB
:10116000FE0111C040815181028113814817590746
:10117000E0F04817590799F4109761F012960C9314
:10118000129713961C933296CF01DF91CF911F9146
:101190000F9108950093FC021093FD02F4CF2115E6
:1011A000310551F04217530738F0A901DB019A01CC
:1011B000BD01DF01F801C1CFEF01F9CF9093FD022E
:1011C0008093FC02CDCFFE01E20FF31F8193919338
:1011D0002250310939832883D7CF2091FA023091E8
:1011E000FB02232B41F420911A0230911B02309311
:1011F000FB022093FA022091180230911902211566
:10120000310541F42DB73EB740911C0250911D02AB
:10121000241B350BE091FA02F091FB02E217F30771
:10122000A0F42E1B3F0B2817390778F0AC014E5F56
:101230005F4F2417350748F04E0F5F1F5093FB0296
:101240004093FA02819391939FCFF0E0E0E09CCF2E
:10125000CF93DF930097E9F0FC013297138212825B
:10126000A091FC02B091FD02ED0130E020E010976A
:10127000A1F420813181820F931F2091FA023091D5
:10128000FB022817390709F061C0F093FB02E093D5
:10129000FA02DF91CF910895EA01CE17DF07E8F552
:1012A0004A815B819E0141155105B1F7E901FB833C
:1012B000EA8349915991C40FD51FEC17FD0761F4DA
:1012C000808191810296840F951FE901998388831B
:1012D000828193819B838A83F0E0E0E012968D9176
:1012E0009C9113970097B9F52D913C911197CD01E1
:1012F0000296820F931F2091FA023091FB02281769
:10130000390739F6309751F51092FD021092FC0220
:10131000B093FB02A093FA02BCCFD383C283408177
:101320005181840F951FC817D90761F44E5F5F4F35
:1013300088819981480F591F518340838A819B81FD
:10134000938382832115310509F0B0CFF093FD021C
:10135000E093FC029ECFFD01DC01C0CF138212821C
:10136000D7CF4F925F926F927F928F929F92AF9260
:10137000BF92CF92DF92EF92FF920F931F93CF9382
:10138000DF938C01009799F4CB01DF91CF911F91EE
:101390000F91FF90EF90DF90CF90BF90AF909F9014
:1013A0008F907F906F905F904F900C948C08FC0111
:1013B000E60FF71F9C0122503109E217F30708F4EA
:1013C000AEC0D901CD91DC911197C617D70720F196
:1013D000C530D10578F0CE0104978617970750F0F5
:1013E000C61BD70B2297C193D1936D937C93CF01EA
:1013F0000E942809C801DF91CF911F910F91FF90A2
:10140000EF90DF90CF90BF90AF909F908F907F90A4
:101410006F905F904F9008955B01AC1ABD0A4C012C
:101420008C0E9D1EA091FC02B091FD02512C412C0E
:10143000F12CE12C109731F58091FA029091FB028A
:101440008815990509F05CC04616570608F058C083
:101450008091180290911902009741F48DB79EB7C0
:1014600040911C0250911D02841B950BE817F9074F
:1014700008F055C0F093FB02E093FA02F901718382
:101480006083B8CF8D919C91119712966C901297B2
:1014900013967C901397A815B90559F56C0142E095
:1014A000C40ED11CCA14DB0420F1AC014A195B093B
:1014B000DA011296159780F062827382518340831D
:1014C000D9016D937C93E114F10471F0D701139667
:1014D000FC93EE9312978ECF22968C0F9D1FF901ED
:1014E00091838083F301EFCFF093FD02E093FC0240
:1014F00081CF4816590608F42C017D01D3019ACFFB
:10150000CB010E948C087C01009749F0AE01B80124
:101510000E94920AC8010E94280987016BCF10E03F
:1015200000E068CFFB01DC0102C001900D92415048
:101530005040D8F70895FB01DC018D91019080198E
:101540000110D9F3990B0895FB01DC0101900D9274
:101550000020E1F7089511E0C9E3D1E000E006C002
:10156000802FFE010E9484082196011DCA33D107F5
:0A15700080E00807A9F7F894FFCF08
:10157A001A1B1C1D161718193738392F3435362AF5
:10158A003132332D43303D2B0000FE028000000033
:10159A0000002E03EE02BD0200000000C804000293
:1015AA00580357033938333130333200636F72725C
:1015BA006563742070617373776F72640020777249
:0E15CA006F6E672070617373776F726420001C
:00000001FF
