:100000000C943D010C946E010C946E010C946E01E5
:100010000C946E010C946E010C946E010C946E01A4
:100020000C946E010C946E010C946E010C946E0194
:100030000C946E010C946E010C946E010C946E0184
:100040000C946E010C946E010C946E010C946E0174
:100050000C946E010C946E010C946E010C94B1041E
:100060000C946E010C946E010C946E010C946E0154
:100070000C946E010C946E010C946E010C946E0144
:100080000C946E010C946E010C946E010C946E0134
:100090000C946E010C946E010C946E010C946E0124
:1000A0000C946E010C946E010C946E010C946E0114
:1000B0000C946E010C946E010C946E010C946E0104
:1000C0000C946E010C946E010C946E010C947B04E4
:1000D0000C9451040C946E010C946E010C946E01FE
:1000E0000C946E010C94FB040C948C030C94F80398
:1000F0000C947A030C9403020C943C040C94E602D6
:100100000C9438040C9474030C9499020C945F03BF
:100110000C9482030C9488030C9467030C946A0378
:100120000C949A030C945B030C94C7030C943F0249
:100130000C9496030C9490030C9463030C947E032C
:100140000C9495030C9453020C9470030C9430029D
:100150000C9461020C945503000021002400270038
:100160002A002D00300033000101000004010701C6
:100170000A0100002200250028002B002E0031007B
:10018000340002010000050108010B0100002000FD
:100190002300260029002C002F003200000100005F
:1001A00003010601090105050505070508080808FA
:1001B000020202020A0A08080404040401010101FF
:1001C00001010101030303030303030304070707FA
:1001D0000C0C0C0C0C0C0C0C02020202060606069F
:1001E000060606060B0B0B0B0B0B0B0B010210206C
:1001F000200808102040102040800201020108045D
:1002000002010102040810204080804020100804F0
:100210000201800402018040201008040201080449
:10022000020101020408102040800102040810208D
:10023000408000000A0B02090C0D0E0807030401A0
:1002400000000000000000000000000000000000AE
:10025000000000000000000000000000000012117B
:10026000100000000000000000000000000000007E
:100270000000000000000000FB0411241FBECFEFAF
:10028000D1E2DEBFCDBF00E00CBF12E0A0E0B2E0E3
:10029000EAEFFEE000E00BBF02C007900D92A8332A
:1002A000B107D9F723E0A8E3B2E001C01D92AD3455
:1002B000B207E1F711E0CDE3D1E000E006C02197FD
:1002C0000109802FFE010E947307CC33D10780E023
:1002D0000807A9F70E9488050C947B070C9400007E
:1002E00096E0899FD0011124A252BD4F90967C9335
:1002F0006E935F9791E091969C939197E0914B0359
:10030000F0914C0390914A03992339F0309751F0C2
:10031000811108C08091FA021994309719F05C9607
:100320008C91FACF0895CF92DF92EF92FF920F93C4
:100330001F9396E0899FF0011124E252FD4F11A214
:10034000278D30A12130310551F178F0223031056F
:1003500009F451C02330310509F452C01F910F91A7
:10036000FF90EF90DF90CF9008956623B9F361E09E
:1003700070E00E9470012FB7F89480913D02909137
:100380003E02A0913F02B09140022FBF80933603FE
:1003900090933703A0933803B0933903DFCF9FB70F
:1003A000F894C0903D02D0903E02E0903F02F09061
:1003B00040029FBF0091360310913703209138030C
:1003C00030913903C01AD10AE20AF30A00914803B6
:1003D0001091490330E020E00C151D052E053F0566
:1003E00050F462E070E01F910F91FF90EF90DF906A
:1003F000CF900C9470016111B1CF63E070E0F3CF46
:1004000070E060E0F0CFAF92BF92CF92DF92EF92B8
:10041000FF920F931F93CF93DF936C017B018B01AE
:10042000040F151FEB015E01AE18BF08C017D107FE
:1004300059F06991D601ED91FC910190F081E02D88
:10044000C6011995892B79F7C501DF91CF911F91CD
:100450000F91FF90EF90DF90CF90BF90AF900895F5
:10046000FC01538D448D252F30E0842F90E0821BBA
:10047000930B541710F0CF96089501970895FC013F
:10048000918D828D981761F0A28DAE0FBF2FB11D97
:100490005D968C91928D9F5F9F73928F90E00895EF
:1004A0008FEF9FEF0895FC01918D828D981731F0A9
:1004B000828DE80FF11D858D90E008958FEF9FEFFD
:1004C0000895FC01918D228D892F90E0805C9F4FD3
:1004D000821B91098F739927089581E492E00E940D
:1004E000610221E0892B09F420E0822F0895FC01AC
:1004F000A48DA80FB92FB11DA35ABF4F2C91848D85
:1005000090E001968F739927848FA689B7892C93E1
:10051000A089B1898C91837080648C93938D848D34
:10052000981306C00288F389E02D80818F7D808337
:100530000895EF92FF920F931F93CF93DF93EC01F7
:1005400081E0888F9B8D8C8D98131AC0E889F9897A
:10055000808185FF15C09FB7F894EE89FF8960837D
:10056000E889F98980818370806480839FBF81E0FE
:1005700090E0DF91CF911F910F91FF90EF90089540
:10058000F62E0B8D10E00F5F1F4F0F731127E02E1B
:100590008C8D8E110CC00FB607FCFACFE889F98953
:1005A000808185FFF5CFCE010E947702F1CFEB8DE0
:1005B000EC0FFD2FF11DE35AFF4FF0829FB7F89427
:1005C0000B8FEA89FB8980818062CFCFCF93DF9345
:1005D000EC01888D8823B9F0AA89BB89E889F9895B
:1005E0008C9185FD03C0808186FD0DC00FB607FC90
:1005F000F7CF8C9185FFF2CF808185FFEDCFCE01C3
:100600000E947702E9CFDF91CF91089580E090E0DA
:10061000892B49F080E090E0892B29F00E940000AE
:1006200081110E94000080E090E0892B49F080E079
:1006300090E0892B29F00E94000081110E940000A7
:1006400080E090E0892B29F00E946D0281110E94C8
:10065000000080E090E0892B49F080E090E0892B59
:1006600029F00E94000081110C940000089581502F
:10067000823108F05AC0E82FF0E08827ED5BFC4F8C
:100680008F4F0C9473076303670355035B035F038A
:1006900095036A03700374037A037E03820388035D
:1006A0008C039503900396039A03809180008F77C3
:1006B000809380000895809180008F7DF9CF809194
:1006C0008000877FF5CF84B58F7784BD089584B58A
:1006D0008F7DFBCF8091B0008F778093B00008951D
:1006E0008091B0008F7DF9CF809190008F778093BB
:1006F00090000895809190008F7DF9CF80919000B7
:10070000877FF5CF8091A0008F778093A000089518
:100710008091A0008F7DF9CF8091A000877FF5CFD9
:10072000809120018F77809320010895809120018E
:100730008F7DF9CF80912001877FF5CFCF93DF9315
:10074000282F30E0F901EE5CFD4F8491F901E4516E
:10075000FE4FD491F901EA55FE4FC491CC23A1F08C
:1007600081110E943703EC2FF0E0EE0FFF1FE457DA
:10077000FE4FA591B491EC91ED2381E090E009F456
:1007800080E0DF91CF91089580E090E0FACF862F4E
:100790000C949E031F93CF93DF93282F30E0F90131
:1007A000EE5CFD4F8491F901E451FE4FD491F901C3
:1007B000EA55FE4FC491CC23A9F0162F81110E9457
:1007C0003703EC2FF0E0EE0FFF1FEE58FE4FA59120
:1007D000B4918FB7F894EC91111108C0D095DE2335
:1007E000DC938FBFDF91CF911F910895DE2BF8CF5F
:1007F000862F642F0C94CA03CF93DF9390E0FC0103
:10080000E451FE4F24918A559E4FFC018491882328
:10081000C9F090E0880F991FFC01E85AFE4FA5919E
:10082000B491FC01EE58FE4FC591D49161110DC0F9
:100830009FB7F8948C91209582238C9388812823EC
:1008400028839FBFDF91CF910895623051F49FB705
:10085000F8943C91822F809583238C93E8812E2BF2
:10086000EFCF8FB7F894EC912E2B2C938FBFEACF5C
:10087000862F642F0C94FC032091FD023091FE0220
:100880002130310569F4682F81E492E00E949902D9
:1008900042E050E064E372E081E492E00C940302F1
:1008A00008951F920F920FB60F9211240BB60F925C
:1008B0002F933F934F935F936F937F938F939F9368
:1008C000AF93BF93EF93FF9381E492E00E9477028E
:1008D000FF91EF91BF91AF919F918F917F916F9118
:1008E0005F914F913F912F910F900BBE0F900FBED4
:1008F0000F901F9018951F920F920FB60F92112410
:100900000BB60F922F938F939F93EF93FF93E091EA
:100910005102F09152028081E0915702F091580209
:1009200082FD1DC0908180915A028F5F8F7320914C
:100930005B02821741F0E0915A02F0E0EF5BFD4F5D
:10094000958F80935A02FF91EF919F918F912F91F4
:100950000F900BBE0F900FBE0F901F9018958081C7
:10096000F2CF1F920F920FB60F9211242F933F9345
:100970008F939F93AF93BF9380913D0290913E02DE
:10098000A0913F02B091400230913C0223E0230F3E
:100990002D3758F50196A11DB11D20933C0280937F
:1009A0003D0290933E02A0933F02B093400280919B
:1009B000380290913902A0913A02B0913B0201961F
:1009C000A11DB11D8093380290933902A0933A0281
:1009D000B0933B02BF91AF919F918F913F912F9127
:1009E0000F900FBE0F901F90189526E8230F0296C8
:1009F000A11DB11DD2CF109244021092430288EE85
:100A000093E0A0E0B0E08093450290934602A0936B
:100A10004702B09348028CE192E0909342028093A7
:100A2000410285ED90E090934E0280934D0284ED5B
:100A300090E09093500280934F0280ED90E090936D
:100A400052028093510281ED90E090935402809382
:100A5000530282ED90E0909356028093550286ED0A
:100A600090E0909358028093570210925A0210928D
:100A70005B0210925C0210925D021092E0021092F2
:100A8000E4021092E3021092E5028EE292E090936B
:100A9000DF028093DE02EAEFF2E01082148213821A
:100AA0001582369683E0E633F807B9F784E092E0E2
:100AB000909341038093400380E092E0909343033E
:100AC0008093420384E0809344038093450388E04D
:100AD00092E090933F0380933E038AE090E09093EE
:100AE00047038093460384EF91E0909349038093FA
:100AF000480310924C0310924B0310923A03109249
:100B00003B0310923C0310923D0310924A03089558
:100B1000789484B5826084BD84B5816084BD85B5D8
:100B2000826085BD85B5816085BD80916E008160E4
:100B300080936E001092810080918100826080938A
:100B4000810080918100816080938100809180008C
:100B50008160809380008091B10084608093B100B7
:100B60008091B00081608093B0008091910082609C
:100B70008093910080919100816080939100809199
:100B800090008160809390008091A10082608093AA
:100B9000A1008091A10081608093A1008091A000BC
:100BA00081608093A0008091210182608093210167
:100BB00080912101816080932101809120018160D9
:100BC0008093200180917A00846080937A008091E4
:100BD0007A00826080937A0080917A0081608093AD
:100BE0007A0080917A00806880937A001092C10028
:100BF0008CE394E090934C0380934B03E09151027B
:100C0000F091520282E08083E0914D02F0914E0219
:100C10001082E0914F02F09150028FEC808310928D
:100C20005902E0915502F091560286E08083E091EE
:100C30005302F0915402808180618083E0915302DD
:100C4000F0915402808188608083E0915302F0919A
:100C50005402808180688083E0915302F0915402B5
:100C600080818F7D808322242394812C912C5401B8
:100C7000839466246A94762C56E0352E20924A039B
:100C80008FB7F89440913D0250913E0260913F022F
:100C9000709140028FBF80913A0390913B03A091E5
:100CA0003C03B0913D03481B590B6A0B7B0B8091B1
:100CB000460390914703B0E0A0E0C0E08417950799
:100CC000A607B70728F010924A030E940603D6CF62
:100CD00080914403C81760F4E0914003F091410310
:100CE000EC0FF11D62E080810E94FC03CF5FF0CF2A
:100CF000512C80914503581608F05FC0052D10E077
:100D0000E0914203F0914303E00FF11F61E0808125
:100D10000E94FC03E0914203F0914303E00FF11FB6
:100D200060E080810E94CA03D501C401052C04C083
:100D3000880F991FAA1FBB1F0A94D2F76C017C0170
:100D4000E094F094412C809144034816F8F4C42DAB
:100D5000D0E0E0914003F0914103EC0FFD1F808152
:100D60000E949E032496CC0FDD1FC252DD4F892BBB
:100D700041F4888199818C299D29998388834394A2
:100D8000E2CF888199818E219F21F7CFE0914203A4
:100D9000F0914303E00FF11F61E080810E94CA03DC
:100DA0008091420390914303080F191F60E0F801FE
:100DB00080810E94FC0353949CCFCEEDD2E0FE01D3
:100DC000878D90A1892B21F4148E768E658E11A2C9
:100DD000369683E0EA31F80799F710E080914403F2
:100DE000181708F052C000E0E12EF12CEE0CFF1CA9
:100DF000F701EA51FD4F7F0120914503021708F0EA
:100E000042C0F70160817181002E02C0769567951E
:100E10000A94E2F7129F90011124200F311DEEED8C
:100E2000F2E080E0458D568D2417350709F459C04E
:100E30008F5F36968A30B1F760FF23C0EEEDF2E0A7
:100E400090E080E0448D411117C0E0913E03F091A5
:100E50003F03E20FF31F6081389EF001399EF00DD1
:100E60001124E252FD4F648F368F258F10A2178E0A
:100E700061E00E94930105C0019636968A30910583
:100E800009F70F5FB9CF1F5FA9CF80E099A191113A
:100E9000892F2696F3E0CA31DF07C1F79FB7F89490
:100EA00040913D0250913E0260913F02709140029C
:100EB0009FBF40933A0350933B0360933C0370936E
:100EC0003D03882309F4FFCE8091FF02882309F4B3
:100ED000FACE8091FD029091FE02019709F0F3CEC7
:100EE000F4CE6170C6CFEE0FFF1F881F8BBF079037
:0A0EF000F691E02D1994F894FFCF5D
:100EFA001A1B1C1D161718193738392F3435362A7C
:100F0A003132332D43303D2B000000009902030299
:100F1A003002E60261023F02530200000000380478
:080F2A00F803C7030D0A0000E3
:00000001FF
