:020000040000FA
:100000000C9447010C9478010C9478010C947801BD
:100010000C9478010C9478010C9478010C9478017C
:100020000C9478010C9478010C9478010C9478016C
:100030000C9478010C9478010C9478010C9478015C
:100040000C9478010C9478010C9478010C9478014C
:100050000C9478010C9478010C9478010C946E0B3C
:100060000C9478010C9478010C9478010C9478012C
:100070000C9478010C9478010C9478010C9478011C
:100080000C9478010C9478010C9478010C9478010C
:100090000C9478010C9478010C9478010C94B80BB2
:1000A0000C9478010C9478010C9478010C947801EC
:1000B0000C9478010C9478010C9478010C947801DC
:1000C0000C9478010C9478010C9478010C947801CC
:1000D0000C9478010C9478010C9478010C947801BC
:1000E0000C9478010C948C020C9490020C94820273
:1000F0000C9406030C9422050C940F020C94A40299
:100100000C947F050C94DC0C0C947E050C94A802D6
:100110000C94F9040C94D5020C941B050C949A02CF
:100120000C9471020C945E0A0C9478020C94700981
:100130000C940E020C9446030C9463020C947E0201
:100140000C944F050C94A3020C9469020C940805BE
:100150000C94F8040C940D020C946D020C949E0205
:100160000C9475020C9496020C94880200002100F5
:10017000240027002A002D00300033000101000078
:10018000040107010A0100002200250028002B00BD
:100190002E003100340002010000050108010B01AE
:1001A000000020002300260029002C002F00320030
:1001B0000001000003010601090105050505070509
:1001C00008080808020202020A0A080804040404D3
:1001D00001010101010101010303030303030303FF
:1001E000040707070C0C0C0C0C0C0C0C020202028E
:1001F00006060606060606060B0B0B0B0B0B0B0B77
:100200000102102020080810204010204080020128
:10021000020108040201010204081020408080400D
:10022000201008040201800402018040201008040C
:1002300002010804020101020408102040800102AA
:1002400004081020408000000A0B02090C0D0E0863
:10025000070304010000000000000000000000008F
:10026000000000000000000000000000000000008E
:10027000000012111000000000000000000000004B
:10028000000000000000000000000000DC0C112451
:100290001FBECFEFD1E2DEBFCDBF00E00CBF24E038
:1002A000AAECB2E001C01D92AB32B207E1F712E056
:1002B000A0E0B2E0E2E3F4E200E00BBF02C007908E
:1002C0000D92AA3CB107D9F711E0C7E4D1E000E0F4
:1002D00006C021970109802FFE010E94F90FC63444
:1002E000D10780E00807A9F70E94680D0C94171247
:1002F0000C94000096E0899FD0011124A854BC4FB3
:1003000090967C936E935F9791E091969C939197D2
:10031000E0912504F091260490912404992339F06A
:10032000309751F0811108C08091D403199430970F
:1003300019F05C968C91FACF0895CF92DF92EF92EC
:10034000FF920F931F9396E0899FF0011124E854C8
:10035000FC4F11A2278D30A12130310551F178F0E9
:100360002230310509F451C02330310509F452C05F
:100370001F910F91FF90EF90DF90CF90089566232B
:10038000B9F361E070E00E947A012FB7F894809190
:10039000400390914103A0914203B09143032FBFCA
:1003A0008093100490931104A0931204B09313044B
:1003B000DFCF9FB7F894C0904003D0904103E09006
:1003C0004203F09043039FBF009110041091110469
:1003D0002091120430911304C01AD10AE20AF30AE0
:1003E000009122041091230430E020E00C151D053B
:1003F0002E053F0550F462E070E01F910F91FF90D1
:10040000EF90DF90CF900C947A016111B1CF63E04F
:1004100070E0F3CF70E060E0F0CF08950895AF9200
:10042000BF92CF92DF92EF92FF920F931F93CF93E1
:10043000DF936C017B018B01040F151FEB015E0143
:10044000AE18BF08C017D10759F06991D601ED91D8
:10045000FC910190F081E02DC6011995892B79F767
:10046000C501DF91CF911F910F91FF90EF90DF9029
:10047000CF90BF90AF900895FC0144815581608179
:10048000718180EA93E00C940F028150823108F070
:100490005AC0E82FF0E08827EF5AFD4F8F4F0C9499
:1004A000F90F71027502630269026D02A3027802FC
:1004B0007E02820288028C02900296029A02A302B5
:1004C0009E02A402A802809180008F778093800012
:1004D0000895809180008F7DF9CF80918000877F83
:1004E000F5CF84B58F7784BD089584B58F7DFBCF1C
:1004F0008091B0008F778093B00008958091B00014
:100500008F7DF9CF809190008F7780939000089530
:10051000809190008F7DF9CF80919000877FF5CFFB
:100520008091A0008F778093A00008958091A00013
:100530008F7DF9CF8091A000877FF5CF809120013A
:100540008F77809320010895809120018F7DF9CFCE
:1005500080912001877FF5CFCF93DF93282F30E064
:10056000F901EA5BFD4F8491F901E050FE4FD4910F
:10057000F901E654FE4FC491CC23A1F081110E94F1
:100580004502EC2FF0E0EE0FFF1FE056FE4FA59165
:10059000B491EC91ED2381E090E009F480E0DF91EB
:1005A000CF91089580E090E0FACF862F0C94AC02B2
:1005B0001F93CF93DF93282F30E0F901EA5BFD4FC3
:1005C0008491F901E050FE4FD491F901E654FE4FB9
:1005D000C491CC23A9F0162F81110E944502EC2F63
:1005E000F0E0EE0FFF1FEA57FE4FA591B4918FB7D1
:1005F000F894EC91111108C0D095DE23DC938FBFE5
:10060000DF91CF911F910895DE2BF8CF862F642FB5
:100610000C94D802CF93DF9390E0FC01E050FE4FA2
:10062000249186549E4FFC0184918823C9F090E068
:10063000880F991FFC01E459FE4FA591B491FC016C
:10064000EA57FE4FC591D49161110DC09FB7F89440
:100650008C91209582238C938881282328839FBFA7
:10066000DF91CF910895623051F49FB7F8943C9197
:10067000822F809583238C93E8812E2BEFCF8FB729
:10068000F894EC912E2B2C938FBFEACF862F642FFA
:100690000C940A033FB7F894809130039091310392
:1006A000A0913203B091330326B5A89B05C02F3F1C
:1006B00019F00196A11DB11D3FBFBA2FA92F982F88
:1006C0008827BC01CD01620F711D811D911D42E083
:1006D000660F771F881F991F4A95D1F708958F924B
:1006E0009F92AF92BF92CF92DF92EF92FF926B01F7
:1006F0007C010E944A034B015C01C114D104E10456
:10070000F104B9F00E944A03681979098A099B0922
:10071000683E73408105910580F321E0C21AD1083B
:10072000E108F10888EE880E83E0981EA11CB11C38
:10073000E4CFFF90EF90DF90CF90BF90AF909F906D
:100740008F90089520910C03260F3327331F2132F9
:100750003105ECF420916A03FC0190E080E0243044
:1007600069F082E00895A0910C032191AC014451FD
:100770005D4FA40FB52FB11D2C930196861798F3EA
:1007800080910C03680F60930C0380E0089581E072
:10079000089510926A0381E08093690310924403E4
:1007A00061E084E10E94D80261E085E10E94D80204
:1007B000E9EBF0E080818E7F808380818D7F808374
:1007C00088E48093B80085E48093BC000895CF93BB
:1007D000DF9391E09093EB028823B9F0C091B800C9
:1007E000D091BA008091BC008A7B8093BC0060E00D
:1007F00084E10E94D80260E085E10E94D8020E9454
:10080000C903D093BA00C093B800DF91CF91089587
:100810008F929F92AF92BF92CF92DF92EF92FF9210
:100820000F931F93CF93DF93D0919303D13208F0AE
:10083000D7C0182FC09192030E944A036B017C011C
:1008400080916A0381116BC082E080936A031093E8
:1008500069038FEF8093680310926703D093660358
:10086000A2E7B3E0E6E4F3E080E0D81391C0109291
:10087000450380914503CC0FC82BC093450380915D
:100880004403813009F088C0109244030E944A0357
:100890006B017C01809145038093BB0080916C03C8
:1008A00090916D03A0916E03B0916F03892B8A2BF9
:1008B0008B2BA1F00E944A0300916C0310916D03F1
:1008C00020916E0330916F036C197D098E099F0989
:1008D000061717072807390708F442C08091BC00A3
:1008E00083FDD8CF85EC8093BC000E944A036B0146
:1008F0007C0180916A03823009F450C080916803C2
:100900008F3F09F46FC080916803803209F46CC096
:1009100080916803803309F469C084E026C0809127
:100920006C0390916D03A0916E03B0916F03892BBE
:100930008A2B8B2B09F484CF0E944A0380906C038E
:1009400090906D03A0906E03B0906F036C197D09B9
:100950008E099F0986169706A806B90608F070CF7B
:1009600080916B030E94E70385E01092710310925F
:10097000930310927003DF91CF911F910F91FF901D
:10098000EF90DF90CF90BF90AF909F908F900895A1
:100990009D9191938F5F69CF85EEA5CF80916C0378
:1009A00090916D03A0916E03B0916F03892B8A2BF8
:1009B0008B2B09F49ECF0E944A0300916C03109187
:1009C0006D0320916E0330916F036C197D098E09C0
:1009D0009F09061717072807390708F08ACFC0CFE5
:1009E00081E0C3CF80E0C1CF82E0BFCF83E0BDCF45
:1009F0000895E091390380913803E81730F4F0E06E
:100A0000E553FD4F808190E008958FEF9FEF0895AB
:100A100090913903809138032FEF3FEF981748F4F6
:100A2000E92FF0E0E553FD4F208130E09F5F909388
:100A30003903C90108958091380390913903891BC6
:100A4000990B0895CF92DF92EF92FF920F931F932D
:100A5000CF93DF937C01CB018A0120917003222385
:100A600089F0EB016B01C40ED51ECC15DD0569F0D4
:100A70006991D701ED91FC910190F081E02DC701C2
:100A80001995F3CF642F0E94A203C801DF91CF9183
:100A90001F910F91FF90EF90DF90CF900895CF932B
:100AA000DF931F92CDB7DEB76983209170032223B5
:100AB000F9F020919303203258F021E030E0FC015E
:100AC0003383228390E080E00F90DF91CF910895EF
:100AD00080917103E82FF0E0EE58FC4F99819083EC
:100AE0008F5F809371038093930381E090E0ECCF5C
:100AF00061E0CE0101960E94A203F7CF089590E035
:100B000080E00895CF93C62F91E09093700390E515
:100B1000909392031092710310929303682F84E9CB
:100B200093E00E944F056C2F84E993E00E944F05EB
:100B300081E0CF910C94080460913E036093CA0257
:100B400080E00E94820568EE73E080E090E00E9401
:100B50006F0360913D038AE00E94820568EE73E0B6
:100B600080E090E00E946F0360913C0384E10E946A
:100B7000820568EE73E080E090E00E946F03609170
:100B80003B038EE10E94820568EE73E080E090E016
:100B90000E946F0360913A0388E20C948205809171
:100BA0003E0390913F0361E081309105F1F1823085
:100BB000910551F460E084E00E94D80261E085E094
:100BC0000E94D80260E00CC08330910571F460E0AF
:100BD00084E00E94D80260E085E00E94D80261E0D3
:100BE00086E00E94D80260E010C08430910581F454
:100BF00060E084E00E94D80260E085E00E94D802B4
:100C000060E086E00E94D80261E087E00C94D802A0
:100C100060E0079751F461E084E00E94D80261E04F
:100C200085E00E94D80261E0ECCF84E00E94D80207
:100C300060E0C5CFFC0101900020E9F73197AF01DA
:100C4000481B590BBC0180EA93E00C940F02FC0195
:100C500080819181009711F00C949D1008950F935D
:100C60001F93CF93DF93EC0188819981009759F00E
:100C70002A813B812617370730F081E0DF91CF9141
:100C80001F910F9108958B016F5F7F4F0E94261176
:100C9000009759F0998388831B830A832C813D81B7
:100CA000232B59F7FC011082E8CF80E0E7CFEF92C9
:100CB000FF920F931F93CF93DF93EC01FB01E08032
:100CC000F180E114F10411F1048115810115110580
:100CD000A9F08C819D81080F191FB801CE010E94D7
:100CE0002F06882399F0288139818C819D81B70155
:100CF000820F931F0E9410121D830C83CE01DF917F
:100D0000CF911F910F91FF90EF9008958881998165
:100D1000009711F00E949D10198218821D821C827A
:100D20001B821A82EBCFEF92FF920F931F93CF9308
:100D3000DF93EC017B018A01BA010E942F06288112
:100D40003981811114C02115310519F0C9010E94A2
:100D50009D10198218821D821C821B821A82CE016C
:100D6000DF91CF911F910F91FF90EF9008951D8318
:100D70000C83B701C9010E941012F1CFEF92FF92CC
:100D80000F931F93CF93DF9300D000D000D0CDB747
:100D9000DEB78C01862FF801118210821382128235
:100DA000158214824AE09E012F5F3F4F7901B901FD
:100DB00090E00E94CF0FF70101900020E9F73197F2
:100DC000AF014E195F09B701C8010E949306299629
:100DD0000FB6F894DEBF0FBECDBFDF91CF911F914C
:100DE0000F91FF90EF900895EF92FF920F931F9352
:100DF000CF93DF93CDB7DEB762970FB6F894DEBF1F
:100E00000FBECDBF8C01CB01F8011182108213827D
:100E10001282158214824AE09E012F5F3F4F7901B2
:100E2000B9010E94C40FF70101900020E9F7319742
:100E3000AF014E195F09B701C8010E94930662967F
:100E40000FB6F894DEBF0FBECDBFDF91CF911F91DB
:100E50000F91FF90EF90089585ED8093BC008091F5
:100E60006C0390916D03A0916E03B0916F03079690
:100E7000A11DB11D23E0B695A795979587952A9555
:100E8000D1F72091BC0024FD03C010926A0308959D
:100E900040916C0350916D0360916E0370916F03EC
:100EA000452B462B472B69F30097A105B10541F06F
:100EB00025E32A95F1F700000197A109B109E1CFD7
:100EC00080916B030C94E703CF93DF93EC0160E018
:100ED0008E810E94D80261E08E810E94D80260E07B
:100EE0008E810E94D8028BE891E00197F1F7DF91A3
:100EF000CF910895CF92DF92EF92FF920F931F93BD
:100F0000CF93DF936C017C0187E0E80EF11CD0E009
:100F1000C0E0062F10E0B8010C2E02C07595679551
:100F20000A94E2F76170F70181917F010E94D80273
:100F30002196C430D10579F7C601DF91CF911F9179
:100F40000F91FF90EF90DF90CF900C946407CF92B9
:100F5000DF92EF92FF920F931F93CF93DF93EC01F9
:100F6000F62E642F8C810E94D8028D818F3F19F05C
:100F700060E00E94D8020F2D10E08F8584FF25C00D
:100F80006E0187E0C80ED11CF12CE12CB8010E2CAB
:100F900002C0759567950A94E2F76170F601819138
:100FA0006F010E94D802FFEFEF1AFF0A88E0E816EF
:100FB000F10461F7CE01DF91CF911F910F91FF9066
:100FC000EF90DF90CF900C946407B80184E07595A2
:100FD00067958A95E1F7CE010E947A076F2DCE01C1
:100FE000DF91CF911F910F91FF90EF90DF90CF9005
:100FF0000C947A0740E0682F80EA93E00C94A707EE
:1010000081E00E94FA078BE39FE10197F1F70895D1
:10101000CF93DF93823029F49091AF03986090933F
:10102000AF038093B3031092B40380E48093B503BD
:1010300080E18093B60380E58093B70361E08091FF
:10104000A4030E940A038091A5038F3F19F061E079
:101050000E940A0361E08091A6030E940A03C0EA8D
:10106000D3E09E01205A33408091AF0384FD0BC032
:1010700084E090E021962817390744F461E08E81DE
:101080000E940A03EECF88E090E0F4CF8BE39DE06E
:101090000197F1F760E08091A4030E94D80260E01C
:1010A0008091A6030E94D8028091A5038F3F19F07A
:1010B00060E00E94D8028091AF0384FD34C063E0F9
:1010C00080EA93E00E947A07CBE4D6E4CE01019750
:1010D000F1F763E080EA93E00E947A072197F1F745
:1010E00063E080EA93E00E947A0783E592E001974B
:1010F000F1F762E080EA93E00E947A078091AF0303
:1011000080620E94FA0784E08093B0038CE00E9422
:10111000FA070E94000882E08093B10386E0DF9125
:10112000CF910C94FA0780620E94FA078BE496E450
:101130000197F1F78091AF0380620E94FA0783E57F
:1011400092E00197F1F78091AF0380620E94FA0765
:10115000D5CF9091B303691710F06FEF690FE62FA9
:10116000F0E0E056FC4F9489890F80680C94FA07F0
:101170001F93CF93DF93CDB7DEB72C970FB6F894BC
:10118000DEBF0FBECDBF182F0E94CF050E94000802
:1011900060913E0370913F03CE0107960E94F406D2
:1011A0001A8219821C821B821E821D8245E050E039
:1011B00066E472E0CE0101960E949306BE01695F6B
:1011C0007F4FCE0101960E9457060E943C02CE013D
:1011D00001960E942706CE0107960E94270661E02D
:1011E00080E00E94A908612FCE0107960E94BE06EA
:1011F0001A8219821C821B821E821D8246E050E0E8
:101200006CE472E0CE0101960E949306BE01695F14
:101210007F4FCE0101960E9457060E943C02CE01EC
:1012200001960E942706CE0107960E94270668EEC7
:1012300073E080E090E00E946F032C960FB6F89464
:10124000DEBF0FBECDBFDF91CF911F9108950E94E9
:10125000CF050E94000880913E0390913F030097C4
:10126000E1F483E592E00E941A0660E08EE00E94BD
:10127000A9088CE592E00E941A0661E080E00E94D5
:10128000A9088EE592E00E941A0661E08EE00E94B5
:10129000A90884E692E00C941A068930910541F47D
:1012A00086E692E00E941A0661E080E00C94A908AC
:1012B0008A30910519F484E792E0F4CF8B309105E0
:1012C00019F482E892E0EECF8C30910519F480E9B0
:1012D00092E0E8CF0D9719F48EE992E0E3CF0895FC
:1012E00041E00E94A70781E090E00895CF92DF924D
:1012F000EF92FF920F931F93CF9391E0909370031F
:1013000090E5909392031092710310929303682FCB
:1013100084E993E00E944F0581E00E9408040E9446
:101320004A036B017C0180916A03811164C081E0F2
:1013300080936A03809369039FEF909368031092F0
:101340006703109266038093450380914503806A8A
:101350008093450380914403813009F08BC0109243
:1013600044030E944A036B017C01809145038093F2
:10137000BB0080916C0390916D03A0916E03B091BE
:101380006F03892B8A2B8B2BA1F00E944A030091BB
:101390006C0310916D0320916E0330916F036C19F3
:1013A0007D098E099F09061717072807390708F4D2
:1013B00043C08091BC0083FDD8CF85EC8093BC00F6
:1013C0000E944A036B017C0180916A03813009F419
:1013D00053C080916703C1E0811102C0C0916703CF
:1013E000E6E4F3E0ABECB2E080E08C1751F19191D0
:1013F0009D938F5FFACF80916C0390916D03A091C4
:101400006E03B0916F03892B8A2B8B2B09F48BCF42
:101410000E944A0300916C0310916D0320916E03AA
:1014200030916F036C197D098E099F090617170704
:101430002807390708F077CF80916B030E94E703F4
:10144000C0E010923903C093380365E070E080E09B
:1014500090E00E946F0380E0CC2321F084E993E0C8
:101460000E940805CF911F910F91FF90EF90DF90A0
:10147000CF90089585EEA2CF80916C0390916D037B
:10148000A0916E03B0916F03892B8A2B8B2B09F4EB
:101490009BCF0E944A0300916C0310916D03209131
:1014A0006E0330916F036C197D098E099F09061731
:1014B00017072807390708F087CFBECF1F93CF93B0
:1014C000DF9300D000D0CDB7DEB7682F8091D7036F
:1014D0009091D803019709F057C080913E039091F5
:1014E0003F03009709F05AC089E090E06A3209F49E
:1014F0006FC06B3209F046C00E94000888EA92E093
:101500000E941A0680E00E947609182F8093CA0272
:1015100068EE73E080E090E00E946F038AE00E9432
:10152000760980933D0368EE73E080E090E00E94CE
:101530006F0384E10E94760980933C0368EE73E0B8
:1015400080E090E00E946F038EE10E947609809314
:101550003B0368EE73E080E090E00E946F0388E256
:101560000E94760980933A03111103C081E08093B1
:10157000CA028091CA0290E090933F0380933E0399
:101580000E9400080E94270926960FB6F894DEBF35
:101590000FBECDBFDF91CF911F9108958930910586
:1015A000E1F4605360933D03CE0101960E94BE06B4
:1015B000CE0101960E943C02CE0101960E942706B0
:1015C00068EE73E080E090E00E946F038AE090E0B4
:1015D00090933F0380933E03D5CF8A309105C1F4A9
:1015E000605360933C03CE0101960E94BE06CE017B
:1015F00001960E943C02CE0101960E94270668EEE9
:1016000073E080E090E00E946F038BE090E0E0CF19
:101610008B309105C1F4605360933B03CE0101967A
:101620000E94BE06CE0101960E943C02CE010196A8
:101630000E94270668EE73E080E090E00E946F034E
:101640008CE090E0C5CF8C309105C1F4605360937D
:101650003A03CE0101960E94BE06CE0101960E9479
:101660003C02CE0101960E94270668EE73E080E0FE
:1016700090E00E946F038DE090E0AACF0D9709F0F3
:1016800083CF8FEC860F843008F07ECF062E000CBF
:10169000770B6053710970933F0360933E03CE0153
:1016A00001960E94F406CE0101960E943C02CE01F2
:1016B00001960E94270668EE73E080E090E00E94A9
:1016C0006F030E94000886EB92E00E941A060E94B7
:1016D0009C0510923F0310923E0354CF1F920F922D
:1016E0000FB60F9211242F933F938F939F93AF9335
:1016F000BF938091400390914103A0914203B09128
:10170000430330912F0323E0230F2D3758F5019623
:10171000A11DB11D20932F0380934003909341039B
:10172000A0934203B093430380913003909131031F
:10173000A0913203B09133030196A11DB11D809396
:10174000300390933103A0933203B0933303BF91DE
:10175000AF919F918F913F912F910F900FBE0F905E
:101760001F90189526E8230F0296A11DB11DD2CF18
:101770001F920F920FB60F9211240BB60F922F9358
:101780003F934F935F936F937F938F939F93AF9309
:10179000BF93EF93FF938091B900887F803609F45F
:1017A0004DC008F040C0883209F4A9C028F5803146
:1017B00009F49DC0C8F4882309F4FBC0883009F4FB
:1017C00096C0FF91EF91BF91AF919F918F917F91C3
:1017D0006F915F914F913F912F910F900BBE0F90A2
:1017E0000FBE0F901F901895883109F488C0803281
:1017F00041F78093680314C0803409F49DC040F41D
:101800008033B9F38833E9F68093680385ECB0C080
:10181000803509F485C0883509F496C0883489F686
:101820000E942C07CECF883909F48CC038F5883750
:1018300029F050F4883611F0803719F683E0809350
:101840006A0310922E0357C0883809F47BC0803990
:1018500019F0803809F0B5CF80912E03803208F05E
:1018600071C0E0912E0381E08E0F80932E03809152
:10187000BB00F0E0E25FFC4F80833DC0803B39F06D
:10188000E0F4803A09F479C0883A09F09ACF84E00C
:1018900080936A0310920D0310920C03E0913603BB
:1018A000F0913703199580910C0381110FC081E0ED
:1018B00080930C031092EC0209C0803C09F4A6CF7F
:1018C000883C09F4A3CF883B09F07BCFE0910D035E
:1018D00081E08E0F80930D03F0E0E451FD4F808195
:1018E0008093BB0090910D0380910C0329C08091DF
:1018F00045038093BB0085EC8093BC0062CF909140
:10190000670380916603981758F5E091670381E0BB
:101910008E0F80936703F0E0EA5BFC4F8081E9CF94
:10192000E091670381E08E0F809367038091BB0095
:10193000F0E0EA5BFC4F808390916703809166033F
:101940009817C8F285E8D8CFE091670381E08E0F41
:10195000809367038091BB00F0E0EA5BFC4F8083DB
:101960008091690381115CCF81E08093440384EA14
:101970008093BC0010926A0324CF85EC8093BC0056
:1019800010926A0380912E03803230F4E0912E038E
:10199000F0E0E25FFC4F108260912E0370E0E09176
:1019A0003403F09135038EE093E0199510922E03E5
:1019B00008CF1092680334CF1092970310929603C9
:1019C00088EE93E0A0E0B0E08093980390939903B1
:1019D000A0939A03B0939B0382E292E090939503C5
:1019E000809394031092BA031092BE031092BD0329
:1019F0001092BF0380E492E09093B9038093B80300
:101A0000E4EDF3E01082148213821582369684E0AE
:101A1000E031F807B9F784E092E090931B048093DB
:101A20001A0480E092E090931D0480931C0484E0EB
:101A300080931E0480931F0488E092E09093190421
:101A4000809318048AE090E090932104809320040E
:101A500084EF91E090932304809322041092260453
:101A6000109225041092140410921504109216047A
:101A700010921704109224041092A3031092A20350
:101A800084E392E09093A1038093A00383E3809387
:101A9000A4038FEF8093A50384E38093A60388E0DB
:101AA0008093A70389E08093A8038AE08093A90329
:101AB0008BE08093AA031092AB031092AC031092B8
:101AC000AD031092AE031092AF0381E00C940808AE
:101AD000789484B5826084BD84B5816084BD85B509
:101AE000826085BD85B5816085BD80916E00816015
:101AF00080936E00109281008091810082608093BB
:101B000081008091810081608093810080918000BC
:101B10008160809380008091B10084608093B100E7
:101B20008091B00081608093B000809191008260CC
:101B300080939100809191008160809391008091C9
:101B400090008160809390008091A10082608093DA
:101B5000A1008091A10081608093A1008091A000EC
:101B600081608093A0008091210182608093210197
:101B70008091210181608093210180912001816009
:101B80008093200180917A00846080937A00809114
:101B90007A00826080937A0080917A0081608093DD
:101BA0007A0080917A00806880937A001092C10058
:101BB00082E00E94080810923F0310923E030E94A8
:101BC00027098EE59AE0909326048093250461E02E
:101BD00084E00E940A0361E085E00E940A0361E05C
:101BE00086E00E940A0361E087E00E940A031092E7
:101BF00039031092380310927103109293030E94DC
:101C0000C9038DE092E090933703809336038EE012
:101C100092E0909335038093340360E082E00E9469
:101C20000A03812C912C5401839466246A94762CA7
:101C300053E0452E512C51E0509324048FB7F89473
:101C400040914003509141036091420370914303DE
:101C50008FBF8091140490911504A0911604B09147
:101C60001704481B590B6A0B7B0B80912004909141
:101C70002104B0E0A0E0C0E084179507A607B707ED
:101C8000B8F01092240482E00E94AC02892B09F083
:101C900019C10E94000886EB92E00E941A060E9479
:101CA0009C0510923F0310923E030E9427091BC11E
:101CB00080911E04C81760F4E0911A04F0911B048F
:101CC000EC0FF11D62E080810E940A03CF5FF0CF2C
:101CD000312C80911F04381608F05FC0032D10E0EE
:101CE000E0911C04F0911D04E00FF11F61E0808180
:101CF0000E940A03E0911C04F0911D04E00FF11F03
:101D000060E080810E94D802D501C401032C04C088
:101D1000880F991FAA1FBB1F0A94D2F76C017C0180
:101D2000E094F094212C80911E042816F8F4C22D22
:101D3000D0E0E0911A04F0911B04EC0FFD1F8081AC
:101D40000E94AC022496CC0FDD1FC854DC4F892BB7
:101D500041F4888199818C299D29998388832394D2
:101D6000E2CF888199818E219F21F7CFE0911C04D9
:101D7000F0911D04E00FF11F61E080810E94D80204
:101D800080911C0490911D04080F191F60E0F80158
:101D900080810E940A0333949CCFC8EBD3E0FE01FC
:101DA000878D90A1892B21F4148E768E658E11A2D9
:101DB000369653E0E43FF50799F710E080911E0452
:101DC000181708F053C000E0E12EF12CEE0CFF1CB8
:101DD000C70180549C4F7C0120911F04021708F01A
:101DE00043C0F70160817181002E02C0769567952E
:101DF0000A94E2F7129F90011124200F311DE8EBA5
:101E0000F3E080E0458D568D2417350709F4BAC0FC
:101E10008F5F36968A30B1F760FF24C0E8EBF3E0BD
:101E200090E080E0448D411118C0E0911804F091D9
:101E30001904E20FF31F408156E0589FF001599FAB
:101E4000F00D1124E854FC4F448F368F258F10A2DB
:101E5000178E61E00E949D0105C0019636968A307A
:101E6000910501F70F5FB8CF1F5FA8CF80E099A160
:101E70009111892F269693E0C43FD907C1F79FB7E8
:101E8000F894409140035091410360914203709156
:101E900043039FBF409314045093150460931604AA
:101EA00070931704882309F4ECCE8091D90388231A
:101EB00009F4E7CE8091D7039091D803019709F0F8
:101EC000E0CEE1CE80913E0390913F0381309105B9
:101ED000C1F480913D0381110EC0E2E0F0E0F09387
:101EE0003F03E0933E0380E090E0892B09F4A3CE0A
:101EF0000E940000A0CE815080933D030E94B8084C
:101F0000F2CF8230910569F480913C03811105C0C4
:101F100050923F0340923E03E6CF815080933C03B2
:101F2000EDCF8330910579F480913B03811107C097
:101F300084E090E090933F0380933E03D4CF8150A0
:101F400080933B03DBCF049771F680913A038111B4
:101F500015C00E94000880EC92E00E941A06E7E09B
:101F6000F0E0F0933F03E0933E030E94CF0560ED65
:101F700077E080E090E00E946F0393CE81508093E1
:101F80003A03BCCF617066CFBB274A3031F4992346
:101F900022F4BDE2909581959F4F0C94D00FBB2702
:101FA000FB015527AA27880F991FAA1FA41710F015
:101FB000A41B83955051B9F7A05DAA3308F0A95D21
:101FC000A193009779F7B111B1931192CB010C94C1
:101FD000E90FDC01FC01672F71917723E1F732975C
:101FE00004C07C916D9370836291AE17BF07C8F3F4
:101FF0000895EE0FFF1F881F8BBF0790F691E02D0D
:1020000019940F931F93CF93DF938230910510F4AF
:1020100082E090E0E0912904F0912A0430E020E091
:10202000B0E0A0E0309799F42115310509F44AC0D9
:10203000281B390B24303105D8F58A819B81611525
:10204000710589F1FB0193838283FE0111C04081F8
:1020500051810281138148175907E0F04817590749
:1020600099F4109761F012960C93129713961C93A3
:102070003296CF01DF91CF911F910F910895009378
:10208000290410932A04F4CF2115310551F0421789
:10209000530738F0A901DB019A01BD01DF01F80106
:1020A000C1CFEF01F9CF90932A0480932904CDCFBB
:1020B000FE01E20FF31F819391932250310939837E
:1020C0002883D7CF2091270430912804232B41F473
:1020D00020911A0230911B02309328042093270488
:1020E00020911802309119022115310541F42DB7C4
:1020F0003EB740911C0250911D02241B350BE0910C
:102100002704F0912804E217F307A0F42E1B3F0BDD
:102110002817390778F0AC014E5F5F4F2417350759
:1021200048F04E0F5F1F509328044093270481937B
:1021300091939FCFF0E0E0E09CCFCF93DF930097A7
:10214000E9F0FC01329713821282A0912904B09128
:102150002A04ED0130E020E01097A1F420813181C4
:10216000820F931F209127043091280428173907E4
:1021700009F061C0F0932804E0932704DF91CF9128
:102180000895EA01CE17DF07E8F54A815B819E01D9
:1021900041155105B1F7E901FB83EA834991599152
:1021A000C40FD51FEC17FD0761F480819181029661
:1021B000840F951FE90199838883828193819B8392
:1021C0008A83F0E0E0E012968D919C91139700973E
:1021D000B9F52D913C911197CD010296820F931F75
:1021E00020912704309128042817390739F63097B1
:1021F00051F510922A0410922904B0932804A09358
:102200002704BCCFD383C28340815181840F951FA3
:10221000C817D90761F44E5F5F4F88819981480FD5
:10222000591F518340838A819B8193838283211527
:10223000310509F0B0CFF0932A04E09329049ECF32
:10224000FD01DC01C0CF13821282D7CF4F925F9283
:102250006F927F928F929F92AF92BF92CF92DF92B6
:10226000EF92FF920F931F93CF93DF938C01009710
:1022700099F4CB01DF91CF911F910F91FF90EF90D7
:10228000DF90CF90BF90AF909F908F907F906F9096
:102290005F904F900C940110FC01E60FF71F9C011A
:1022A00022503109E217F30708F4AEC0D901CD91ED
:1022B000DC911197C617D70720F1C530D10578F00A
:1022C000CE0104978617970750F0C61BD70B2297AD
:1022D000C193D1936D937C93CF010E949D10C8014F
:1022E000DF91CF911F910F91FF90EF90DF90CF90F2
:1022F000BF90AF909F908F907F906F905F904F9026
:1023000008955B01AC1ABD0A4C018C0E9D1EA09174
:102310002904B0912A04512C412CF12CE12C109766
:1023200031F580912704909128048815990509F0CA
:102330005CC04616570608F058C08091180290916C
:102340001902009741F48DB79EB740911C0250913D
:102350001D02841B950BE817F90708F055C0F09390
:102360002804E0932704F90171836083B8CF8D912D
:102370009C91119712966C90129713967C901397DC
:10238000A815B90559F56C0142E0C40ED11CCA1458
:10239000DB0420F1AC014A195B09DA0112961597AA
:1023A00080F06282738251834083D9016D937C9364
:1023B000E114F10471F0D7011396FC93EE93129798
:1023C0008ECF22968C0F9D1FF90191838083F3019C
:1023D000EFCFF0932A04E093290481CF48165906E1
:1023E00008F42C017D01D3019ACFCB010E9401108A
:1023F0007C01009749F0AE01B8010E940712C801A4
:102400000E949D1087016BCF10E000E068CFFB01B8
:10241000DC0102C001900D9241505040D8F7089560
:10242000FB01DC0101900D920020E1F70895F89482
:10243000FFCF1A1B1C1D161718193738392F3435C2
:10244000362A3132332D43303D2B00002B048000DF
:10245000000000004F0522057F05F8041B05080554
:10246000F9040000000070090F027F057E050000DE
:10247000000046030603D502747970652000746974
:102480006D653A200073657474696E677300780037
:102490007374617274002B0074696D65206F66201F
:1024A00074797065310074696D65206F6620747988
:1024B0007065320074696D65206F6620747970658F
:1024C000330074696D65206F66207479706534001F
:1024D00077617368207479706500726574726965DC
:1024E00076696E672E2E2E00736176696E672E2ECA
:0C24F0002E0066696E6973686564000068
:020000040003F7
:10E000000D9489F10D94B2F10D94B2F10D94B2F129
:10E010000D94B2F10D94B2F10D94B2F10D94B2F1F0
:10E020000D94B2F10D94B2F10D94B2F10D94B2F1E0
:10E030000D94B2F10D94B2F10D94B2F10D94B2F1D0
:10E040000D94B2F10D94B2F10D94B2F10D94B2F1C0
:10E050000D94B2F10D94B2F10D94B2F10D94B2F1B0
:10E060000D94B2F10D94B2F10D94B2F10D94B2F1A0
:10E070000D94B2F10D94B2F10D94B2F10D94B2F190
:10E080000D94B2F10D94B2F10D94B2F10D94B2F180
:10E090000D94B2F10D94B2F10D94B2F10D94B2F170
:10E0A0000D94B2F10D94B2F10D94B2F10D94B2F160
:10E0B0000D94B2F10D94B2F10D94B2F10D94B2F150
:10E0C0000D94B2F10D94B2F10D94B2F10D94B2F140
:10E0D0000D94B2F10D94B2F10D94B2F10D94B2F130
:10E0E0000D94B2F141546D656761323536300041AF
:10E0F000726475696E6F206578706C6F72657220DE
:10E1000073746B3530305632206279204D4C530099
:10E11000426F6F746C6F616465723E004875683F52
:10E1200000436F6D70696C6564206F6E203D200048
:10E130004350552054797065202020203D20005FF9
:10E140005F4156525F415243485F5F3D2000415658
:10E1500052204C696243205665723D20004743437C
:10E160002056657273696F6E203D20004350552024
:10E1700049442020202020203D20004C6F7720663D
:10E18000757365202020203D20004869676820665F
:10E190007573652020203D200045787420667573D6
:10E1A00065202020203D20004C6F636B2066757336
:10E1B000652020203D20004D617220203720323024
:10E1C000313300312E362E3800342E332E350056A2
:10E1D00023202020414444522020206F7020636F70
:10E1E00064652020202020696E73747275637469E1
:10E1F0006F6E2061646472202020496E74657272B3
:10E20000757074006E6F20766563746F7200726A49
:10E210006D702020006A6D70200057686174207056
:10E220006F72743A00506F7274206E6F7420737541
:10E2300070706F72746564004D7573742062652030
:10E2400061206C6574746572002000577269747483
:10E25000696E672045450052656164696E672045B7
:10E26000450045452065727220636E743D00504F35
:10E27000525400303D5A65726F2061646472003FF1
:10E280003D43505520737461747300403D454550C3
:10E29000524F4D207465737400423D426C696E6B41
:10E2A000204C454400453D44756D70204545505215
:10E2B0004F4D00463D44756D7020464C415348001B
:10E2C000483D48656C70004C3D4C69737420492F83
:10E2D0004F20506F72747300513D51756974005234
:10E2E0003D44756D702052414D00563D73686F7707
:10E2F00020696E7465727275707420566563746FF0
:10E30000727300593D506F727420626C696E6B00BD
:10E310002A0011241FBECFEFD1E2DEBFCDBF01E046
:10E320000CBF12E0A0E0B2E0EEE1FDEF03E00BBFB6
:10E3300002C007900D92A030B107D9F712E0A0E01B
:10E34000B2E001C01D92AE30B107E1F70F9460F367
:10E350000D948DFE01E20EBF0FEF0DBF11241FBE05
:10E360000D9460F30D9400F020E030E040ED57E0B4
:10E3700005C0FA013197F1F72F5F3F4F2817390792
:10E38000C0F308959C01260F311DC901A0E0B0E043
:10E390002F5F3F4FABBFFC018791882361F08093D3
:10E3A000C6008091C00086FFFCCF8091C0008064D1
:10E3B0008093C000EACF08958DE08093C6008091DD
:10E3C000C00086FFFCCF8091C00080648093C000B5
:10E3D0008AE08093C6008091C00086FFFCCF8091C8
:10E3E000C00080648093C00008950F94C2F10F9420
:10E3F000DCF10895FC019081992359F09093C600B7
:10E400008091C00086FFFCCF8091C0008064809323
:10E41000C0003196992379F70895282F982F929567
:10E420009F70892F805D8A3308F0895F8093C600D2
:10E430008091C00086FFFCCF8091C00080648093F3
:10E44000C000822F8F70982F905D9A3308F0995FEB
:10E450009093C6008091C00086FFFCCF8091C000E1
:10E4600080648093C00008959C01FB01853691056E
:10E470001CF46330710594F0C90164E670E00F94F8
:10E480002EFE605D7F4F6093C6008091C00086FFC6
:10E49000FCCF8091C00080648093C0002B30310598
:10E4A00014F43297B4F0C90164E670E00F942EFEC4
:10E4B0006AE070E00F942EFE605D7F4F6093C600AF
:10E4C0008091C00086FFFCCF8091C0008064809363
:10E4D000C000C9016AE070E00F942EFEC0968093E0
:10E4E000C6008091C00086FFFCCF8091C000806490
:10E4F0008093C00008951F93182F8EE692EE60E07F
:10E500000F94C2F11093C6008091C00086FFFCCF2B
:10E510008091C00080648093C0000F94DCF11F9153
:10E5200008952F923F924F925F926F927F928F92B7
:10E530009F92AF92BF92CF92DF92EF92FF920F9392
:10E540001F93DF93CF93CDB7DEB762970FB6F894E2
:10E55000DEBF0FBECDBF382E622ECA01DB015C01CB
:10E560006D01772420E2222E2E010894411C511CBB
:10E570008BC081E0A81680E0B80681E0C80680E084
:10E58000D80628F0C601AA27BB270F940DF2BB2797
:10E59000AD2D9C2D8B2D0F940DF28A2D0F940DF225
:10E5A0002092C6008091C00086FFFCCF8091C00001
:10E5B00080648093C0009DE29093C6008091C0006B
:10E5C00086FFFCCF8091C00080648093C0002092C1
:10E5D000C6008091C00086FFFCCF8091C00080649F
:10E5E0008093C00019828601750188249924A1E0D6
:10E5F0003A1651F03A1620F0B2E03B1661F409C029
:10E600000BBFF701779007C0C7010F9477FE782EF4
:10E6100002C0F7017080872D0F940DF22092C60082
:10E620008091C00086FFFCCF8091C0008064809301
:10E63000C000872D8052F401EF70F0708F3520F408
:10E64000E40DF51D708204C0E40DF51D8EE280839B
:10E650000894E11CF11C011D111D0894811C911CE2
:10E6600090E18916910409F0C2CF80E190E0A0E02A
:10E67000B0E0A80EB91ECA1EDB1E198AC2010F9493
:10E68000FAF10F94DCF16A94662009F072CF629679
:10E690000FB6F894DEBF0FBECDBFCF91DF911F91B3
:10E6A0000F91FF90EF90DF90CF90BF90AF909F9031
:10E6B0008F907F906F905F904F903F902F90089534
:10E6C0002F923F924F925F926F927F928F929F9282
:10E6D000AF92BF92CF92DF92EF92FF920F931F9370
:10E6E000DF93CF93CDB7DEB7CD53D1400FB6F894BB
:10E6F000DEBF0FBECDBF01E20EBF0FEF0DBF94B75F
:10E70000F894A89514BE80916000886180936000A1
:10E7100010926000789493FF05C0E0910002F091A0
:10E7200001021995279A2F9A8091C00082608093E8
:10E73000C00080E18093C40088E18093C1000000A4
:10E74000EE24FF24870144E0A42EB12CCC24DD2448
:10E7500024C0C5010197F1F70894E11CF11C011DCB
:10E76000111D21E2E2162EE4F20620E0020720E06D
:10E77000120718F031E0C32ED12CC801B70127ECE5
:10E780003BE140E050E00F9441FE611571058105C9
:10E79000910519F485B1805885B98091C00087FD35
:10E7A00003C0C114D104A9F2A6014F5F5F4FC25E3E
:10E7B000DE4F59834883CE51D140C25EDE4F8881FF
:10E7C0009981CE51D140019711F00D9410FEC05D9A
:10E7D000DE4F19821882C053D14060E0C15DDE4F28
:10E7E0001882CF52D14088249924C35DDE4F19820C
:10E7F0001882CD52D140C05EDE4F188219821A8233
:10E800001B82C052D140CE5CDE4F188219821A8220
:10E810001B82C253D140EE24FF2487010BBFF701B6
:10E8200007911691C45CDE4F19830883CC53D14005
:10E830000D940BFEC25EDE4F28813981CE51D1404E
:10E840002130310509F52091C600C25EDE4F1982E4
:10E850001882CE51D14022C02F5F3F4F4F4F5F4FA4
:10E86000213082E138078AE7480780E0580780F0C6
:10E87000C45CDE4FE881F981CC53D140EF5FFF4F9C
:10E8800019F0EE27FF27099420E030E040E050E047
:10E890008091C00087FFE0CF2091C600C35DDE4FAE
:10E8A00048815981CD52D1404F5F5F4FC35DDE4FEC
:10E8B00059834883CD52D140213209F063C64A3092
:10E8C000510508F05FC60894811C911C53E0851621
:10E8D000910409F059C600E010E018C081E280936D
:10E8E000C6008091C00086FFFCCF8091C00080648C
:10E8F0008093C0002F5F3F4F2931310579F70F9486
:10E90000DCF10F5F1F4F0530110519F020E030E0FA
:10E91000E5CF10920A0210920B0210920C02109294
:10E920000D02109206021092070210920802109235
:10E930000902109202021092030210920402109235
:10E9400005028FEE90EE60E00F94F5F180E191EE1C
:10E9500060E00F94C2F18091C00087FFFCCF9091DE
:10E96000C600903608F09F759032B8F09093C600BC
:10E970008091C00086FFFCCF8091C00080648093AE
:10E98000C000A0E2A093C6008091C00086FFFCCF2B
:10E990008091C00080648093C000983409F4D7C18E
:10E9A0009934B8F4923409F459C1933458F490333B
:10E9B00019F1903308F4E3C59F33A1F1903409F0C5
:10E9C000DEC5BDC0953409F470C1963409F0D7C5D1
:10E9D00098C1923509F42BC2933538F49C3409F46C
:10E9E000F5C1913509F0CBC518C2963509F445C279
:10E9F000993509F0C4C567C483E792EE62E00F94CD
:10EA0000F5F110920602109207021092080210927D
:10EA1000090210920A0210920B0210920C0210923C
:10EA20000D0213C18FE792EE62E00F94F5F18FEEC5
:10EA300090EE60E00F94F5F181E291EE60E00F94CA
:10EA4000C2F187EB91EE60E00F94F5F180E391EE77
:10EA500060E00F94C2F184EE90EE60E00F94F5F167
:10EA60008FE391EE60E00F94C2F186E090E061E008
:10EA700070E00F9434F20F94DCF18DE591EE60E0DC
:10EA80000F94C2F189EC91EE60E00F94F5F18EE401
:10EA900091EE60E00F94C2F183EC91EE60E00F9490
:10EAA000F5F18CE691EE60E00F94C2F18EE10F94E7
:10EAB0000DF288E90F940DF281E00F940DF20F949E
:10EAC000DCF18BE791EE60E00F94C2F119E0E0E039
:10EAD000F0E010935700E4918E2F0F940DF20F94F5
:10EAE000DCF18AE891EE60E00F94C2F1E3E0F0E03F
:10EAF00010935700E4918E2F0F940DF20F94DCF1D8
:10EB000089E991EE60E00F94C2F1E2E0F0E0109349
:10EB10005700E4918E2F0F940DF20F94DCF188EAE8
:10EB200091EE60E00F94C2F1E1E0F0E01093570045
:10EB30001491812F0F940DF20F94DCF107CF8BE825
:10EB400092EE62E00F94F5F18BE492EE60E00F94A8
:10EB5000F5F10F94DCF100E010E019C0C8016F2D51
:10EB60000F947FFEFF2031F489E492EE60E00F9471
:10EB7000C2F10BC0F092C6008091C00086FFFCCFAE
:10EB80008091C00080648093C0000F5F1F4FC80158
:10EB900081519F41A0E0B0E0ABBFFC01F790BAE229
:10EBA000FB1621F0E2E000301E07C1F60F94DCF105
:10EBB0000F94DCF187E592EE60E00F94F5F10F948D
:10EBC000DCF1CC24DD2400E010E01EC0C8010F946D
:10EBD00077FEF82E882331F489E492EE60E00F94FA
:10EBE000C2F10BC08093C6008091C00086FFFCCFAD
:10EBF0008091C00080648093C000FE1419F00894D6
:10EC0000C11CD11C0F5F1F4FC80181519F41A0E063
:10EC1000B0E0ABBFFC01E790FAE2EF1621F022E092
:10EC20000030120799F60F94DCF10F94DCF182E6C4
:10EC300092EE60E00F94C2F1C60161E070E00F94C3
:10EC400034F20F94DCF10F94DCF110920202109276
:10EC50000302109204021092050278CE89E992EE26
:10EC600062E00F94F5F1279A2F9A16C02F9880E052
:10EC700090E0E0EDF7E03197F1F7019684369105E9
:10EC8000C1F72F9A80E090E0E0EDF7E03197F1F7DF
:10EC9000019684369105C1F78091C00087FFE6CFC9
:10ECA0008091C00087FFFCCF64C485EA92EE62E0E9
:10ECB0000F94F5F140910202509103026091040219
:10ECC0007091050281E020E10F9491F2809102029F
:10ECD00090910302A0910402B091050280509F4FD1
:10ECE000AF4FBF4F8093020290930302A0930402A0
:10ECF000B093050280509041A040B04008F426CE69
:10ED0000A4CF83EB92EE62E00F94F5F140910602FE
:10ED100050910702609108027091090280E020E1A1
:10ED20000F9491F28091060290910702A09108023F
:10ED3000B091090280509F4FAF4FBF4F80930602A2
:10ED400090930702A0930802B0930902FFCD80ECD4
:10ED500092EE62E00F94F5F183E792EE60E00F949B
:10ED6000F5F18FE792EE60E00F94F5F18BE892EE0B
:10ED700060E00F94F5F189E992EE60E00F94F5F10F
:10ED800085EA92EE60E00F94F5F183EB92EE60E09D
:10ED90000F94F5F180EC92EE60E00F94F5F187ECC2
:10EDA00092EE60E00F94F5F188ED92EE60E00F9442
:10EDB000F5F18FED92EE60E00F94F5F18AEE92EEB0
:10EDC00060E00F94F5F183E093EEBDCD87EC92EE19
:10EDD00062E00F94F5F181E40F947BF282E40F94EA
:10EDE0007BF283E40F947BF284E40F947BF285E45E
:10EDF0000F947BF286E40F947BF287E40F947BF20E
:10EE000088E40F947BF28AE40F947BF28BE40F94F6
:10EE10007BF28CE40F947BF299CD88ED92EE62E068
:10EE20000F94F5F1772473948824992409C48FED05
:10EE300092EE62E00F94F5F140910A0250910B02BC
:10EE400060910C0270910D0282E020E10F9491F22A
:10EE500080910A0290910B02A0910C02B0910D02D8
:10EE600080509F4FAF4FBF4F80930A0290930B0289
:10EE7000A0930C02B0930D0269CD8AEE92EE62E08F
:10EE80000F94F5F184EE90EE60E00F94F5F18FECC5
:10EE900091EE60E00F94F5F1662477244301CC5D98
:10EEA000DE4F19821882C452D140D401C301B695F5
:10EEB000A79597958795CA5DDE4F88839983AA8326
:10EEC000BB83C652D140CC5DDE4FA881B981C4520C
:10EED000D1401196CC5DDE4FB983A883C452D14096
:10EEE000CD0162E070E00F9434F2B0E2B093C6005E
:10EEF0008091C00086FFFCCF8091C0008064809329
:10EF0000C000EDE2E093C6008091C00086FFFCCF18
:10EF10008091C00080648093C000F0E2F093C6004E
:10EF20008091C00086FFFCCF8091C00080648093F8
:10EF3000C000CA5DDE4FE880F9800A811B81C6529D
:10EF4000D140BB27A12F902F8F2D0F940DF2CA5DBA
:10EF5000DE4F8881C652D1400F940DF2B0E2FB2EF5
:10EF6000F092C6008091C00086FFFCCF8091C00067
:10EF700080648093C0000DE30093C6008091C000C0
:10EF800086FFFCCF8091C00080648093C00010E2B7
:10EF90001093C6008091C00086FFFCCF8091C00016
:10EFA00080648093C0008BBEF3012791C65DDE4F65
:10EFB0002883CA52D140A22EBB24CC24DD2408943D
:10EFC000611C711C811C911C8BBEF3018791282E42
:10EFD0003324442455240894611C711C811C911C09
:10EFE0008BBEF3013791C55DDE4F3883CB52D140E4
:10EFF0000894611C711C811C911C8BBEF30147910C
:10F00000C45DDE4F4883CC52D140ADEFEA2EAFEF66
:10F01000FA2EAFEF0A2FAFEF1A2F6E0C7F1C801E57
:10F02000911E142D032DF22CEE24EA0CFB1C0C1D5A
:10F030001D1D0F940DF220E22093C6008091C000A8
:10F0400086FFFCCF8091C00080648093C000C65DC5
:10F05000DE4F8881CA52D1400F940DF230E23093D6
:10F06000C6008091C00086FFFCCF8091C000806404
:10F070008093C000C45DDE4F8881CC52D1400F9494
:10F080000DF240E24093C6008091C00086FFFCCFA5
:10F090008091C00080648093C000C55DDE4F888190
:10F0A000CB52D1400F940DF250E25093C6008091A4
:10F0B000C00086FFFCCF8091C00080648093C000B8
:10F0C0008FEFE8168FEFF80680E0080780E018075A
:10F0D00031F484E092EE60E00F94C2F1DFC0D80119
:10F0E000C7018070907CA070B0708050904CA040A0
:10F0F000B040D1F52FEF3FE340E050E0E222F322B1
:10F1000004231523CA5DDE4FA880B980CA80DB8046
:10F11000C652D140AE0CBF1CC01ED11EAA0CBB1CD7
:10F12000CC1CDD1C8EE092EE60E00F94C2F1BB2798
:10F13000A12F902F8F2D0F940DF28E2D0F940DF285
:10F1400030E23093C6008091C00086FFFCCF8091F2
:10F15000C00080648093C0004EE34093C60080915D
:10F16000C00086FFFCCF87C08EE09EEFA0E0B0E03D
:10F17000E822F9220A231B239CE0E91694E9F90608
:10F1800090E0090790E0190709F088C0C45DDE4FE0
:10F19000A881CC52D140EA2EFF2400E010E0102FCD
:10F1A0000F2DFE2CEE24C55DDE4FB881CB52D14031
:10F1B000EB0EF11C011D111DD601C501817090706F
:10F1C000A070B070DC0199278827E80EF91E0A1F8D
:10F1D0001B1F20EF30E040E050E0A222B322C42207
:10F1E000D52241E1AA0CBB1CCC1CDD1C4A95D1F7F1
:10F1F000EA0CFB1C0C1D1D1D81E090E0A0E0B0E0BE
:10F20000282239224A225B2235E1220C331C441C7D
:10F21000551C3A95D1F7E20CF31C041D151D57013E
:10F220006801AA0CBB1CCC1CDD1C85E192EE60E0E1
:10F230000F94C2F1C801AA27BB270F940DF2BB2778
:10F24000A12F902F8F2D0F940DF28E2D0F940DF274
:10F2500090E29093C6008091C00086FFFCCF809121
:10F26000C00080648093C000AEE3A093C60080918C
:10F27000C00086FFFCCF8091C00080648093C000F6
:10F28000C601AA27BB270F940DF2BB27AD2D9C2DDD
:10F290008B2D0F940DF28A2D0F940DF20F94DCF14B
:10F2A000CC5DDE4FE881F981C452D140F99709F471
:10F2B0004DCBF4E0EF2EF12C012D112D6E0C7F1CA7
:10F2C000801E911EF2CD83E093EE62E00F94F5F183
:10F2D0008AE192EE60E00F94C2F18091C00087FF56
:10F2E000FCCF1091C6001F751093C6008091C0001E
:10F2F00086FFFCCF8091C00080648093C0000F9493
:10F30000DCF1812F81548A3108F036C1163409F4BA
:10F3100095C0173490F4133409F44EC0143430F40B
:10F320001134F1F0123409F01DC130C0143409F465
:10F3300059C0153409F016C16BC01A3409F4C4C0A1
:10F340001B3438F4173409F48FC0183409F00AC19B
:10F35000A1C01B3409F4D2C01C3409F003C1E8C0B9
:10F360008FEF81B90DC082B1809582B980E090E0C5
:10F37000E0EDF7E03197F1F70196883C9105C1F790
:10F380008091C00087FFEFCF12B8EFC08FEF84B934
:10F390000DC085B1809585B980E090E0E0EDF7E0A3
:10F3A0003197F1F70196883C9105C1F78091C00033
:10F3B00087FFEFCF15B8D9C08FEF87B90DC088B1DF
:10F3C000809588B980E090E0E0EDF7E03197F1F7C3
:10F3D0000196883C9105C1F78091C00087FFEFCF6F
:10F3E00018B8C3C08FEF8AB90DC08BB180958BB9A7
:10F3F00080E090E0E0EDF7E03197F1F70196883C8E
:10F400009105C1F78091C00087FFEFCF1BB8ADC059
:10F410008FEF8DB90DC08EB180958EB980E090E0F0
:10F42000E0EDF7E03197F1F70196883C9105C1F7DF
:10F430008091C00087FFEFCF1EB897C08FEF80BBD1
:10F440000DC081B3809581BB80E090E0E0EDF7E0F6
:10F450003197F1F70196883C9105C1F78091C00082
:10F4600087FFEFCF11BA81C08FEF83BB0DC084B38C
:10F47000809584BB80E090E0E0EDF7E03197F1F714
:10F480000196883C9105C1F78091C00087FFEFCFBE
:10F4900014BA6BC08FEF809301010FC080910201FD
:10F4A00080958093020180E090E0E0EDF7E03197F5
:10F4B000F1F70196883C9105C1F78091C00087FF64
:10F4C000EDCF1092020151C08FEF809304010FC065
:10F4D0008091050180958093050180E090E0E0ED4A
:10F4E000F7E03197F1F70196883C9105C1F78091DB
:10F4F000C00087FFEDCF1092050137C08FEF8093DA
:10F5000007010FC08091080180958093080180E079
:10F5100090E0E0EDF7E03197F1F70196883C910536
:10F52000C1F78091C00087FFEDCF109208011DC088
:10F530008FEF80930A010FC080910B01809580931B
:10F540000B0180E090E0E0EDF7E03197F1F70196F4
:10F55000883C9105C1F78091C00087FFEDCF1092E4
:10F560000B0103C085E292EEEEC98091C00087FFD7
:10F57000FCCF8091C600EAC988E392EEE4C98CE131
:10F5800091EEE1C988249924933011F1943028F444
:10F59000913089F09230B8F408C0953061F195301F
:10F5A000F0F0963009F048C043C02B3109F042C951
:10F5B00091E06BE13FC96227C15DDE4F2883CF52E6
:10F5C000D14092E037C9B22FA0E0622793E032C960
:10F5D000822F90E0A82BB92B622794E02BC92E3004
:10F5E00009F039C3622795E0C05DDE4F19821882A9
:10F5F000C053D1401FC9E1E0F0E0EC0FFD1FC05D3A
:10F60000DE4F08811981C053D140E00FF11F2083E4
:10F610000F5F1F4FC05DDE4F19830883C053D14079
:10F6200062270A171B0709F005C9D80196E002C92D
:10F63000261709F010C303C0973009F0FBC87724E0
:10F640009981933109F412C19431C8F4963009F4C8
:10F65000D8C0973050F4923009F406C1933009F4C1
:10F660006DC0913009F059C253C0913109F477C08F
:10F67000923108F0BBC0903109F04FC2F5C098310B
:10F6800009F487C0993150F4953109F4EFC09531F0
:10F6900008F4C6C1963109F040C2C2C19A3109F4DA
:10F6A0006CC09A3108F491C09B3109F45BC09D3164
:10F6B00009F033C29D81903359F48F81882311F46E
:10F6C0009EE11CC0813011F091E018C098E916C08D
:10F6D000892F807591F0903539F4E0E0F0E089E011
:10F6E0008093570094910AC0983539F4E3E0F0E034
:10F6F00089E080935700949101C090E01A821B82A8
:10F700008D818C831D829E831F8227E030E009C299
:10F710001A8288E08B8381E48C8386E58D8382E581
:10F720008E8389E48F8383E5888780E589878FE5E9
:10F730008A8782E38B872BE030E0F3C18A818139AD
:10F7400041F0823941F0803911F48FE005C080E04A
:10F7500003C082E001C08AE01A828B8344C0772410
:10F76000739482C08D81882311F48EE12CC0813086
:10F7700011F081E028C088E926C01A82E1E0F0E0BB
:10F7800089E08093570084918B831C8224E030E0D1
:10F79000C8C18B81803589F48C81883039F4E2E0EE
:10F7A000F0E089E08093570084910DC0E0E0F0E044
:10F7B00089E080935700849106C0E3E0F0E089E09F
:10F7C0008093570084911A82DFCF8D81836C99E0FA
:10F7D000E1E0F0E0082E90935700E89507B600FCB2
:10F7E000FDCF1A821B8223E030E09BC180EC8A832C
:10F7F000CE5CDE4F188219821A821B82C253D1401E
:10F800008EC18A8190E0A0E0B0E0582F44273327D2
:10F8100022278B8190E0A0E0B0E0DC0199278827C7
:10F82000282B392B4A2B5B2B8D8190E0A0E0B0E098
:10F83000282B392B4A2B5B2B8C8190E0A0E0B0E089
:10F84000BA2FA92F982F8827282B392B4A2B5B2BCF
:10F85000220F331F441F551FC05EDE4F288339839C
:10F860004A835B83C052D1401A8259C13A81C95C34
:10F87000DE4F3883C753D140CA5CDE4F1882C6536F
:10F88000D1408B81C82EDD24CA5CDE4F488159816E
:10F89000C653D140C42AD52A933109F082C0CE5C28
:10F8A000DE4F88819981AA81BB81C253D1408050AB
:10F8B000904CA340B04030F583E0CE5CDE4FE88052
:10F8C000F9800A811B81C253D140F70100935B008C
:10F8D00080935700E89507B600FCFDCFCE5CDE4F65
:10F8E000088119812A813B81C253D14000501F4FAA
:10F8F0002F4F3F4FCE5CDE4F088319832A833B8313
:10F90000C253D140C05EDE4F488159816A817B81FC
:10F91000C052D140DE011B9631E08C9111962C91A2
:10F9200011971296C75CDE4F2883C953D140C85C3B
:10F93000DE4F1882C853D14090E0C85CDE4FE881AA
:10F94000F981C853D1408E2B9F2B0C01FA01609393
:10F950005B0030935700E89511244E5F5F4F6F4F67
:10F960007F4F0EEFE02E0FEFF02ECE0CDF1CC114F8
:10F97000D10499F685E0C05EDE4F088119812A81A5
:10F980003B81C052D140F80120935B008093570027
:10F99000E89507B600FCFDCF81E180935700E8951C
:10F9A00035C0C05EDE4F88819981AA81BB81C0527B
:10F9B000D140B695A795979587957C018601ABE0D8
:10F9C000AA2EB12CAC0EBD1E0BC0D5016D915D01F0
:10F9D000C7010F947FFE0894E11CF11C01501040F8
:10F9E0000115110591F7A60160E070E0440F551F65
:10F9F000661F771FC05EDE4FE880F9800A811B8199
:10FA0000C052D1404E0D5F1D601F711F1A82C05E33
:10FA1000DE4F488359836A837B83C052D1407FC0C5
:10FA2000FA80C55CDE4FF882CB53D140C65CDE4F16
:10FA30001882CA53D1408B81C82EDD24C65CDE4FAC
:10FA400008811981CA53D140C02AD12A1A828981DA
:10FA5000BE016D5F7F4F843121F59601C05EDE4FA0
:10FA6000E880F9800A811B81C052D1400BBFF701A9
:10FA700087919691DB018C9311969C936E5F7F4FDB
:10FA8000D801C7010296A11DB11DC05EDE4F88835B
:10FA90009983AA83BB83C052D14022503040F1F6F3
:10FAA00036C0C05EDE4F288139814A815B81C052F9
:10FAB000D1400894C108D108760100E010E0089414
:10FAC000C11CD11C0894E11CF11C011D111DE20E8A
:10FAD000F31E041F151F21BDBB27A52F942F832FB5
:10FAE00082BD2F5F3F4F4F4F5F4FF89A80B5DB01CC
:10FAF0008D93BD012E153F054007510761F7C05E8C
:10FB0000DE4F288339834A835B83C052D1409601FC
:10FB10002D5F3F4FFB01108204C080EC8A8322E0FE
:10FB200030E08BE18093C6008091C00086FFFCCF5F
:10FB30008091C00080648093C000C15DDE4FF88179
:10FB4000CF52D140F093C6008091C00086FFFCCF19
:10FB50008091C00080648093C000432F3093C60022
:10FB60008091C00086FFFCCF8091C00080648093AC
:10FB7000C000922F2093C6008091C00086FFFCCF6A
:10FB80008091C00080648093C0008EE08093C600A6
:10FB90008091C00086FFFCCF8091C000806480937C
:10FBA000C00065E1C15DDE4FE880CF52D1406E25D7
:10FBB00069276427FE01319610C090819093C6009A
:10FBC0008091C00086FFFCCF31968091C000806498
:10FBD0008093C0006927215030402115310569F715
:10FBE0006093C6008091C00086FFFCCF8091C0006A
:10FBF00080648093C00085B1805885B9772081F4F6
:10FC0000C15DDE4F0881CF52D1400F5FC15DDE4F35
:10FC10000883CF52D14090E0A0E0B0E00D941AF4F8
:10FC200027982F9880E090E020ED37E0F901319798
:10FC3000F1F7019684369105C9F700008091C00064
:10FC40008D7F8093C00081E180935700E895EE2777
:10FC5000FF270994FFCF90E00D941AF497FB092E2B
:10FC600007260AD077FD04D02ED006D000201AF443
:10FC7000709561957F4F0895F6F7909581959F4F08
:10FC80000895A1E21A2EAA1BBB1BFD010DC0AA1FDD
:10FC9000BB1FEE1FFF1FA217B307E407F50720F0F5
:10FCA000A21BB30BE40BF50B661F771F881F991F70
:10FCB0001A9469F760957095809590959B01AC01B9
:10FCC000BD01CF010895AA1BBB1B51E107C0AA1FAC
:10FCD000BB1FA617B70710F0A61BB70B881F991FED
:10FCE0005A95A9F780959095BC01CD010895F99991
:10FCF000FECF92BD81BDF89A992780B50895262F31
:10FD0000F999FECF1FBA92BD81BD20BD0FB6F89400
:0EFD1000FA9AF99A0FBE01960895F894FFCF63
:00000001FF
