:020000040040BA
:1000000000040020C1004000C9004000CB004000B7
:10001000CD004000CF004000D100400000000000B3
:10002000000000000000000000000000D3004000BD
:10003000D500400000000000D7004000D90040007B
:10004000DB004000DB004000DB004000DB00400044
:10005000DB004000DB004000DB004000000000004F
:10006000DB004000DB00400000000000DB0040003F
:10007000DB004000DB004000DB004000DB00400014
:10008000000000000000000000000000DB00400055
:10009000DB004000DB00400000000000DB0040000F
:1000A000DB004000DB004000DB004000DB004000E4
:1000B000DB004000DB004000DB004000DB004000D4
:1000C0000948804709480047FEE7FEE7FEE7FEE7EC
:1000D000FEE7FEE7FEE7FEE7FEE7FEE70448054928
:1000E000054A064B70470000090140008D014000A1
:1000F0000000002000040020000200200002002078
:10010000704770477047000040F26840C4F20E002C
:100110004FF4007244F20031C0F8982540F2011209
:10012000C5F24D01C0F23712C16740F8482C00BF3C
:100130000268D207FCD048F20162C2F20F0240F816
:10014000402C00BF02689207FCD550F8382C0223DF
:1001500063F3061240F8382C02681207FCD52222FD
:1001600040F8382C02681207FCD5002240F8682CB1
:100170004FF4E052013140F8582CC16741F254402D
:10018000C4F20E004FF400410160704700F047F8E0
:100190004FF008042E4E3568AC4208D0FFF7F8FF48
:1001A0004FF010042A4E3568AC42F1D0704700F091
:1001B0003DF800F043F84FF0010400F03CF800F087
:1001C0003DF800F033F84FF0020400F034F800F08E
:1001D00035F84FF0030400F02EF800F02FF800F08F
:1001E00025F84FF0040400F026F800F027F84FF04F
:1001F000050400F020F800F021F800F017F84FF0A7
:10020000060400F018F800F019F84FF0070400F0A9
:1002100012F800F013F8FFF7C3FFFFF7C8FF4FF025
:1002200007040C4D2C600C4D2C6070474FF00704F8
:100230000A4D2C6070470A4D2C6070474FF0000447
:100240004AF20A0504F10104AC42FBD170470000F8
:100250004C0E0E40000E0E40100E0E40300E0E40A2
:04026000340E0E400A
:040000050040018D29
:00000001FF
