:020000040000FA
:100000000C9444010C948D0A0C94620A0C94370AE7
:100010000C940C0A0C94E1090C94B6090C948B090D
:100020000C9460090C9475010C9475010C94750185
:100030000C9475010C9475010C9475010C94750168
:100040000C9475010C94420B0C9475010C94750181
:100050000C9475010C9475010C9475010C9416099F
:100060000C9475010C9475010C9475010C94750138
:100070000C9475010C9475010C9475010C94750128
:100080000C94140B0C9475010C9475010C9475016F
:100090000C9475010C9475010C9475010C94750108
:1000A0000C9475010C9475010C94E60A0C9475017E
:1000B0000C9475010C9475010C9475010C94B80A9C
:1000C0000C9475010C9475010C9475010C947501D8
:1000D0000C9475010C9475010C9475010C947501C8
:1000E0000C9475010C9499020C948B020C9491025F
:1000F0000C949F020C9401030C9487020C9401044D
:100100000C9471080C943D080C9441030C947708EE
:100110000C9400040C941C0E0C9464080C9495022E
:100120000C949E020C9470020C946C020C940A02C3
:100130000C9457080C9473020C9468020C9483027C
:100140000C94D0020C9445030C944A080C945E0263
:100150000C94B30E0C94A3020C947D020C946402D4
:100160000C94790200002100240027002A002D00B1
:100170003000330001010000040107010A01000002
:100180002200250028002B002E003100340002013F
:100190000000050108010B010000200023002600DB
:1001A00029002C002F00320000010000030106018D
:1001B00009010505050507050808080802020202ED
:1001C0000A0A0808040404040101010101010101F3
:1001D0000303030303030303040707070C0C0C0CBE
:1001E0000C0C0C0C020202020606060606060606A7
:1001F0000B0B0B0B0B0B0B0B010210202008081034
:100200002040102040800201020108040201010286
:10021000040810204080804020100804020180045F
:1002200002018040201008040201080402010102BA
:1002300004081020408001020408102040800000C3
:100240000A0B02090C0D0E08070304010000000050
:10025000000000000000000000000000000000009E
:10026000000000000000000000001211100000005B
:10027000000000000000000000000000000000007E
:10028000000000001C0EB30E11241FBECFEFD1E200
:10029000DEBFCDBF00E00CBF12E0A0E0B2E0EAE0BC
:1002A000F8E200E00BBF02C007900D92A039B10741
:1002B000D9F723E0A0E9B2E001C01D92A83CB20743
:1002C000E1F711E0C3E4D1E000E006C021970109A5
:1002D000802FFE010E94D511C234D10780E00807AB
:1002E000A9F70E94700B0C94F3130C94000096E095
:1002F000899FD0011124A35CBC4F90967C936E9390
:100300005F9791E091969C939197E091AA03F09169
:10031000AB039091A903992339F0309751F08111E3
:1003200008C0809159031994309719F05C968C910C
:10033000FACF0895CF92DF92EF92FF920F931F931F
:1003400096E0899FF0011124E35CFC4F11A2278DF8
:1003500030A12130310551F178F02230310509F416
:1003600051C02330310509F452C01F910F91FF9005
:10037000EF90DF90CF9008956623B9F361E070E0CD
:100380000E9477012FB7F8948091390390913A0336
:10039000A0913B03B0913C032FBF809395039093B2
:1003A0009603A0939703B0939803DFCF9FB7F89479
:1003B000C0903903D0903A03E0903B03F0903C03A7
:1003C0009FBF009195031091960320919703309160
:1003D0009803C01AD10AE20AF30A0091A703109108
:1003E000A80330E020E00C151D052E053F0550F454
:1003F00062E070E01F910F91FF90EF90DF90CF903F
:100400000C9477016111B1CF63E070E0F3CF70E03D
:1004100060E0F0CFAF92BF92CF92DF92EF92FF9267
:100420000F931F93CF93DF936C017B018B01040F1C
:10043000151FEB015E01AE18BF08C017D10759F0B8
:100440006991D601ED91FC910190F081E02DC601FA
:100450001995892B79F7C501DF91CF911F910F91E4
:10046000FF90EF90DF90CF90BF90AF900895FC0188
:1004700044815581608171818CEA93E00C940A0279
:100480008150823108F05AC0E82FF0E08827E45B01
:10049000FD4F8F4F0C94D5116C0270025E02640206
:1004A00068029E02730279027D02830287028B0238
:1004B000910295029E0299029F02A3028091800000
:1004C0008F77809380000895809180008F7DF9CF91
:1004D00080918000877FF5CF84B58F7784BD0895A4
:1004E00084B58F7DFBCF8091B0008F778093B00073
:1004F00008958091B0008F7DF9CF809190008F7723
:10050000809390000895809190008F7DF9CF809125
:100510009000877FF5CF8091A0008F778093A00017
:1005200008958091A0008F7DF9CF8091A000877FF2
:10053000F5CF809120018F778093200108958091DD
:1005400020018F7DF9CF80912001877FF5CFCF9358
:10055000DF93282F30E0F901E25CFD4F8491F9012F
:10056000E850FE4FD491F901EE54FE4FC491CC23D4
:10057000A1F081110E944002EC2FF0E0EE0FFF1F6E
:10058000E856FE4FA591B491EC91ED2381E090E007
:1005900009F480E0DF91CF91089580E090E0FACFF8
:1005A000862F0C94A7021F93CF93DF93282F30E060
:1005B000F901E25CFD4F8491F901E850FE4FD491BE
:1005C000F901EE54FE4FC491CC23A9F0162F8111EE
:1005D0000E944002EC2FF0E0EE0FFF1FE258FE4FAA
:1005E000A591B4918FB7F894EC91111108C0D095F2
:1005F000DE23DC938FBFDF91CF911F910895DE2B17
:10060000F8CF862F642F0C94D302CF93DF9390E022
:10061000FC01E850FE4F24918E549E4FFC018491C2
:100620008823C9F090E0880F991FFC01EC59FE4F18
:10063000A591B491FC01E258FE4FC591D49161118E
:100640000DC09FB7F8948C91209582238C9388815C
:10065000282328839FBFDF91CF910895623051F402
:100660009FB7F8943C91822F809583238C93E881E7
:100670002E2BEFCF8FB7F894EC912E2B2C938FBFAE
:10068000EACF862F642F0C9405030895AF92BF9292
:10069000CF92DF92EF92FF920F931F93CF93DF934E
:1006A0006B017A01EC01C756DD4F28813CE0389F91
:1006B0008001399F100D1124A0909802B12C27FFC2
:1006C0001FC0FB011182108288818F5F888388811F
:1006D0009801280F311D87FD3A95F6012A153B0533
:1006E0001CF488818C30C4F180819181049680341F
:1006F0009C4908F473C0F60180819181049670C012
:1007000088819801280F311D87FD3A952A153B05F0
:10071000DCF68881A801480F511D87FD5A95FA0122
:10072000EE0FFF1FE40FF51FEE55FD4F808186FF92
:10073000CBCF8881F801E80FF11D87FDFA95CF0135
:10074000EE0FFF1FE80FF91FEE55FD4F808160E0AF
:100750008F730E94D302B8CF808191812881A80134
:10076000420F511D27FD5A959A01FA01EE0FFF1F06
:10077000E20FF31FEE55FD4F21813281820F931F4F
:10078000F7019183808388819801280F311D87FDAF
:100790003A95F901EE0FFF1FE20FF31FEE55FD4FE3
:1007A000808186FF22C08881080F111D87FD1A9560
:1007B000F801EE0FFF1FE00FF11FEE55FD4F808196
:1007C00061E08F73DF91CF911F910F91FF90EF90B8
:1007D000DF90CF90BF90AF900C94D30280E49CE95F
:1007E000F701918380838FEF8883DF91CF911F91F1
:1007F0000F91FF90EF90DF90CF90BF90AF90089552
:10080000089590E080E00895CF92DF92EF92FF92FA
:10081000CF93DF93BC01990F880B990B0E942F0F88
:1008200020E030E040E251E40E941C116B017C01A9
:1008300020E030E0A9010E94C41120E030E040E057
:100840005FE387FDCFC0C701B6010E94B0100E94D0
:100850008E110E942F0F6B017C0120E030E040E8F8
:100860005FEB0E94280F87FDC2C020E030E040E827
:1008700050E4C701B6010E94C411181634F4C12C0B
:10088000D12CC0E8EC2EC0E4FC2E20E030E040E2A9
:1008900051E4C701B6010E948E0F6B017C0120E07C
:1008A00030E0A9010E94C41120E030E040E05FE3A5
:1008B00087FDA4C0C701B6010E94B0100E948E112E
:1008C000EB019B01770F440B550B265F3F4F4F4FBA
:1008D0005F4FA4EBB0E00E946B1022E330E040E0F9
:1008E00050E00E944C10C901203242E034070CF065
:1008F0003DC020913703E8E8CE2ED12CC21AD10892
:1009000027FDD394CC0CDD1CCC0CDD1C0D2C000C75
:10091000EE08FF082091380348E552E0421B5109D8
:1009200027FD5395440F551F440F551F052E000CEE
:10093000660B770B9A01AB012C193D094E095F0933
:10094000DC01853B910514F0A4EBB0E0B7FF02C0D9
:10095000B0E0A0E00E94761024EB30E040E050E0F0
:100960000E944C102C0D3D1D4E1D5F1DE091360365
:10097000E03380F54091370388E890E0841B9109CB
:1009800047FD9395880F991F880F991F28173907DE
:1009900084F04091380388E592E0841B910947FD7B
:1009A0009395880F991F880F991F281739070CF402
:1009B000C9010297880F991F4FB7F8942E2F30E086
:1009C000F901EE0FFF1FE20FF31FEE55FD4F92836B
:1009D00081834FBFCE01DF91CF91FF90EF90DF90E9
:1009E000CF900895C701B6010E94AF1030CFC12C3F
:1009F000D12CB0E8EB2EBFEBFB2E47CFC701B601E1
:100A00000E94AF105BCFCF93DF9397FF02C090E0BF
:100A100080E0EC01809714F0CFE1D0E06C2F6170A2
:100A200083E00E94D302BE0175956795617084E0F2
:100A30000E94D302BE0175956795759567956170A3
:100A400085E00E94D302BE0123E0759567952A9543
:100A5000E1F7617086E00E94D302BE0134E0759533
:100A600067953A95E1F787E00E94D302CE01DF91C6
:100A7000CF910895FC0101900020E9F73197AF0173
:100A8000481B590BBC018CEA93E00C940A020F93AB
:100A90001F93CF93DF93EC0188819981009759F0E0
:100AA0002A813B812617370730F081E0DF91CF9113
:100AB0001F910F9108958B016F5F7F4F0E9402136A
:100AC000009759F0998388831B830A832C813D8189
:100AD000232B59F7FC011082E8CF80E0E7CFCF93BA
:100AE000DF93EC0188819981009711F00E947912BF
:100AF000198218821D821C821B821A82DF91CF917B
:100B00000895EF92FF920F931F93CF93DF93EC0121
:100B10007B01198218821B821A821D821C82FB01B2
:100B200001900020E9F731978F01061B170BB801E0
:100B30000E944705811109C0CE01DF91CF911F911D
:100B40000F91FF90EF900C946F051D830C83B701FC
:100B500088819981DF91CF911F910F91FF90EF9044
:100B60000C94EC13EF92FF920F931F93CF93DF93AC
:100B70008C017B01EB0109900020E9F72197C61B4E
:100B8000D70BBE010E944705811109C0C801DF9142
:100B9000CF911F910F91FF90EF900C946F05F8018A
:100BA000D583C483B70180819181DF91CF911F915B
:100BB0000F91FF90EF900C94EC130F931F93CF9332
:100BC000DF93CDB7DEB762970FB6F894DEBF0FBEE6
:100BD000CDBF8C01CB01F8011182108213821282E9
:100BE000158214824AE0BE016F5F7F4F0E94DE0EC5
:100BF000BE016F5F7F4FC8010E94B20562960FB6BB
:100C0000F894DEBF0FBECDBFDF91CF911F910F9142
:100C10000895EF92FF920F931F93CF93DF93EC0110
:100C2000FB01E080F180E114F10411F104811581F0
:100C300001151105A9F08C819D81080F191FB801BC
:100C4000CE010E944705882399F0288139818C8143
:100C50009D81B701820F931F0E94EC131D830C83AB
:100C6000CE01DF91CF911F910F91FF90EF900895EA
:100C7000CE010E946F05F4CFFC0180819181009725
:100C800011F00C9479120895CF93DF93EC0160E09A
:100C90008E810E94D30261E08E810E94D30260E0C7
:100CA0008E810E94D3028BE891E00197F1F7DF91EA
:100CB000CF910895CF92DF92EF92FF920F931F93FF
:100CC000CF93DF936C017C0187E0E80EF11CD0E04C
:100CD000C0E0062F10E0B8010C2E02C07595679594
:100CE0000A94E2F76170F70181917F010E94D302BB
:100CF0002196C430D10579F7C601DF91CF911F91BC
:100D00000F91FF90EF90DF90CF900C944406CF921C
:100D1000DF92EF92FF920F931F93CF93DF93EC013B
:100D2000F62E642F8C810E94D3028D818F3F19F0A3
:100D300060E00E94D3020F2D10E08F8584FF25C054
:100D40006E0187E0C80ED11CF12CE12CB8010E2CED
:100D500002C0759567950A94E2F76170F60181917A
:100D60006F010E94D302FFEFEF1AFF0A88E0E81636
:100D7000F10461F7CE01DF91CF911F910F91FF90A8
:100D8000EF90DF90CF900C944406B80184E0759505
:100D900067958A95E1F7CE010E945A066F2DCE0124
:100DA000DF91CF911F910F91FF90EF90DF90CF9047
:100DB0000C945A0640E0682F8CEA93E00C94870666
:100DC00081E00E94DA068BE39FE10197F1F7089535
:100DD000CF93DF93823029F49091BB039860909376
:100DE000BB038093BF031092C00380E48093C103D0
:100DF00080E18093C20380E58093C30361E080912A
:100E0000B0030E9405038091B1038F3F19F061E0A8
:100E10000E94050361E08091B2030E940503CCEAC1
:100E2000D3E09E012C5A33408091BB0384FD0BC05C
:100E300084E090E021962817390744F461E08E8120
:100E40000E940503EECF88E090E0F4CF8BE39DE0B5
:100E50000197F1F760E08091B0030E94D30260E057
:100E60008091B2030E94D3028091B1038F3F19F0A9
:100E700060E00E94D3028091BB0384FD34C063E034
:100E80008CEA93E00E945A06CBE4D6E4CE010197A7
:100E9000F1F763E08CEA93E00E945A062197F1F79C
:100EA00063E08CEA93E00E945A0683E592E00197A2
:100EB000F1F762E08CEA93E00E945A068091BB034E
:100EC00080620E94DA0684E08093BC038CE00E947A
:100ED000DA060E94E00682E08093BD0386E0DF919F
:100EE000CF910C94DA0680620E94DA068BE496E4D5
:100EF0000197F1F78091BB0380620E94DA0683E5D7
:100F000092E00197F1F78091BB0380620E94DA06BC
:100F1000D5CF9091BF03691710F06FEF690FE62FDF
:100F2000F0E0E455FC4F9489890F80680C94DA0650
:100F3000CF93DF93CDB7DEB72C970FB6F894DEBF13
:100F40000FBECDBF8091900290919102009709F061
:100F50005DC00E94E0066091340370913503CE01BC
:100F600007960E94DD0564E472E0CE0101960E94BE
:100F70008105BE01695F7F4FCE0101960E9409067F
:100F80000E943702CE0101960E943C06CE010796D0
:100F90000E943C0660E08BE00E9489078CE492E0AE
:100FA0000E943A0561E080E00E9489076091320367
:100FB00070913303CE0107960E94DD0562E572E071
:100FC000CE0101960E948105BE01695F7F4FCE016F
:100FD00001960E9409060E943702CE0101960E94E6
:100FE0003C06CE0107960E943C0661E08BE00E9421
:100FF00089078AE592E00E943A052C960FB6F8948C
:10100000DEBF0FBECDBFDF91CF9108958130910536
:10101000C9F40E94E00660E080E00E94890780E653
:1010200092E00E943A0561E080E00E94890782E92F
:1010300092E00E94370261E087E00E9489078DE616
:1010400092E0D9CF0297C9F60E94E00660E080E006
:101050000E94890787E792E00E943A0561E080E0FC
:101060000E94890782E992E00E94370261E085E0F0
:101070000E94890784E892E0BECF8091340390916A
:10108000350301960E940305909335038093340342
:101090000C949807809134039091350301970E9436
:1010A000030590933503809334030C949807809143
:1010B0003203909133030A960E9404049093330301
:1010C000809332030C9498078091320390913303FC
:1010D0000A970E94040490933303809332030C9484
:1010E000980741E00E94870681E090E00895EF9222
:1010F000FF921F93CF93DF931F921F92CDB7DEB75E
:1011000020915C0330915D032130310509F086C0E8
:10111000182FE0909002F0909102E114F10409F48C
:1011200044C0833479F46BE472E082E992E00E9477
:10113000B2050F900F90DF91CF911F91FF90EF902C
:101140000C94980780ED810F8A3040F01D32D1F564
:101150008091960290919702892B59F7E090960220
:10116000F090970223E0E216F104F8F419831A8252
:101170008FEFE81AF80AB70182E992E00E9447056A
:10118000882399F0209192023091930280919602E7
:1011900090919702BE016F5F7F4F820F931F0E9455
:1011A000EC13F0929702E092960281E090E01A32FE
:1011B00021F01B3281F582E090E0909391028093C0
:1011C0009002B1CF1D3389F78091920290919302E2
:1011D000009791F00E94B70ECB0121E0E216F104D6
:1011E00079F40E94030590933503809334031092A1
:1011F0009102109290029DCF80E090E0DC01EDCF53
:1012000022E0E216F10499F70E940404909333035C
:1012100080933203ECCF1F3251F38BCF0F900F909E
:10122000DF91CF911F91FF90EF9008951F920F9241
:101230000FB60F9211242F933F938F939F93AF93E9
:10124000BF938091390390913A03A0913B03B091F1
:101250003C033091A10223E0230F2D3758F501966E
:10126000A11DB11D2093A1028093390390933A03ED
:10127000A0933B03B0933C0380919D0290919E020A
:10128000A0919F02B091A0020196A11DB11D809373
:101290009D0290939E02A0939F02B093A002BF91E3
:1012A000AF919F918F913F912F910F900FBE0F9013
:1012B0001F90189526E8230F0296A11DB11DD2CFCD
:1012C0001F920F920FB60F9211240BB60F922F930D
:1012D0003F934F935F936F937F938F939F93AF93BE
:1012E000BF93EF93FF93E0912602F09127021995A7
:1012F000FF91EF91BF91AF919F918F917F916F91EE
:101300005F914F913F912F910F900BBE0F900FBEA9
:101310000F901F9018951F920F920FB60F921124E5
:101320000BB60F922F933F934F935F936F937F93DF
:101330008F939F93AF93BF93EF93FF93E09124021A
:10134000F09125021995FF91EF91BF91AF919F9177
:101350008F917F916F915F914F913F912F910F905E
:101360000BBE0F900FBE0F901F9018951F920F92FB
:101370000FB60F9211240BB60F922F933F934F93FA
:101380005F936F937F938F939F93AF93BF93EF93ED
:10139000FF93E0911A02F0911B021995FF91EF91D2
:1013A000BF91AF919F918F917F916F915F914F917D
:1013B0003F912F910F900BBE0F900FBE0F901F907B
:1013C00018951F920F920FB60F9211240BB60F9221
:1013D0002F933F934F935F936F937F938F939F933D
:1013E000AF93BF93EF93FF93E0911802F09119022E
:1013F0001995FF91EF91BF91AF919F918F917F913F
:101400006F915F914F913F912F910F900BBE0F9075
:101410000FBE0F901F9018951F920F920FB60F924C
:1014200011240BB60F922F933F934F935F936F93BB
:101430007F938F939F93AF93BF93EF93FF93E0912D
:101440002202F09123021995FF91EF91BF91AF9184
:101450009F918F917F916F915F914F913F912F91CC
:101460000F900BBE0F900FBE0F901F9018951F92FC
:101470000F920FB60F9211240BB60F922F933F933A
:101480004F935F936F937F938F939F93AF93BF938C
:10149000EF93FF93E0912002F09121021995FF91C3
:1014A000EF91BF91AF919F918F917F916F915F91DC
:1014B0004F913F912F910F900BBE0F900FBE0F9049
:1014C0001F9018951F920F920FB60F9211240BB612
:1014D0000F922F933F934F935F936F937F938F93CD
:1014E0009F93AF93BF93EF93FF93E0911E02F09110
:1014F0001F021995FF91EF91BF91AF919F918F912D
:101500007F916F915F914F913F912F910F900BBE03
:101510000F900FBE0F901F9018951F920F920FB64D
:101520000F9211240BB60F922F933F934F935F931B
:101530006F937F938F939F93AF93BF93EF93FF939B
:10154000E0911C02F0911D021995FF91EF91BF915E
:10155000AF919F918F917F916F915F914F913F914B
:101560002F910F900BBE0F900FBE0F901F901895EC
:101570001F920F920FB60F9211240BB60F922F935A
:101580003F934F935F936F937F938F939F93AF930B
:10159000BF93EF93FF9348E251E064E271E090E083
:1015A00080E00E944603FF91EF91BF91AF919F9120
:1015B0008F917F916F915F914F913F912F910F90FC
:1015C0000BBE0F900FBE0F901F9018951F920F9299
:1015D0000FB60F9211240BB60F922F933F934F9398
:1015E0005F936F937F938F939F93AF93BF93EF938B
:1015F000FF9348EA50E064EA70E083E090E00E94E4
:101600004603FF91EF91BF91AF919F918F917F9191
:101610006F915F914F913F912F910F900BBE0F9063
:101620000FBE0F901F9018951F920F920FB60F923A
:1016300011240BB60F922F933F934F935F936F93A9
:101640007F938F939F93AF93BF93EF93FF9348E95B
:1016500050E064E970E082E090E00E944603FF9170
:10166000EF91BF91AF919F918F917F916F915F911A
:101670004F913F912F910F900BBE0F900FBE0F9087
:101680001F9018951F920F920FB60F9211240BB650
:101690000F922F933F934F935F936F937F938F930B
:1016A0009F93AF93BF93EF93FF9348E850E064E8B4
:1016B00070E081E090E00E944603FF91EF91BF91BE
:1016C000AF919F918F917F916F915F914F913F91DA
:1016D0002F910F900BBE0F900FBE0F901F9018957B
:1016E000789484B5826084BD84B5816084BD85B5FD
:1016F000826085BD85B5816085BD80916E00816009
:1017000080936E00109281008091810082608093AE
:1017100081008091810081608093810080918000B0
:101720008160809380008091B10084608093B100DB
:101730008091B00081608093B000809191008260C0
:1017400080939100809191008160809391008091BD
:1017500090008160809390008091A10082608093CE
:10176000A1008091A10081608093A1008091A000E0
:1017700081608093A000809121018260809321018B
:1017800080912101816080932101809120018160FD
:101790008093200180917A00846080937A00809108
:1017A0007A00826080937A0080917A0081608093D1
:1017B0007A0080917A00806880937A001092C1004C
:1017C00062E082E10E94050362E083E10E9405037A
:1017D00062E084E10E94050362E085E10E94050366
:1017E0008DE398E090932302809322028091690018
:1017F0008F73806880936900EB9A8AE498E09093F5
:10180000210280932002809169008F7C8062809306
:101810006900EA9A87E598E090931F0280931E0280
:1018200080916900837F886080936900E99A84E6EB
:1018300098E090931D0280931C02809169008C7F38
:10184000826080936900E89A82E00E94E8060E9424
:10185000E00680913603803308F054C061E08DE0EB
:101860000E94050380913603282F30E0F901EE0F26
:10187000FF1FE20FF31FEE55FD4F9081907C9D609E
:1018800090839EE89093370394E6909338032CE07E
:10189000622F0E94C911829FB001112430E020E024
:1018A000AB01420F531FFA01EE0FFF1FE40FF51FAC
:1018B000EE55FD4F908196FD17C02F5F3F4F2C30A6
:1018C000310571F7813009F07EC01092800082E00E
:1018D000809381001092850010928400B19A8091CB
:1018E0006F00826080936F00E09136038E2F90E04E
:1018F000FC01EE0FFF1FE80FF91FEE55FD4F808131
:101900008064808361E083E00E94050361E084E0FD
:101910000E94050361E085E00E94050361E086E026
:101920000E94050361E087E00E94050387E798E0D5
:101930009093AB038093AA03809134039091350375
:101940000E94030580913203909133030E940404A6
:101950000E949807812C912C5401839444244A942A
:10196000542C50E0652E50E0752E51E05093A903A1
:101970008FB7F8944091390350913A0360913B033B
:1019800070913C038FBF8091990390919A03A0912D
:101990009B03B0919C03481B590B6A0B7B0B8091F6
:1019A000A5039091A603B0E0A0E0C0E084179507DE
:1019B000A607B707A0F11092A90361147104A9F258
:1019C0000E940000D2CF823061F410929000809388
:1019D0009100109295001092940088BB8093710042
:1019E00083CF833069F41092A00082E08093A1003D
:1019F0001092A5001092A40089BB8093720074CF4E
:101A0000811172CF1092200182E080932101109207
:101A10002501109224018ABB8093730065CF8091C9
:101A2000A303C81760F4E0919F03F091A003EC0FAB
:101A3000F11D62E080810E940503CF5FF0CF312C61
:101A40008091A403381608F05FC0032D10E0E091E8
:101A5000A103F091A203E00FF11F61E080810E94D9
:101A60000503E091A103F091A203E00FF11F60E0F4
:101A700080810E94D302D501C401032C04C0880FC9
:101A8000991FAA1FBB1F0A94D2F76C017C01E09436
:101A9000F094212C8091A3032816F8F4C22DD0E0F5
:101AA000E0919F03F091A003EC0FFD1F80810E9445
:101AB000A7022496CC0FDD1FC35CDC4F892B41F4B9
:101AC000888199818C299D29998388832394E2CFE9
:101AD000888199818E219F21F7CFE091A103F09118
:101AE000A203E00FF11F61E080810E94D302809188
:101AF000A1039091A203080F191F60E0F8018081F3
:101B00000E94050333949CCF0DE313E0E8018F8D11
:101B100098A1892B21F41C8E5E8E4D8E19A22696DB
:101B2000F3E0C937DF0799F7D12C8091A303D816CA
:101B300008F053C0C12CED2CF12CEE0CFF1CC7019A
:101B40008B5B9C4F7C012091A403C21608F043C01C
:101B5000F701608171810C2C02C0769567950A941B
:101B6000E2F7D29E900111242C0D311DEDE3F3E03C
:101B700080E0458D568D2417350709F45BC08F5FD3
:101B800036968A30B1F760FF24C0EDE3F3E090E0D1
:101B900080E0448D411118C0E0919D03F0919E03B7
:101BA000E20FF31F408156E0589FF001599FF00D5E
:101BB0001124E35CFC4F448F368F258F10A2178EC3
:101BC00061E00E949A0105C0019636968A3091051F
:101BD00001F7C394B8CFD394A8CF80E0F80191A1C6
:101BE0009111892F0A5F1F4FC017D107B9F79FB70F
:101BF000F8944091390350913A0360913B037091FE
:101C00003C039FBF4093990350939A0360939B03B7
:101C100070939C03882309F4CECE80915E038823C1
:101C200009F4C9CE80915C0390915D03019709F09E
:101C3000C2CEC3CE6170C5CFCF9310923F03109236
:101C4000430310924203109244038EE392E0909378
:101C50003E0380933D03E9E5F3E010821482138292
:101C60001582369683E0E539F807B9F784E092E00B
:101C70009093A00380939F0380E092E09093A2034F
:101C80008093A10384E08093A3038093A40388E05E
:101C900092E090939E0380939D038AE090E090935E
:101CA000A6038093A50384EF91E09093A80380930B
:101CB000A7031092AB031092AA03109299031092FB
:101CC0009A0310929B0310929C031092A903109206
:101CD000AF031092AE0382E392E09093AD03809342
:101CE000AC0382E38093B003CFEFC093B10383E3EF
:101CF0008093B20388E08093B30389E08093B403B8
:101D00008AE08093B5038BE08093B6031092B7030B
:101D10001092B8031092B9031092BA031092BB0349
:101D200081E00E94E806809198028033C8F491E037
:101D3000980F909398028093360390E0FC01EE0F89
:101D4000FF1FE80FF91FEE55FD4F88EB9BE09283D4
:101D500081836BE472E082E992E0CF910C9481057B
:101D6000C0933603F6CF82E992E00C943C061F93B1
:101D7000FC0199278827BC01E89411911032E9F3FE
:101D8000193010F01E30C8F31B3251F01D3249F4E7
:101D9000689406C00E94E90E610F711D811D911D9E
:101DA000119110531A30B0F33EF4909580957095D0
:101DB00061957F4F8F4F9F4F1F910895BB274A30EA
:101DC00031F4992322F4BDE2909581959F4F0C94B4
:101DD000FF0E592F482F372F262F660F771F881F8A
:101DE000991F660F771F881F991F620F731F841F2B
:101DF000951F660F771F881F991F0895BB27FB014A
:101E00005527AA27880F991FAA1FA41710F0A41BF3
:101E100083955051B9F7A05DAA3308F0A95DA1934D
:101E2000009779F7B111B1931192CB010C94180F6F
:101E3000DC01FC01672F71917723E1F7329704C031
:101E40007C916D9370836291AE17BF07C8F30895BC
:101E50000E946A0F08F481E00895E89409C097FB96
:101E60003EF490958095709561957F4F8F4F9F4F71
:101E70009923A9F0F92F96E9BB279395F6958795B5
:101E800077956795B795F111F8CFFAF4BB0F11F478
:101E900060FF1BC06F5F7F4F8F4F9F4F16C088231F
:101EA00011F096E911C0772321F09EE8872F762F55
:101EB00005C0662371F096E8862F70E060E02AF096
:101EC0009A95660F771F881FDAF7880F9695879582
:101ED00097F90895990F0008550FAA0BE0E8FEEF57
:101EE00016161706E807F907C0F012161306E407DE
:101EF000F50798F0621B730B840B950B39F40A26D7
:101F000061F0232B242B252B21F408950A2609F4B4
:101F1000A140A6958FEF811D811D08950E94A10FFC
:101F20000C9412100E94041038F00E940B1020F044
:101F3000952311F00C94FB0F0C94011011240C94B8
:101F400046100E94231070F3959FC1F3950F50E047
:101F5000551F629FF001729FBB27F00DB11D639F5B
:101F6000AA27F00DB11DAA1F649F6627B00DA11D01
:101F7000661F829F2227B00DA11D621F739FB00DA7
:101F8000A11D621F839FA00D611D221F749F332717
:101F9000A00D611D231F849F600D211D822F762FB0
:101FA0006A2F11249F5750409AF0F1F088234AF08D
:101FB000EE0FFF1FBB1F661F771F881F91505040F9
:101FC000A9F79E3F510580F00C94FB0F0C9446102E
:101FD0005F3FE4F3983ED4F3869577956795B79580
:101FE000F795E7959F5FC1F7FE2B880F911D96959A
:101FF000879597F9089597F99F6780E870E060E00A
:1020000008959FEF80EC089500240A941616170691
:1020100018060906089500240A94121613061406D9
:1020200005060895092E0394000C11F4882352F03C
:10203000BB0F40F4BF2B11F460FF04C06F5F7F4FF4
:102040008F4F9F4F089557FD9058440F551F59F0DB
:102050005F3F71F04795880F97FB991F61F09F3F95
:1020600079F087950895121613061406551FF2CFBE
:102070004695F1DF08C0161617061806991FF1CF0E
:1020800086957105610508940895E894BB27662735
:102090007727CB0197F90895052E97FB1EF400943E
:1020A0000E94631057FD07D00E947E1007FC03D0EA
:1020B0004EF40C94631050954095309521953F4F08
:1020C0004F4F5F4F089590958095709561957F4F24
:1020D0008F4F9F4F08950E94A010A59F900DB49F11
:1020E000900DA49F800D911D11240895B7FF0C94AD
:1020F0006B100E946B10821B930B0895A1E21A2EA5
:10210000AA1BBB1BFD010DC0AA1FBB1FEE1FFF1F9B
:10211000A217B307E407F50720F0A21BB30BE40BEB
:10212000F50B661F771F881F991F1A9469F7609532
:102130007095809590959B01AC01BD01CF010895EC
:10214000A29FB001B39FC001A39F700D811D1124F8
:10215000911DB29F700D811D1124911D089550583D
:10216000BB27AA270E94C7100C9412100E940410CB
:1021700038F00E940B1020F039F49F3F19F426F438
:102180000C9401100EF4E095E7FB0C94FB0FE92F83
:102190000E94231058F3BA17620773078407950744
:1021A00020F079F4A6F50C9445100EF4E0950B2E72
:1021B000BA2FA02D0B01B90190010C01CA01A00199
:1021C0001124FF27591B99F0593F50F4503E68F1F4
:1021D0001A16F040A22F232F342F4427585FF3CF35
:1021E000469537952795A795F0405395C9F77EF406
:1021F0001F16BA0B620B730B840BBAF09150A1F04F
:10220000FF0FBB1F661F771F881FC2F70EC0BA0FD4
:10221000621F731F841F48F4879577956795B7955C
:10222000F7959E3F08F0B0CF9395880F08F0992757
:10223000EE0F9795879508950E9430110C94121017
:102240000E940B1058F00E94041040F029F45F3FE8
:1022500029F00C94FB0F51110C9446100C940110B2
:102260000E94231068F39923B1F3552391F3951B32
:10227000550BBB27AA2762177307840738F09F5FA7
:102280005F4F220F331F441FAA1FA9F335D00E2E14
:102290003AF0E0E832D091505040E695001CCAF781
:1022A0002BD0FE2F29D0660F771F881FBB1F261744
:1022B00037074807AB07B0E809F0BB0B802DBF011B
:1022C000FF2793585F4F3AF09E3F510578F00C94EA
:1022D000FB0F0C9446105F3FE4F3983ED4F38695D1
:1022E00077956795B795F7959F5FC9F7880F911D0B
:1022F0009695879597F90895E1E0660F771F881FF7
:10230000BB1F621773078407BA0720F0621B730BA9
:10231000840BBA0BEE1F88F7E09508950E94951183
:102320006894B1110C94461008950E942B1088F007
:102330009F5798F0B92F9927B751B0F0E1F0660F89
:10234000771F881F991F1AF0BA95C9F714C0B130CA
:1023500091F00E944510B1E008950C944510672F4C
:10236000782F8827B85F39F0B93FCCF386957795F9
:102370006795B395D9F73EF49095809570956195E2
:102380007F4F8F4F9F4F08950E946A0F08F48FEF81
:102390000895991B79E004C0991F961708F0961BC1
:1023A000881F7A95C9F780950895EE0FFF1F881F43
:1023B0008BBF0790F691E02D19940F931F93CF9345
:1023C000DF938230910510F482E090E0E091C60343
:1023D000F091C70330E020E0B0E0A0E0309799F43E
:1023E0002115310509F44AC0281B390B2430310569
:1023F000D8F58A819B816115710589F1FB01938371
:102400008283FE0111C040815181028113814817EE
:102410005907E0F04817590799F4109761F01296A0
:102420000C93129713961C933296CF01DF91CF91A4
:102430001F910F9108950093C6031093C703F4CF23
:102440002115310551F04217530738F0A901DB017E
:102450009A01BD01DF01F801C1CFEF01F9CF9093DF
:10246000C7038093C603CDCFFE01E20FF31F819314
:1024700091932250310939832883D7CF2091C40307
:102480003091C503232B41F420912A0230912B0275
:102490003093C5032093C403209128023091290270
:1024A0002115310541F42DB73EB740912C025091D2
:1024B0002D02241B350BE091C403F091C503E217F4
:1024C000F307A0F42E1B3F0B2817390778F0AC0157
:1024D0004E5F5F4F2417350748F04E0F5F1F509334
:1024E000C5034093C403819391939FCFF0E0E0E054
:1024F0009CCFCF93DF930097E9F0FC0132971382D2
:102500001282A091C603B091C703ED0130E020E034
:102510001097A1F420813181820F931F2091C40371
:102520003091C5032817390709F061C0F093C5033E
:10253000E093C403DF91CF910895EA01CE17DF073E
:10254000E8F54A815B819E0141155105B1F7E9012A
:10255000FB83EA8349915991C40FD51FEC17FD07FE
:1025600061F4808191810296840F951FE90199831E
:102570008883828193819B838A83F0E0E0E01296D6
:102580008D919C9113970097B9F52D913C911197DE
:10259000CD010296820F931F2091C4033091C50391
:1025A0002817390739F6309751F51092C703109262
:1025B000C603B093C503A093C403BCCFD383C28327
:1025C00040815181840F951FC817D90761F44E5F70
:1025D0005F4F88819981480F591F518340838A81B9
:1025E0009B81938382832115310509F0B0CFF0934D
:1025F000C703E093C6039ECFFD01DC01C0CF138269
:102600001282D7CF4F925F926F927F928F929F925A
:10261000AF92BF92CF92DF92EF92FF920F931F93F0
:10262000CF93DF938C01009799F4CB01DF91CF9189
:102630001F910F91FF90EF90DF90CF90BF90AF90E0
:102640009F908F907F906F905F904F900C94DD11D2
:10265000FC01E60FF71F9C0122503109E217F30736
:1026600008F4AEC0D901CD91DC911197C617D707F8
:1026700020F1C530D10578F0CE0104978617970771
:1026800050F0C61BD70B2297C193D1936D937C93C7
:10269000CF010E947912C801DF91CF911F910F9154
:1026A000FF90EF90DF90CF90BF90AF909F908F9072
:1026B0007F906F905F904F9008955B01AC1ABD0AB8
:1026C0004C018C0E9D1EA091C603B091C703512CE6
:1026D000412CF12CE12C109731F58091C40390919D
:1026E000C5038815990509F05CC04616570608F021
:1026F00058C08091280290912902009741F48DB72B
:102700009EB740912C0250912D02841B950BE81727
:10271000F90708F055C0F093C503E093C403F9012D
:1027200071836083B8CF8D919C91119712966C90B4
:10273000129713967C901397A815B90559F56C015B
:1027400042E0C40ED11CCA14DB0420F1AC014A19CA
:102750005B09DA011296159780F0628273825183C9
:102760004083D9016D937C93E114F10471F0D7019A
:102770001396FC93EE9312978ECF22968C0F9D1F8B
:10278000F90191838083F301EFCFF093C703E093C6
:10279000C60381CF4816590608F42C017D01D301E8
:1027A0009ACFCB010E94DD117C01009749F0AE0168
:1027B000B8010E94E313C8010E94791287016BCF10
:1027C00010E000E068CFFB01DC0102C001900D9237
:1027D00041505040D8F70895FB01DC0101900D9263
:1027E0000020E1F7089511E0C3E4D1E000E006C065
:1027F000802FFE010E94D5112196011DC434D107FE
:1028000080E00807A9F7F894FFCF1A1B1C1D1617C4
:1028100018193738392F3435362A3132332D4330B1
:102820003D2B450345034503450345034503450348
:1028300045030000C80380000000000071080A0280
:10284000010400040000000041030103D0025370A2
:102850006565643A2000736574207800416E676C8A
:10286000653A2000736574202B00456E74657220F4
:1028700053706565643A00283020746F2033312925
:1028800000456E74657220416E676C653A00282DB4
:0A289000313020746F20343029002D
:020000040003F7
:10E000000D9489F10D94B2F10D94B2F10D94B2F129
:10E010000D94B2F10D94B2F10D94B2F10D94B2F1F0
:10E020000D94B2F10D94B2F10D94B2F10D94B2F1E0
:10E030000D94B2F10D94B2F10D94B2F10D94B2F1D0
:10E040000D94B2F10D94B2F10D94B2F10D94B2F1C0
:10E050000D94B2F10D94B2F10D94B2F10D94B2F1B0
:10E060000D94B2F10D94B2F10D94B2F10D94B2F1A0
:10E070000D94B2F10D94B2F10D94B2F10D94B2F190
:10E080000D94B2F10D94B2F10D94B2F10D94B2F180
:10E090000D94B2F10D94B2F10D94B2F10D94B2F170
:10E0A0000D94B2F10D94B2F10D94B2F10D94B2F160
:10E0B0000D94B2F10D94B2F10D94B2F10D94B2F150
:10E0C0000D94B2F10D94B2F10D94B2F10D94B2F140
:10E0D0000D94B2F10D94B2F10D94B2F10D94B2F130
:10E0E0000D94B2F141546D656761323536300041AF
:10E0F000726475696E6F206578706C6F72657220DE
:10E1000073746B3530305632206279204D4C530099
:10E11000426F6F746C6F616465723E004875683F52
:10E1200000436F6D70696C6564206F6E203D200048
:10E130004350552054797065202020203D20005FF9
:10E140005F4156525F415243485F5F3D2000415658
:10E1500052204C696243205665723D20004743437C
:10E160002056657273696F6E203D20004350552024
:10E1700049442020202020203D20004C6F7720663D
:10E18000757365202020203D20004869676820665F
:10E190007573652020203D200045787420667573D6
:10E1A00065202020203D20004C6F636B2066757336
:10E1B000652020203D20004D617220203720323024
:10E1C000313300312E362E3800342E332E350056A2
:10E1D00023202020414444522020206F7020636F70
:10E1E00064652020202020696E73747275637469E1
:10E1F0006F6E2061646472202020496E74657272B3
:10E20000757074006E6F20766563746F7200726A49
:10E210006D702020006A6D70200057686174207056
:10E220006F72743A00506F7274206E6F7420737541
:10E2300070706F72746564004D7573742062652030
:10E2400061206C6574746572002000577269747483
:10E25000696E672045450052656164696E672045B7
:10E26000450045452065727220636E743D00504F35
:10E27000525400303D5A65726F2061646472003FF1
:10E280003D43505520737461747300403D454550C3
:10E29000524F4D207465737400423D426C696E6B41
:10E2A000204C454400453D44756D70204545505215
:10E2B0004F4D00463D44756D7020464C415348001B
:10E2C000483D48656C70004C3D4C69737420492F83
:10E2D0004F20506F72747300513D51756974005234
:10E2E0003D44756D702052414D00563D73686F7707
:10E2F00020696E7465727275707420566563746FF0
:10E30000727300593D506F727420626C696E6B00BD
:10E310002A0011241FBECFEFD1E2DEBFCDBF01E046
:10E320000CBF12E0A0E0B2E0EEE1FDEF03E00BBFB6
:10E3300002C007900D92A030B107D9F712E0A0E01B
:10E34000B2E001C01D92AE30B107E1F70F9460F367
:10E350000D948DFE01E20EBF0FEF0DBF11241FBE05
:10E360000D9460F30D9400F020E030E040ED57E0B4
:10E3700005C0FA013197F1F72F5F3F4F2817390792
:10E38000C0F308959C01260F311DC901A0E0B0E043
:10E390002F5F3F4FABBFFC018791882361F08093D3
:10E3A000C6008091C00086FFFCCF8091C0008064D1
:10E3B0008093C000EACF08958DE08093C6008091DD
:10E3C000C00086FFFCCF8091C00080648093C000B5
:10E3D0008AE08093C6008091C00086FFFCCF8091C8
:10E3E000C00080648093C00008950F94C2F10F9420
:10E3F000DCF10895FC019081992359F09093C600B7
:10E400008091C00086FFFCCF8091C0008064809323
:10E41000C0003196992379F70895282F982F929567
:10E420009F70892F805D8A3308F0895F8093C600D2
:10E430008091C00086FFFCCF8091C00080648093F3
:10E44000C000822F8F70982F905D9A3308F0995FEB
:10E450009093C6008091C00086FFFCCF8091C000E1
:10E4600080648093C00008959C01FB01853691056E
:10E470001CF46330710594F0C90164E670E00F94F8
:10E480002EFE605D7F4F6093C6008091C00086FFC6
:10E49000FCCF8091C00080648093C0002B30310598
:10E4A00014F43297B4F0C90164E670E00F942EFEC4
:10E4B0006AE070E00F942EFE605D7F4F6093C600AF
:10E4C0008091C00086FFFCCF8091C0008064809363
:10E4D000C000C9016AE070E00F942EFEC0968093E0
:10E4E000C6008091C00086FFFCCF8091C000806490
:10E4F0008093C00008951F93182F8EE692EE60E07F
:10E500000F94C2F11093C6008091C00086FFFCCF2B
:10E510008091C00080648093C0000F94DCF11F9153
:10E5200008952F923F924F925F926F927F928F92B7
:10E530009F92AF92BF92CF92DF92EF92FF920F9392
:10E540001F93DF93CF93CDB7DEB762970FB6F894E2
:10E55000DEBF0FBECDBF382E622ECA01DB015C01CB
:10E560006D01772420E2222E2E010894411C511CBB
:10E570008BC081E0A81680E0B80681E0C80680E084
:10E58000D80628F0C601AA27BB270F940DF2BB2797
:10E59000AD2D9C2D8B2D0F940DF28A2D0F940DF225
:10E5A0002092C6008091C00086FFFCCF8091C00001
:10E5B00080648093C0009DE29093C6008091C0006B
:10E5C00086FFFCCF8091C00080648093C0002092C1
:10E5D000C6008091C00086FFFCCF8091C00080649F
:10E5E0008093C00019828601750188249924A1E0D6
:10E5F0003A1651F03A1620F0B2E03B1661F409C029
:10E600000BBFF701779007C0C7010F9477FE782EF4
:10E6100002C0F7017080872D0F940DF22092C60082
:10E620008091C00086FFFCCF8091C0008064809301
:10E63000C000872D8052F401EF70F0708F3520F408
:10E64000E40DF51D708204C0E40DF51D8EE280839B
:10E650000894E11CF11C011D111D0894811C911CE2
:10E6600090E18916910409F0C2CF80E190E0A0E02A
:10E67000B0E0A80EB91ECA1EDB1E198AC2010F9493
:10E68000FAF10F94DCF16A94662009F072CF629679
:10E690000FB6F894DEBF0FBECDBFCF91DF911F91B3
:10E6A0000F91FF90EF90DF90CF90BF90AF909F9031
:10E6B0008F907F906F905F904F903F902F90089534
:10E6C0002F923F924F925F926F927F928F929F9282
:10E6D000AF92BF92CF92DF92EF92FF920F931F9370
:10E6E000DF93CF93CDB7DEB7CD53D1400FB6F894BB
:10E6F000DEBF0FBECDBF01E20EBF0FEF0DBF94B75F
:10E70000F894A89514BE80916000886180936000A1
:10E7100010926000789493FF05C0E0910002F091A0
:10E7200001021995279A2F9A8091C00082608093E8
:10E73000C00080E18093C40088E18093C1000000A4
:10E74000EE24FF24870144E0A42EB12CCC24DD2448
:10E7500024C0C5010197F1F70894E11CF11C011DCB
:10E76000111D21E2E2162EE4F20620E0020720E06D
:10E77000120718F031E0C32ED12CC801B70127ECE5
:10E780003BE140E050E00F9441FE611571058105C9
:10E79000910519F485B1805885B98091C00087FD35
:10E7A00003C0C114D104A9F2A6014F5F5F4FC25E3E
:10E7B000DE4F59834883CE51D140C25EDE4F8881FF
:10E7C0009981CE51D140019711F00D9410FEC05D9A
:10E7D000DE4F19821882C053D14060E0C15DDE4F28
:10E7E0001882CF52D14088249924C35DDE4F19820C
:10E7F0001882CD52D140C05EDE4F188219821A8233
:10E800001B82C052D140CE5CDE4F188219821A8220
:10E810001B82C253D140EE24FF2487010BBFF701B6
:10E8200007911691C45CDE4F19830883CC53D14005
:10E830000D940BFEC25EDE4F28813981CE51D1404E
:10E840002130310509F52091C600C25EDE4F1982E4
:10E850001882CE51D14022C02F5F3F4F4F4F5F4FA4
:10E86000213082E138078AE7480780E0580780F0C6
:10E87000C45CDE4FE881F981CC53D140EF5FFF4F9C
:10E8800019F0EE27FF27099420E030E040E050E047
:10E890008091C00087FFE0CF2091C600C35DDE4FAE
:10E8A00048815981CD52D1404F5F5F4FC35DDE4FEC
:10E8B00059834883CD52D140213209F063C64A3092
:10E8C000510508F05FC60894811C911C53E0851621
:10E8D000910409F059C600E010E018C081E280936D
:10E8E000C6008091C00086FFFCCF8091C00080648C
:10E8F0008093C0002F5F3F4F2931310579F70F9486
:10E90000DCF10F5F1F4F0530110519F020E030E0FA
:10E91000E5CF10920A0210920B0210920C02109294
:10E920000D02109206021092070210920802109235
:10E930000902109202021092030210920402109235
:10E9400005028FEE90EE60E00F94F5F180E191EE1C
:10E9500060E00F94C2F18091C00087FFFCCF9091DE
:10E96000C600903608F09F759032B8F09093C600BC
:10E970008091C00086FFFCCF8091C00080648093AE
:10E98000C000A0E2A093C6008091C00086FFFCCF2B
:10E990008091C00080648093C000983409F4D7C18E
:10E9A0009934B8F4923409F459C1933458F490333B
:10E9B00019F1903308F4E3C59F33A1F1903409F0C5
:10E9C000DEC5BDC0953409F470C1963409F0D7C5D1
:10E9D00098C1923509F42BC2933538F49C3409F46C
:10E9E000F5C1913509F0CBC518C2963509F445C279
:10E9F000993509F0C4C567C483E792EE62E00F94CD
:10EA0000F5F110920602109207021092080210927D
:10EA1000090210920A0210920B0210920C0210923C
:10EA20000D0213C18FE792EE62E00F94F5F18FEEC5
:10EA300090EE60E00F94F5F181E291EE60E00F94CA
:10EA4000C2F187EB91EE60E00F94F5F180E391EE77
:10EA500060E00F94C2F184EE90EE60E00F94F5F167
:10EA60008FE391EE60E00F94C2F186E090E061E008
:10EA700070E00F9434F20F94DCF18DE591EE60E0DC
:10EA80000F94C2F189EC91EE60E00F94F5F18EE401
:10EA900091EE60E00F94C2F183EC91EE60E00F9490
:10EAA000F5F18CE691EE60E00F94C2F18EE10F94E7
:10EAB0000DF288E90F940DF281E00F940DF20F949E
:10EAC000DCF18BE791EE60E00F94C2F119E0E0E039
:10EAD000F0E010935700E4918E2F0F940DF20F94F5
:10EAE000DCF18AE891EE60E00F94C2F1E3E0F0E03F
:10EAF00010935700E4918E2F0F940DF20F94DCF1D8
:10EB000089E991EE60E00F94C2F1E2E0F0E0109349
:10EB10005700E4918E2F0F940DF20F94DCF188EAE8
:10EB200091EE60E00F94C2F1E1E0F0E01093570045
:10EB30001491812F0F940DF20F94DCF107CF8BE825
:10EB400092EE62E00F94F5F18BE492EE60E00F94A8
:10EB5000F5F10F94DCF100E010E019C0C8016F2D51
:10EB60000F947FFEFF2031F489E492EE60E00F9471
:10EB7000C2F10BC0F092C6008091C00086FFFCCFAE
:10EB80008091C00080648093C0000F5F1F4FC80158
:10EB900081519F41A0E0B0E0ABBFFC01F790BAE229
:10EBA000FB1621F0E2E000301E07C1F60F94DCF105
:10EBB0000F94DCF187E592EE60E00F94F5F10F948D
:10EBC000DCF1CC24DD2400E010E01EC0C8010F946D
:10EBD00077FEF82E882331F489E492EE60E00F94FA
:10EBE000C2F10BC08093C6008091C00086FFFCCFAD
:10EBF0008091C00080648093C000FE1419F00894D6
:10EC0000C11CD11C0F5F1F4FC80181519F41A0E063
:10EC1000B0E0ABBFFC01E790FAE2EF1621F022E092
:10EC20000030120799F60F94DCF10F94DCF182E6C4
:10EC300092EE60E00F94C2F1C60161E070E00F94C3
:10EC400034F20F94DCF10F94DCF110920202109276
:10EC50000302109204021092050278CE89E992EE26
:10EC600062E00F94F5F1279A2F9A16C02F9880E052
:10EC700090E0E0EDF7E03197F1F7019684369105E9
:10EC8000C1F72F9A80E090E0E0EDF7E03197F1F7DF
:10EC9000019684369105C1F78091C00087FFE6CFC9
:10ECA0008091C00087FFFCCF64C485EA92EE62E0E9
:10ECB0000F94F5F140910202509103026091040219
:10ECC0007091050281E020E10F9491F2809102029F
:10ECD00090910302A0910402B091050280509F4FD1
:10ECE000AF4FBF4F8093020290930302A0930402A0
:10ECF000B093050280509041A040B04008F426CE69
:10ED0000A4CF83EB92EE62E00F94F5F140910602FE
:10ED100050910702609108027091090280E020E1A1
:10ED20000F9491F28091060290910702A09108023F
:10ED3000B091090280509F4FAF4FBF4F80930602A2
:10ED400090930702A0930802B0930902FFCD80ECD4
:10ED500092EE62E00F94F5F183E792EE60E00F949B
:10ED6000F5F18FE792EE60E00F94F5F18BE892EE0B
:10ED700060E00F94F5F189E992EE60E00F94F5F10F
:10ED800085EA92EE60E00F94F5F183EB92EE60E09D
:10ED90000F94F5F180EC92EE60E00F94F5F187ECC2
:10EDA00092EE60E00F94F5F188ED92EE60E00F9442
:10EDB000F5F18FED92EE60E00F94F5F18AEE92EEB0
:10EDC00060E00F94F5F183E093EEBDCD87EC92EE19
:10EDD00062E00F94F5F181E40F947BF282E40F94EA
:10EDE0007BF283E40F947BF284E40F947BF285E45E
:10EDF0000F947BF286E40F947BF287E40F947BF20E
:10EE000088E40F947BF28AE40F947BF28BE40F94F6
:10EE10007BF28CE40F947BF299CD88ED92EE62E068
:10EE20000F94F5F1772473948824992409C48FED05
:10EE300092EE62E00F94F5F140910A0250910B02BC
:10EE400060910C0270910D0282E020E10F9491F22A
:10EE500080910A0290910B02A0910C02B0910D02D8
:10EE600080509F4FAF4FBF4F80930A0290930B0289
:10EE7000A0930C02B0930D0269CD8AEE92EE62E08F
:10EE80000F94F5F184EE90EE60E00F94F5F18FECC5
:10EE900091EE60E00F94F5F1662477244301CC5D98
:10EEA000DE4F19821882C452D140D401C301B695F5
:10EEB000A79597958795CA5DDE4F88839983AA8326
:10EEC000BB83C652D140CC5DDE4FA881B981C4520C
:10EED000D1401196CC5DDE4FB983A883C452D14096
:10EEE000CD0162E070E00F9434F2B0E2B093C6005E
:10EEF0008091C00086FFFCCF8091C0008064809329
:10EF0000C000EDE2E093C6008091C00086FFFCCF18
:10EF10008091C00080648093C000F0E2F093C6004E
:10EF20008091C00086FFFCCF8091C00080648093F8
:10EF3000C000CA5DDE4FE880F9800A811B81C6529D
:10EF4000D140BB27A12F902F8F2D0F940DF2CA5DBA
:10EF5000DE4F8881C652D1400F940DF2B0E2FB2EF5
:10EF6000F092C6008091C00086FFFCCF8091C00067
:10EF700080648093C0000DE30093C6008091C000C0
:10EF800086FFFCCF8091C00080648093C00010E2B7
:10EF90001093C6008091C00086FFFCCF8091C00016
:10EFA00080648093C0008BBEF3012791C65DDE4F65
:10EFB0002883CA52D140A22EBB24CC24DD2408943D
:10EFC000611C711C811C911C8BBEF3018791282E42
:10EFD0003324442455240894611C711C811C911C09
:10EFE0008BBEF3013791C55DDE4F3883CB52D140E4
:10EFF0000894611C711C811C911C8BBEF30147910C
:10F00000C45DDE4F4883CC52D140ADEFEA2EAFEF66
:10F01000FA2EAFEF0A2FAFEF1A2F6E0C7F1C801E57
:10F02000911E142D032DF22CEE24EA0CFB1C0C1D5A
:10F030001D1D0F940DF220E22093C6008091C000A8
:10F0400086FFFCCF8091C00080648093C000C65DC5
:10F05000DE4F8881CA52D1400F940DF230E23093D6
:10F06000C6008091C00086FFFCCF8091C000806404
:10F070008093C000C45DDE4F8881CC52D1400F9494
:10F080000DF240E24093C6008091C00086FFFCCFA5
:10F090008091C00080648093C000C55DDE4F888190
:10F0A000CB52D1400F940DF250E25093C6008091A4
:10F0B000C00086FFFCCF8091C00080648093C000B8
:10F0C0008FEFE8168FEFF80680E0080780E018075A
:10F0D00031F484E092EE60E00F94C2F1DFC0D80119
:10F0E000C7018070907CA070B0708050904CA040A0
:10F0F000B040D1F52FEF3FE340E050E0E222F322B1
:10F1000004231523CA5DDE4FA880B980CA80DB8046
:10F11000C652D140AE0CBF1CC01ED11EAA0CBB1CD7
:10F12000CC1CDD1C8EE092EE60E00F94C2F1BB2798
:10F13000A12F902F8F2D0F940DF28E2D0F940DF285
:10F1400030E23093C6008091C00086FFFCCF8091F2
:10F15000C00080648093C0004EE34093C60080915D
:10F16000C00086FFFCCF87C08EE09EEFA0E0B0E03D
:10F17000E822F9220A231B239CE0E91694E9F90608
:10F1800090E0090790E0190709F088C0C45DDE4FE0
:10F19000A881CC52D140EA2EFF2400E010E0102FCD
:10F1A0000F2DFE2CEE24C55DDE4FB881CB52D14031
:10F1B000EB0EF11C011D111DD601C501817090706F
:10F1C000A070B070DC0199278827E80EF91E0A1F8D
:10F1D0001B1F20EF30E040E050E0A222B322C42207
:10F1E000D52241E1AA0CBB1CCC1CDD1C4A95D1F7F1
:10F1F000EA0CFB1C0C1D1D1D81E090E0A0E0B0E0BE
:10F20000282239224A225B2235E1220C331C441C7D
:10F21000551C3A95D1F7E20CF31C041D151D57013E
:10F220006801AA0CBB1CCC1CDD1C85E192EE60E0E1
:10F230000F94C2F1C801AA27BB270F940DF2BB2778
:10F24000A12F902F8F2D0F940DF28E2D0F940DF274
:10F2500090E29093C6008091C00086FFFCCF809121
:10F26000C00080648093C000AEE3A093C60080918C
:10F27000C00086FFFCCF8091C00080648093C000F6
:10F28000C601AA27BB270F940DF2BB27AD2D9C2DDD
:10F290008B2D0F940DF28A2D0F940DF20F94DCF14B
:10F2A000CC5DDE4FE881F981C452D140F99709F471
:10F2B0004DCBF4E0EF2EF12C012D112D6E0C7F1CA7
:10F2C000801E911EF2CD83E093EE62E00F94F5F183
:10F2D0008AE192EE60E00F94C2F18091C00087FF56
:10F2E000FCCF1091C6001F751093C6008091C0001E
:10F2F00086FFFCCF8091C00080648093C0000F9493
:10F30000DCF1812F81548A3108F036C1163409F4BA
:10F3100095C0173490F4133409F44EC0143430F40B
:10F320001134F1F0123409F01DC130C0143409F465
:10F3300059C0153409F016C16BC01A3409F4C4C0A1
:10F340001B3438F4173409F48FC0183409F00AC19B
:10F35000A1C01B3409F4D2C01C3409F003C1E8C0B9
:10F360008FEF81B90DC082B1809582B980E090E0C5
:10F37000E0EDF7E03197F1F70196883C9105C1F790
:10F380008091C00087FFEFCF12B8EFC08FEF84B934
:10F390000DC085B1809585B980E090E0E0EDF7E0A3
:10F3A0003197F1F70196883C9105C1F78091C00033
:10F3B00087FFEFCF15B8D9C08FEF87B90DC088B1DF
:10F3C000809588B980E090E0E0EDF7E03197F1F7C3
:10F3D0000196883C9105C1F78091C00087FFEFCF6F
:10F3E00018B8C3C08FEF8AB90DC08BB180958BB9A7
:10F3F00080E090E0E0EDF7E03197F1F70196883C8E
:10F400009105C1F78091C00087FFEFCF1BB8ADC059
:10F410008FEF8DB90DC08EB180958EB980E090E0F0
:10F42000E0EDF7E03197F1F70196883C9105C1F7DF
:10F430008091C00087FFEFCF1EB897C08FEF80BBD1
:10F440000DC081B3809581BB80E090E0E0EDF7E0F6
:10F450003197F1F70196883C9105C1F78091C00082
:10F4600087FFEFCF11BA81C08FEF83BB0DC084B38C
:10F47000809584BB80E090E0E0EDF7E03197F1F714
:10F480000196883C9105C1F78091C00087FFEFCFBE
:10F4900014BA6BC08FEF809301010FC080910201FD
:10F4A00080958093020180E090E0E0EDF7E03197F5
:10F4B000F1F70196883C9105C1F78091C00087FF64
:10F4C000EDCF1092020151C08FEF809304010FC065
:10F4D0008091050180958093050180E090E0E0ED4A
:10F4E000F7E03197F1F70196883C9105C1F78091DB
:10F4F000C00087FFEDCF1092050137C08FEF8093DA
:10F5000007010FC08091080180958093080180E079
:10F5100090E0E0EDF7E03197F1F70196883C910536
:10F52000C1F78091C00087FFEDCF109208011DC088
:10F530008FEF80930A010FC080910B01809580931B
:10F540000B0180E090E0E0EDF7E03197F1F70196F4
:10F55000883C9105C1F78091C00087FFEDCF1092E4
:10F560000B0103C085E292EEEEC98091C00087FFD7
:10F57000FCCF8091C600EAC988E392EEE4C98CE131
:10F5800091EEE1C988249924933011F1943028F444
:10F59000913089F09230B8F408C0953061F195301F
:10F5A000F0F0963009F048C043C02B3109F042C951
:10F5B00091E06BE13FC96227C15DDE4F2883CF52E6
:10F5C000D14092E037C9B22FA0E0622793E032C960
:10F5D000822F90E0A82BB92B622794E02BC92E3004
:10F5E00009F039C3622795E0C05DDE4F19821882A9
:10F5F000C053D1401FC9E1E0F0E0EC0FFD1FC05D3A
:10F60000DE4F08811981C053D140E00FF11F2083E4
:10F610000F5F1F4FC05DDE4F19830883C053D14079
:10F6200062270A171B0709F005C9D80196E002C92D
:10F63000261709F010C303C0973009F0FBC87724E0
:10F640009981933109F412C19431C8F4963009F4C8
:10F65000D8C0973050F4923009F406C1933009F4C1
:10F660006DC0913009F059C253C0913109F477C08F
:10F67000923108F0BBC0903109F04FC2F5C098310B
:10F6800009F487C0993150F4953109F4EFC09531F0
:10F6900008F4C6C1963109F040C2C2C19A3109F4DA
:10F6A0006CC09A3108F491C09B3109F45BC09D3164
:10F6B00009F033C29D81903359F48F81882311F46E
:10F6C0009EE11CC0813011F091E018C098E916C08D
:10F6D000892F807591F0903539F4E0E0F0E089E011
:10F6E0008093570094910AC0983539F4E3E0F0E034
:10F6F00089E080935700949101C090E01A821B82A8
:10F700008D818C831D829E831F8227E030E009C299
:10F710001A8288E08B8381E48C8386E58D8382E581
:10F720008E8389E48F8383E5888780E589878FE5E9
:10F730008A8782E38B872BE030E0F3C18A818139AD
:10F7400041F0823941F0803911F48FE005C080E04A
:10F7500003C082E001C08AE01A828B8344C0772410
:10F76000739482C08D81882311F48EE12CC0813086
:10F7700011F081E028C088E926C01A82E1E0F0E0BB
:10F7800089E08093570084918B831C8224E030E0D1
:10F79000C8C18B81803589F48C81883039F4E2E0EE
:10F7A000F0E089E08093570084910DC0E0E0F0E044
:10F7B00089E080935700849106C0E3E0F0E089E09F
:10F7C0008093570084911A82DFCF8D81836C99E0FA
:10F7D000E1E0F0E0082E90935700E89507B600FCB2
:10F7E000FDCF1A821B8223E030E09BC180EC8A832C
:10F7F000CE5CDE4F188219821A821B82C253D1401E
:10F800008EC18A8190E0A0E0B0E0582F44273327D2
:10F8100022278B8190E0A0E0B0E0DC0199278827C7
:10F82000282B392B4A2B5B2B8D8190E0A0E0B0E098
:10F83000282B392B4A2B5B2B8C8190E0A0E0B0E089
:10F84000BA2FA92F982F8827282B392B4A2B5B2BCF
:10F85000220F331F441F551FC05EDE4F288339839C
:10F860004A835B83C052D1401A8259C13A81C95C34
:10F87000DE4F3883C753D140CA5CDE4F1882C6536F
:10F88000D1408B81C82EDD24CA5CDE4F488159816E
:10F89000C653D140C42AD52A933109F082C0CE5C28
:10F8A000DE4F88819981AA81BB81C253D1408050AB
:10F8B000904CA340B04030F583E0CE5CDE4FE88052
:10F8C000F9800A811B81C253D140F70100935B008C
:10F8D00080935700E89507B600FCFDCFCE5CDE4F65
:10F8E000088119812A813B81C253D14000501F4FAA
:10F8F0002F4F3F4FCE5CDE4F088319832A833B8313
:10F90000C253D140C05EDE4F488159816A817B81FC
:10F91000C052D140DE011B9631E08C9111962C91A2
:10F9200011971296C75CDE4F2883C953D140C85C3B
:10F93000DE4F1882C853D14090E0C85CDE4FE881AA
:10F94000F981C853D1408E2B9F2B0C01FA01609393
:10F950005B0030935700E89511244E5F5F4F6F4F67
:10F960007F4F0EEFE02E0FEFF02ECE0CDF1CC114F8
:10F97000D10499F685E0C05EDE4F088119812A81A5
:10F980003B81C052D140F80120935B008093570027
:10F99000E89507B600FCFDCF81E180935700E8951C
:10F9A00035C0C05EDE4F88819981AA81BB81C0527B
:10F9B000D140B695A795979587957C018601ABE0D8
:10F9C000AA2EB12CAC0EBD1E0BC0D5016D915D01F0
:10F9D000C7010F947FFE0894E11CF11C01501040F8
:10F9E0000115110591F7A60160E070E0440F551F65
:10F9F000661F771FC05EDE4FE880F9800A811B8199
:10FA0000C052D1404E0D5F1D601F711F1A82C05E33
:10FA1000DE4F488359836A837B83C052D1407FC0C5
:10FA2000FA80C55CDE4FF882CB53D140C65CDE4F16
:10FA30001882CA53D1408B81C82EDD24C65CDE4FAC
:10FA400008811981CA53D140C02AD12A1A828981DA
:10FA5000BE016D5F7F4F843121F59601C05EDE4FA0
:10FA6000E880F9800A811B81C052D1400BBFF701A9
:10FA700087919691DB018C9311969C936E5F7F4FDB
:10FA8000D801C7010296A11DB11DC05EDE4F88835B
:10FA90009983AA83BB83C052D14022503040F1F6F3
:10FAA00036C0C05EDE4F288139814A815B81C052F9
:10FAB000D1400894C108D108760100E010E0089414
:10FAC000C11CD11C0894E11CF11C011D111DE20E8A
:10FAD000F31E041F151F21BDBB27A52F942F832FB5
:10FAE00082BD2F5F3F4F4F4F5F4FF89A80B5DB01CC
:10FAF0008D93BD012E153F054007510761F7C05E8C
:10FB0000DE4F288339834A835B83C052D1409601FC
:10FB10002D5F3F4FFB01108204C080EC8A8322E0FE
:10FB200030E08BE18093C6008091C00086FFFCCF5F
:10FB30008091C00080648093C000C15DDE4FF88179
:10FB4000CF52D140F093C6008091C00086FFFCCF19
:10FB50008091C00080648093C000432F3093C60022
:10FB60008091C00086FFFCCF8091C00080648093AC
:10FB7000C000922F2093C6008091C00086FFFCCF6A
:10FB80008091C00080648093C0008EE08093C600A6
:10FB90008091C00086FFFCCF8091C000806480937C
:10FBA000C00065E1C15DDE4FE880CF52D1406E25D7
:10FBB00069276427FE01319610C090819093C6009A
:10FBC0008091C00086FFFCCF31968091C000806498
:10FBD0008093C0006927215030402115310569F715
:10FBE0006093C6008091C00086FFFCCF8091C0006A
:10FBF00080648093C00085B1805885B9772081F4F6
:10FC0000C15DDE4F0881CF52D1400F5FC15DDE4F35
:10FC10000883CF52D14090E0A0E0B0E00D941AF4F8
:10FC200027982F9880E090E020ED37E0F901319798
:10FC3000F1F7019684369105C9F700008091C00064
:10FC40008D7F8093C00081E180935700E895EE2777
:10FC5000FF270994FFCF90E00D941AF497FB092E2B
:10FC600007260AD077FD04D02ED006D000201AF443
:10FC7000709561957F4F0895F6F7909581959F4F08
:10FC80000895A1E21A2EAA1BBB1BFD010DC0AA1FDD
:10FC9000BB1FEE1FFF1FA217B307E407F50720F0F5
:10FCA000A21BB30BE40BF50B661F771F881F991F70
:10FCB0001A9469F760957095809590959B01AC01B9
:10FCC000BD01CF010895AA1BBB1B51E107C0AA1FAC
:10FCD000BB1FA617B70710F0A61BB70B881F991FED
:10FCE0005A95A9F780959095BC01CD010895F99991
:10FCF000FECF92BD81BDF89A992780B50895262F31
:10FD0000F999FECF1FBA92BD81BD20BD0FB6F89400
:0EFD1000FA9AF99A0FBE01960895F894FFCF63
:00000001FF
