:100000000C942F010C9460010C9460010C9460011D
:100010000C9460010C9460010C9460010C946001DC
:100020000C9460010C9460010C9460010C946001CC
:100030000C9460010C9460010C9460010C946001BC
:100040000C9460010C9460010C9460010C946001AC
:100050000C9460010C9460010C9460010C940D03ED
:100060000C9460010C9460010C9460010C9460018C
:100070000C9460010C9460010C9460010C9460017C
:100080000C9460010C9460010C9460010C9460016C
:100090000C9460010C9460010C9460010C9460015C
:1000A0000C9460010C9460010C9460010C9460014C
:1000B0000C9460010C9460010C9460010C9460013C
:1000C0000C9460010C9460010C9460010C9460012C
:1000D0000C9460010C9460010C9460010C9460011C
:1000E0000C9460010C9413020C9458020C9454026A
:1000F0000C9440020C9428020C94FA020C943C02DA
:100100000C9453020C9438020C9419020C9433058D
:100110000C941D020C944A020C94B6020C944E02EC
:100120000C9446020C94F6020C9485020C94210265
:100130000C942E020C9425020C9432020000210033
:10014000240027002A002D003000330001010000A8
:10015000040107010A0100002200250028002B00ED
:100160002E003100340002010000050108010B01DE
:10017000000020002300260029002C002F00320060
:100180000001000003010601090105050505070539
:1001900008080808020202020A0A08080404040403
:1001A000010101010101010103030303030303032F
:1001B000040707070C0C0C0C0C0C0C0C02020202BE
:1001C00006060606060606060B0B0B0B0B0B0B0BA7
:1001D0000102102020080810204010204080020159
:1001E000020108040201010204081020408080403E
:1001F000201008040201800402018040201008043D
:1002000002010804020101020408102040800102DA
:1002100004081020408000000A0B02090C0D0E0893
:1002200007030401000000000000000000000000BF
:1002300000000000000000000000000000000000BE
:10024000000012111000000000000000000000007B
:100250000000000000000000000000003305112431
:100260001FBECFEFD1E2DEBFCDBF00E00CBF12E07A
:10027000A0E0B2E0E0E1FBE000E00BBF02C00790CD
:100280000D92A433B107D9F722E0A4E3B2E001C094
:100290001D92AE3AB207E1F711E0CFE2D1E000E003
:1002A00006C021970109802FFE010E947E05CE32F3
:1002B000D10780E00807A9F70E9457030C94860530
:1002C0000C94000096E0899FD0011124A15CBD4FE1
:1002D00090967C936E935F9791E091969C93919703
:1002E000E091AC02F091AD029091AB02992339F00C
:1002F000309751F0811108C080915B0219943097BA
:1003000019F05C968C91FACF0895CF92DF92EF921C
:10031000FF920F931F9396E0899FF0011124E15CF7
:10032000FD4F11A2278D30A12130310551F178F018
:100330002230310509F451C02330310509F452C08F
:100340001F910F91FF90EF90DF90CF90089566235B
:10035000B9F361E070E00E9462012FB7F8948091D8
:100360003B0290913C02A0913D02B0913E022FBF12
:100370008093970290939802A0939902B0939A0267
:10038000DFCF9FB7F894C0903B02D0903C02E09042
:100390003D02F0903E029FBF00919702109198029B
:1003A0002091990230919A02C01AD10AE20AF30A06
:1003B0000091A9021091AA0230E020E00C151D0561
:1003C0002E053F0550F462E070E01F910F91FF9001
:1003D000EF90DF90CF900C9462016111B1CF63E098
:1003E00070E0F3CF70E060E0F0CF8150823108F030
:1003F0005AC0E82FF0E08827EF5FFD4F8F4F0C9435
:100400007E0521022502130219021D025302280251
:100410002E02320238023C02400246024A025302D5
:100420004E0254025802809180008F7780938000A2
:100430000895809180008F7DF9CF80918000877F23
:10044000F5CF84B58F7784BD089584B58F7DFBCFBC
:100450008091B0008F778093B00008958091B000B4
:100460008F7DF9CF809190008F77809390000895D1
:10047000809190008F7DF9CF80919000877FF5CF9C
:100480008091A0008F778093A00008958091A000B4
:100490008F7DF9CF8091A000877FF5CF80912001DB
:1004A0008F77809320010895809120018F7DF9CF6F
:1004B00080912001877FF5CFCF93DF93282F30E005
:1004C000F901EA5EFD4F8491F901E053FE4FD491AA
:1004D000F901E657FE4FC491CC23A1F081110E948F
:1004E000F501EC2FF0E0EE0FFF1FE059FE4FA59154
:1004F000B491EC91ED2381E090E009F480E0DF918C
:10050000CF91089580E090E0FACF862F0C945C02A2
:100510001F93CF93DF93282F30E0F901EA5EFD4F60
:100520008491F901E053FE4FD491F901E657FE4F53
:10053000C491CC23A9F0162F81110E94F501EC2F54
:10054000F0E0EE0FFF1FEA5AFE4FA591B4918FB76E
:10055000F894EC91111108C0D095DE23DC938FBF85
:10056000DF91CF911F910895DE2BF8CF862F642F56
:100570000C948802CF93DF9390E0FC01E053FE4F90
:10058000249186579E4FFC0184918823C9F090E006
:10059000880F991FFC01E45CFE4FA591B491FC010A
:1005A000EA5AFE4FC591D49161110DC09FB7F894DE
:1005B0008C91209582238C938881282328839FBF48
:1005C000DF91CF910895623051F49FB7F8943C9138
:1005D000822F809583238C93E8812E2BEFCF8FB7CA
:1005E000F894EC912E2B2C938FBFEACF862F642F9B
:1005F0000C94BA02082E000C990BC0978A30910512
:1006000058F420915E0230915F022130310521F4CF
:1006100090933A028093390208951F920F920FB679
:100620000F9211242F933F938F939F93AF93BF9378
:1006300080913B0290913C02A0913D02B0913E021C
:100640003091380223E0230F2D3758F50196A11D74
:10065000B11D2093380280933B0290933C02A093FB
:100660003D02B0933E028091340290913502A091F8
:100670003602B09137020196A11DB11D809334025C
:1006800090933502A0933602B0933702BF91AF9199
:100690009F918F913F912F910F900FBE0F901F90C0
:1006A000189526E8230F0296A11DB11DD2CF78948C
:1006B00084B5826084BD84B5816084BD85B5826067
:1006C00085BD85B5816085BD80916E008160809318
:1006D0006E00109281008091810082608093810081
:1006E0008091810081608093810080918000816091
:1006F000809380008091B10084608093B1008091EC
:10070000B00081608093B0008091910082608093FE
:100710009100809191008160809391008091900080
:100720008160809390008091A10082608093A100FD
:100730008091A10081608093A1008091A0008160E0
:100740008093A0008091210182608093210180919B
:10075000210181608093210180912001816080933B
:10076000200180917A00846080937A0080917A00E1
:10077000826080937A0080917A00816080937A0011
:1007800080917A00806880937A001092C100C2E262
:10079000D2E08881229661E00E94BA0252E0C4331E
:1007A000D507B9F78AEF92E09093AD028093AC023F
:1007B000812C912C5401839444244A94542C50E06D
:1007C000652E50E0752E02E212E0D0E0C0E0F801A4
:1007D00080810E5F1F4F61E02091390230913A0213
:1007E000C217D3070CF060E00E9488022196C9303E
:1007F000D10569F7F1E0F093AB028FB7F89440911F
:100800003B0250913C0260913D0270913E028FBFCD
:1008100080919B0290919C02A0919D02B0919E02BA
:10082000481B590B6A0B7B0B8091A7029091A80281
:10083000B0E0A0E0C0E084179507A607B70748F02E
:100840001092AB026114710409F4BDCF0E94000044
:10085000BACF8091A502C81760F4E091A102F0918F
:10086000A202EC0FF11D62E080810E94BA02CF5F0C
:10087000F0CF312C8091A602381608F05FC0032D0E
:1008800010E0E091A302F091A402E00FF11F61E0FB
:1008900080810E94BA02E091A302F091A402E00FCD
:1008A000F11F60E080810E948802D501C401032C01
:1008B00004C0880F991FAA1FBB1F0A94D2F76C01AE
:1008C0007C01E094F094212C8091A5022816F8F484
:1008D000C22DD0E0E091A102F091A202EC0FFD1F29
:1008E00080810E945C022496CC0FDD1FC15CDD4F2D
:1008F000892B41F4888199818C299D29998388834A
:100900002394E2CF888199818E219F21F7CFE091B6
:10091000A302F091A402E00FF11F61E080810E9428
:1009200088028091A3029091A402080F191F60E031
:10093000F80180810E94BA0233949CCFCFE3D2E0C9
:10094000FE01878D90A1892B21F4148E568E458E41
:1009500011A2369652E0EB37F50799F7F12C80910A
:10096000A502F81608F051C0E12C0F2D10E0000F81
:10097000111F095B1D4F2091A602E21608F043C02B
:10098000F801608171810E2C02C0769567950A94FA
:10099000E2F7F29E900111242E0D311DEFE3F2E0FB
:1009A00080E0458D568D2417350709F45AC08F5FB6
:1009B00036968A30B1F760FF24C0EFE3F2E090E0B2
:1009C00080E0448D411118C0E0919F02F091A00297
:1009D000E20FF31F408156E0589FF001599FF00D40
:1009E0001124E15CFD4F448F368F258F10A2178EA6
:1009F00061E00E94850105C0019636968A30910516
:100A000001F7E394B8CFF394AACF80E099A19111B4
:100A1000892F269692E0CB37D907C1F79FB7F89474
:100A200040913B0250913C0260913D0270913E0228
:100A30009FBF40939B0250939C0260939D027093D2
:100A40009E02882309F4FCCE80916002882309F479
:100A5000F7CE80915E0290915F02019709F0F0CE8F
:100A6000F1CE6170C6CF10924102109245021092F1
:100A70004402109246028CE192E0909340028093EF
:100A80003F02EBE5F2E01082148213821582369663
:100A900082E0E739F807B9F784E092E09093A20288
:100AA0008093A10280E092E09093A4028093A3023D
:100AB00084E08093A5028093A60288E092E0909360
:100AC000A00280939F028AE090E09093A802809316
:100AD000A70284EF91E09093AA028093A90210925A
:100AE000AD021092AC0210929B0210929C021092E6
:100AF0009D0210929E021092AB020895EE0FFF1F0E
:100B0000881F8BBF0790F691E02D1994F894FFCFC2
:100B10001A1B1C1D161718193738392F3435362A69
:100B20003132332D43303D2B00000000F602B60277
:100B300085023E003A003B003C003D003900380091
:040B40003700360044
:00000001FF
