:100000000C9428010C9459010C9459010C94590139
:100010000C9459010C9459010C9459010C945901F8
:100020000C9459010C9459010C9459010C945901E8
:100030000C9459010C9459010C9459010C945901D8
:100040000C9459010C9449050C9459010C945901D4
:100050000C9459010C9459010C9459010C941504F9
:100060000C9459010C9459010C9459010C945901A8
:100070000C9459010C9459010C9459010C94590198
:100080000C941B050C9459010C9459010C945901C2
:100090000C9459010C9459010C9459010C94590178
:1000A0000C9459010C9459010C94ED040C945901D1
:1000B0000C9459010C9459010C9459010C94BF04EF
:1000C0000C9459010C9459010C9459010C94890415
:1000D0000C945F040C9459010C9459010C9459012F
:1000E0000C9459010C94F9010C9443030C94FF02F5
:1000F0000C9435030C943D030C941E030C9447039D
:100100000C9497010C9477050C945B010C945103AB
:100110000C9455030C947E020C942B030C942F0327
:100120000C9431020C9439030C9425030C941A039B
:100130000C9488010C9416030C94AB010C940403EA
:100140000C944B030C94220300000A0B02090C0DC3
:100150000E0807030401000000000000000000007A
:10016000000000000000000000000000000000008F
:10017000000000001211100000000000000000004C
:10018000000000000000000000000000000000006F
:100190002200250028002B002E003100340002012F
:1001A0000000050108010B010000210024002700C8
:1001B0002A002D0030003300010100000401070176
:1001C0000A010505050507050808080802020202DC
:1001D0000A0A0808040404040101010101010101E3
:1001E0000303030303030303040707070C0C0C0CAE
:1001F0000C0C0C0C02020202060606060606060697
:100200000B0B0B0B0B0B0B0B010210202008081023
:100210002040102040800201020108040201010276
:10022000040810204080804020100804020180044F
:1002300002018040201008040201080402010102AA
:100240000408102040800102040810204080770537
:1002500011241FBECFEFD1E2DEBFCDBF00E00CBF47
:1002600012E0A0E0B2E0E6E3F2E100E00BBF02C082
:1002700007900D92A831B107D9F723E0A8E1B2E0C9
:1002800001C01D92A635B207E1F711E0C8E2D1E046
:1002900000E006C021970109802FFE010E94F608A8
:1002A000C732D10780E00807A9F70E94D4050C9453
:1002B00019090C940000AF92BF92CF92DF92EF9297
:1002C000FF920F931F93CF93DF936C017B018B0100
:1002D000040F151FEB015E01AE18BF08C017D10750
:1002E00059F06991D601ED91FC910190F081E02DDA
:1002F000C6011995892B79F7C501DF91CF911F911F
:100300000F91FF90EF90DF90CF90BF90AF90089546
:10031000FC01538D448D252F30E0842F90E0821B0B
:10032000930B541710F0CF96089501970895FC0190
:10033000918D828D981761F0A28DAE0FBF2FB11DE8
:100340005D968C91928D9F5F9F73928F90E0089540
:100350008FEF9FEF0895FC01918D828D981731F0FA
:10036000828DE80FF11D858D90E008958FEF9FEF4E
:1003700008952FB7F8948091210290912202A091C4
:100380002302B09124022FBF80932D0290932E025E
:10039000A0932F02B093300285E292E00E94AB015D
:1003A00097FF26C02FB7F8948091210290912202E6
:1003B000A0912302B09124022FBF40912D025091B1
:1003C0002E0260912F0270913002841B950BA60BB8
:1003D000B70B4091290250912A0260912B02709133
:1003E0002C0284179507A607B707B0F28FEF9FEF8F
:1003F0000895FC01918D228D892F90E0805C9F4FA4
:10040000821B91098F739927089585E292E00E94DB
:10041000F90121E0892B09F420E0822F0895FC01E5
:10042000A48DA80FB92FB11DA35ABF4F2C91848D55
:1004300090E001968F739927848FA689B7892C93B2
:10044000A089B1898C91837080648C93938D848D05
:10045000981306C00288F389E02D80818F7D808308
:100460000895EF92FF920F931F93CF93DF93EC01C8
:1004700081E0888F9B8D8C8D98131AC0E889F9894B
:10048000808185FF15C09FB7F894EE89FF8960834E
:10049000E889F98980818370806480839FBF81E0CF
:1004A00090E0DF91CF911F910F91FF90EF90089511
:1004B000F62E0B8D10E00F5F1F4F0F731127E02EEC
:1004C0008C8D8E110CC00FB607FCFACFE889F98924
:1004D000808185FFF5CFCE010E940F02F1CFEB8D19
:1004E000EC0FFD2FF11DE35AFF4FF0829FB7F894F8
:1004F0000B8FEA89FB8980818062CFCFCF93DF9316
:10050000EC01888D8823B9F0AA89BB89E889F9892B
:100510008C9185FD03C0808186FD0DC00FB607FC60
:10052000F7CF8C9185FFF2CF808185FFEDCFCE0193
:100530000E940F02E9CFDF91CF91089580E090E013
:10054000892B49F080E090E0892B29F00E9400007F
:1005500081110E94000080E090E0892B49F080E04A
:1005600090E0892B29F00E94000081110E94000078
:1005700080E090E0892B29F00E94050281110E9401
:10058000000080E090E0892B49F080E090E0892B2A
:1005900029F00E94000081110C9400000895282F7A
:1005A00030E0F901E85BFE4F9491F901E85FFD4FFF
:1005B00044912E533E4FF9012491222309F435C072
:1005C000992311F191509231F8F4E92FF0E0882746
:1005D000E351FD4F8F4F0C94F6081E032203FF02D8
:1005E00016031A03040325032B032F0335033903D2
:1005F0003D034303470304034B0351035503809119
:1006000080008F7780938000E22FF0E0EE0FFF1FD5
:10061000E257FE4FA591B4918FB7F894EC91611118
:1006200048C040954E234C938FBF08958091800021
:100630008F7DE8CF80918000877FE4CF84B58F776E
:1006400084BDE2CF84B58F7DFBCF8091B0008F77E2
:100650008093B000D9CF8091B0008F7DF9CF809189
:1006600090008F7780939000CFCF809190008F7D06
:10067000F9CF80919000877FF5CF8091A0008F7790
:100680008093A000C1CF8091A0008F7DF9CF809191
:10069000A000877FF5CF809120018F778093200184
:1006A000B3CF809120018F7DF9CF80912001877F8A
:1006B000F5CF4E2BB8CFAF92BF92CF92DF92EF9291
:1006C000FF920F931F93CF93DF936B017A01EC019D
:1006D000C85EDD4F28813CE0389F8001399F100DB6
:1006E0001124A0905203B12C27FF1FC0FB011182DF
:1006F000108288818F5F888388819801280F311D3F
:1007000087FD3A95F6012A153B051CF488818C304B
:10071000C4F180819181049680349C4908F473C0AF
:10072000F60180819181049670C088819801280F1C
:10073000311D87FD3A952A153B05DCF68881A80115
:10074000480F511D87FD5A95FA01EE0FFF1FE40F68
:10075000F51FEE53FD4F808186FFCBCF8881F801D6
:10076000E80FF11D87FDFA95CF01EE0FFF1FE80F8F
:10077000F91FEE53FD4F808160E08F730E94CF021E
:10078000B8CF808191812881A801420F511D27FD9A
:100790005A959A01FA01EE0FFF1FE20FF31FEE5375
:1007A000FD4F21813281820F931FF7019183808356
:1007B00088819801280F311D87FD3A95F901EE0FC8
:1007C000FF1FE20FF31FEE53FD4F808186FF22C013
:1007D0008881080F111D87FD1A95F801EE0FFF1F84
:1007E000E00FF11FEE53FD4F808161E08F73DF91C9
:1007F000CF911F910F91FF90EF90DF90CF90BF901E
:10080000AF900C94CF0280E49CE9F7019183808340
:100810008FEF8883DF91CF911F910F91FF90EF9021
:10082000DF90CF90BF90AF9008951F920F920FB6B8
:100830000F9211242F933F938F939F93AF93BF9366
:100840008091210290912202A0912302B091240272
:100850003091200223E0230F2D3758F50196A11D7A
:10086000B11D209320028093210290932202A09335
:100870002302B093240280911C0290911D02A0914A
:100880001E02B0911F020196A11DB11D80931C0292
:1008900090931D02A0931E02B0931F02BF91AF91CF
:1008A0009F918F913F912F910F900FBE0F901F90AE
:1008B000189526E8230F0296A11DB11DD2CF1F92D5
:1008C0000F920FB60F9211240BB60F922F933F93F6
:1008D0004F935F936F937F938F939F93AF93BF9348
:1008E000EF93FF9385E292E00E940F02FF91EF9158
:1008F000BF91AF919F918F917F916F915F914F9138
:100900003F912F910F900BBE0F900FBE0F901F9035
:1009100018951F920F920FB60F9211240BB60F92DB
:100920002F938F939F93EF93FF93E0913502F09174
:1009300036028081E0913B02F0913C0282FD1DC0B5
:10094000908180913E028F5F8F7320913F028217CA
:1009500041F0E0913E02F0E0EB5DFD4F958F80931A
:100960003E02FF91EF919F918F912F910F900BBEBF
:100970000F900FBE0F901F9018958081F2CF1F929D
:100980000F920FB60F9211240BB60F922F933F9335
:100990004F935F936F937F938F939F93AF93BF9387
:1009A000EF93FF9348E251E064E271E090E080E071
:1009B0000E945B03FF91EF91BF91AF919F918F9147
:1009C0007F916F915F914F913F912F910F900BBE4F
:1009D0000F900FBE0F901F9018951F920F920FB699
:1009E0000F9211240BB60F922F933F934F935F9367
:1009F0006F937F938F939F93AF93BF93EF93FF93E7
:100A000048EA50E064EA70E083E090E00E945B0313
:100A1000FF91EF91BF91AF919F918F917F916F91D6
:100A20005F914F913F912F910F900BBE0F900FBE92
:100A30000F901F9018951F920F920FB60F921124CE
:100A40000BB60F922F933F934F935F936F937F93C8
:100A50008F939F93AF93BF93EF93FF9348E950E039
:100A600064E970E082E090E00E945B03FF91EF9107
:100A7000BF91AF919F918F917F916F915F914F91B6
:100A80003F912F910F900BBE0F900FBE0F901F90B4
:100A900018951F920F920FB60F9211240BB60F925A
:100AA0002F933F934F935F936F937F938F939F9376
:100AB000AF93BF93EF93FF9348E850E064E870E092
:100AC00081E090E00E945B03FF91EF91BF91AF91B5
:100AD0009F918F917F916F915F914F913F912F9156
:100AE0000F900BBE0F900FBE0F901F901895109295
:100AF00028021092270288EE93E0A0E0B0E08093F5
:100B0000290290932A02A0932B02B0932C0286E034
:100B100092E0909326028093250285ED90E09093D9
:100B200032028093310284ED90E0909334028093FE
:100B3000330280ED90E0909336028093350281ED90
:100B400090E0909338028093370282ED90E090938A
:100B50003A028093390286ED90E090933C028093B4
:100B60003B0210923E0210923F02109240021092FD
:100B7000410280915203803398F491E0980F909352
:100B800052038093530390E0FC01EE0FFF1FE80F28
:100B9000F91FEE53FD4F88EB9BE09283818308950C
:100BA0008FEF809353030895CF93DF93CDB7DEB7D4
:100BB000A3970FB6F894DEBF0FBECDBF789484B56F
:100BC000826084BD84B5816084BD85B5826085BD49
:100BD00085B5816085BD80916E00816080936E00D7
:100BE00010928100809181008260809381008091C9
:100BF000810081608093810080918000816080937A
:100C000080008091B10084608093B1008091B00039
:100C100081608093B0008091910082608093910008
:100C2000809191008160809391008091900081601B
:100C3000809390008091A10082608093A1008091B8
:100C4000A10081608093A1008091A00081608093C9
:100C5000A000809121018260809321018091210177
:100C60008160809321018091200181608093200127
:100C700080917A00846080937A0080917A0082600B
:100C800080937A0080917A00816080937A008091CD
:100C90007A00806880937A001092C100809153039B
:100CA000803308F069C0E5E1F2E02491EFECF1E077
:100CB0008491882399F090E0880F991FFC01E855F2
:100CC000FE4FA591B491FC01E257FE4F859194919E
:100CD0008FB7F894EC91E22BEC938FBF8091530384
:100CE000282F30E0F901EE0FFF1FE20FF31FEE5344
:100CF000FD4F9081907C9D609083109254031092E0
:100D000055032CE0622F0E94D608829FB001112467
:100D100030E020E0AB01420F531FFA01EE0FFF1F3E
:100D2000E40FF51FEE53FD4F908196FD17C02F5F26
:100D30003F4F2C30310571F7813009F07AC01092A5
:100D4000800082E0809381001092850010928400E0
:100D5000B19A80916F00826080936F00E09153039D
:100D60008E2F90E0FC01EE0FFF1FE80FF91FEE53EE
:100D7000FD4F808180648083E0913502F0913602DE
:100D800082E08083E0913102F09132021082E091A2
:100D90003302F09134028FEC808310923D02E09197
:100DA0003902F0913A0286E08083E0913702F091B7
:100DB0003802808180618083E0913702F0913802AF
:100DC000808188608083E0913702F09138028081D1
:100DD00080688083E0913702F091380280818F7DB6
:100DE0008083A8E6EA2EFF24F394BAE08B2E912CA0
:100DF000A12CB12C18E8212E312C08E5C02E02E0E0
:100E0000D02E85E292E00E94F901181619060CF026
:100E1000C8C00E94B901FC0197FD4BC18D329105FC
:100E2000A1F1C0970A9788F185E292E00E949701AC
:100E3000F0CF823061F41092900080939100109274
:100E400095001092940088BB8093710087CF833007
:100E500069F41092A00082E08093A1001092A50096
:100E60001092A40089BB8093720078CF811176CF55
:100E70001092200182E080932101109225011092AE
:100E800024018ABB8093730069CF412C512C32011D
:100E900010E0E130F105D9F0ED32F10509F407C1B8
:100EA000CF01C0970A9798F4AAE0B0E0A30192019D
:100EB0000E9492082F01FF0F66087708460E571E02
:100EC000681E791E20E3421A51086108710885E204
:100ED00092E00E9497010E94B901FC01C0970A9715
:100EE000C0F2E130F105A9F2112341F07094609451
:100EF00050944094411C511C611C711C5BA24AA27D
:100F0000052C000C6608770877FED7C06DE285E2F5
:100F100092E00E94310222273327A90124193509C2
:100F20004609570919A28E010F5D1F4FCA01B90169
:100F3000A50194010E94A508605DF80162938F01EC
:100F4000211531054105510589F70115110561F09C
:100F500001900020E9F73197AF01401B510BB80118
:100F600085E292E00E945B0142E050E064E172E0C1
:100F700085E292E00E945B01C7012AA13BA1821B8E
:100F8000930BB7010E94E208209100023091010208
:100F9000820F931FB7010E94E20890930102809391
:100FA0000002A0910002B091010224EB30E00E9407
:100FB000FE0828E631E040E050E00E947308C901D5
:100FC000A901403232E05307E4F520915403A10116
:100FD000421B510927FD53959A01220F331F220FFF
:100FE000331F2901330F6608770820915503B60196
:100FF000621B710927FD73959B01220F331F220F7E
:10100000331F032E000C440B550B241935094609D8
:101010005709DC01853B910514F0A4EBB0E0B7FF64
:1010200002C0B0E0A0E00E949D0824EB30E040E068
:1010300050E00E947308BA01A901440D551D661DB8
:10104000771D20915303203378F580915403F101EB
:10105000E81BF10987FDF395CF01880F991F880FD1
:10106000991F4817590784F080915503B601681BF2
:10107000710987FD7395CB01880F991F880F991F00
:10108000481759070CF4CA010297880F991F4FB7E8
:10109000F89430E0F901EE0FFF1FE20FF31FEE535B
:1010A000FD4F928381834FBF0E949E02AACE11E022
:1010B0000ECF412C512C320121CFA301920119A254
:1010C0008E010F5D1F4FCA01B901A50194010E9455
:1010D000A508605DF80162938F0121153105410576
:1010E000510589F732CF052E97FB1EF400940E941C
:1010F0008A0857FD07D00E94A50807FC03D04EF4CC
:101100000C948A0850954095309521953F4F4F4F4C
:101110005F4F089590958095709561957F4F8F4FA3
:101120009F4F08950E94C708A59F900DB49F900DF2
:10113000A49F800D911D11240895B7FF0C9492086F
:101140000E949208821B930B0895A1E21A2EAA1BFB
:10115000BB1BFD010DC0AA1FBB1FEE1FFF1FA21767
:10116000B307E407F50720F0A21BB30BE40BF50B64
:10117000661F771F881F991F1A9469F760957095ED
:10118000809590959B01AC01BD01CF010895A29F70
:10119000B001B39FC001A39F700D811D1124911D4B
:1011A000B29F700D811D1124911D0895991B79E046
:1011B00004C0991F961708F0961B881F7A95C9F7E7
:1011C0008095089597FB072E16F4009407D077FDBD
:1011D00009D00E94050907FC05D03EF49095819541
:1011E0009F4F0895709561957F4F0895EE0FFF1FF3
:1011F000881F8BBF0790F691E02D19940E94C708B5
:10120000B7FF0895821B930B0895AA1BBB1B51E1E6
:1012100007C0AA1FBB1FA617B70710F0A61BB70B66
:10122000881F991F5A95A9F780959095BC01CD010B
:061230000895F894FFCFC1
:10123600B4000000000031025B0188017E02F90162
:081246009701AB010D0A000045
:00000001FF
