:100000000C942B010C945C010C945C010C945C012D
:100010000C945C010C945C010C945C010C945C01EC
:100020000C945C010C945C010C945C010C945C01DC
:100030000C945C010C945C010C945C010C945C01CC
:100040000C945C010C945C010C945C010C945C01BC
:100050000C945C010C945C010C945C010C94C20344
:100060000C945C010C945C010C945C010C945C019C
:100070000C945C010C945C010C945C010C945C018C
:100080000C945C010C945C010C945C010C945C017C
:100090000C945C010C945C010C945C010C945C016C
:1000A0000C945C010C945C010C945C010C945C015C
:1000B0000C945C010C945C010C945C010C945C014C
:1000C0000C945C010C945C010C945C010C948C030A
:1000D0000C9462030C945C010C945C010C945C0124
:1000E0000C945C010C940D030C9429030C94B9013D
:1000F0000C9400030C9417030C9413020C94F80254
:100100000C9411030C94E1020C941F030C94330320
:100110000C94CD010C9437030C94D2050C94DB01A4
:100120000C9407030C941B030C94E6020C94AA0194
:100130000C947D010C94FC020C9460020C94250339
:100140000C942D030C9404030C940C0400000A0B73
:1001500002090C0D0E080703040100000000000056
:10016000000000000000000000000000000000008F
:10017000000000000000000012111000000000004C
:10018000000000000000000000000000000000006F
:10019000000000002200250028002B002E00310066
:1001A000340002010000050108010B0100002100DC
:1001B000240027002A002D00300033000101000038
:1001C000040107010A0105050505070508080808D7
:1001D000020202020A0A08080404040401010101DF
:1001E00001010101030303030303030304070707DA
:1001F0000C0C0C0C0C0C0C0C02020202060606067F
:10020000060606060B0B0B0B0B0B0B0B010210204B
:10021000200808102040102040800201020108043C
:1002200002010102040810204080804020100804D0
:100230000201800402018040201008040201080429
:10024000020101020408102040800102040810206D
:1002500040800C04D20511241FBECFEFD1E2DEBFD7
:10026000CDBF00E00CBF22E0AAE2B2E001C01D92C7
:10027000AD3DB207E1F712E0A0E0B2E0E6E1F0E167
:1002800000E00BBF02C007900D92AA32B107D9F768
:1002900011E0CAE2D1E000E006C021970109802FF9
:1002A000FE010E94DB05C932D10780E00807A9F7EB
:1002B0000E9497040C94F9070C94000090E0FC0154
:1002C000E45FFD4F24918A539E4FFC018491882363
:1002D00099F090E0880F991FFC01E455FE4FA5911D
:1002E000B491FC01EE56FE4F859194918FB7F8942E
:1002F000EC91E22BEC938FBF0895AF92BF92CF9217
:10030000DF92EF92FF920F931F93CF93DF936C01D5
:100310007B018B01040F151FEB015E01AE18BF08B6
:10032000C017D10759F06991D601ED91FC91019068
:10033000F081E02DC6011995892B79F7C501DF9170
:10034000CF911F910F91FF90EF90DF90CF90BF90D2
:10035000AF900895FC01538D448D252F30E0842FFC
:1003600090E0821B930B541710F0CF9608950197DD
:100370000895FC01918D828D981761F0A28DAE0FCA
:10038000BF2FB11D5D968C91928D9F5F9F73928F51
:1003900090E008958FEF9FEF0895FC01918D828D7D
:1003A000981731F0828DE80FF11D858D90E008954A
:1003B0008FEF9FEF0895FC01918D228D892F90E0A2
:1003C000805C9F4F821B91098F739927089586E364
:1003D00092E00E94DB0121E0892B09F420E0822FCA
:1003E0000895FC01A48DA80FB92FB11DA35ABF4FCA
:1003F0002C91848D90E001968F739927848FA68924
:10040000B7892C93A089B1898C91837080648C9377
:10041000938D848D981306C00288F389E02D808126
:100420008F7D80830895EF92FF920F931F93CF9358
:10043000DF93EC0181E0888F9B8D8C8D98131AC01F
:10044000E889F989808185FF15C09FB7F894EE8906
:10045000FF896083E889F989808183708064808363
:100460009FBF81E090E0DF91CF911F910F91FF90AE
:10047000EF900895F62E0B8D10E00F5F1F4F0F7356
:100480001127E02E8C8D8E110CC00FB607FCFACF11
:10049000E889F989808185FFF5CFCE010E94F101BD
:1004A000F1CFEB8DEC0FFD2FF11DE35AFF4FF082E2
:1004B0009FB7F8940B8FEA89FB8980818062CFCF48
:1004C000CF93DF93EC01888D8823B9F0AA89BB898B
:1004D000E889F9898C9185FD03C0808186FD0DC076
:1004E0000FB607FCF7CF8C9185FFF2CF808185FF97
:1004F000EDCFCE010E94F101E9CFDF91CF910895B8
:1005000080E090E0892B49F080E090E0892B29F091
:100510000E94000081110E94000080E090E0892B81
:1005200049F080E090E0892B29F00E9400008111C1
:100530000E94000080E090E0892B29F00E94E701F2
:1005400081110E94000080E090E0892B49F080E05A
:1005500090E0892B29F00E94000081110C9400008A
:100560000895282F30E0F901E45BFE4F9491F901E2
:10057000E45FFD4F44912A533E4FF9012491222319
:1005800009F435C0992311F191509231F8F4E92F13
:10059000F0E08827E153FD4F8F4F0C94DB050003FB
:1005A0000403E102F802FC02E60207030D03110353
:1005B00017031B031F0325032903E6022D0333033F
:1005C0003703809180008F7780938000E22FF0E0E6
:1005D000EE0FFF1FEE56FE4FA591B4918FB7F89422
:1005E000EC91611148C040954E234C938FBF089504
:1005F000809180008F7DE8CF80918000877FE4CF5D
:1006000084B58F7784BDE2CF84B58F7DFBCF809199
:10061000B0008F778093B000D9CF8091B0008F7DEC
:10062000F9CF809190008F7780939000CFCF809109
:1006300090008F7DF9CF80919000877FF5CF8091DA
:10064000A0008F778093A000C1CF8091A0008F7D04
:10065000F9CF8091A000877FF5CF809120018F771F
:1006600080932001B3CF809120018F7DF9CF8091BD
:100670002001877FF5CF4E2BB8CF3FB7F8948091FC
:100680002F0290913002A0913102B091320226B532
:10069000A89B05C02F3F19F00196A11DB11D3FBFBA
:1006A000BA2FA92F982F8827BC01CD01620F711D89
:1006B000811D911D42E0660F771F881F991F4A9583
:1006C000D1F708951F920F920FB60F9211240BB617
:1006D0000F922F933F934F935F936F937F938F93DB
:1006E0009F93AF93BF93EF93FF9386E392E00E94B3
:1006F000F101FF91EF91BF91AF919F918F917F9108
:100700006F915F914F913F912F910F900BBE0F9082
:100710000FBE0F901F9018951F920F920FB60F9259
:1007200011240BB60F922F938F939F93EF93FF9308
:10073000E0914602F09147028081E0914C02F091F5
:100740004D0282FD1DC0908180914F028F5F8F739B
:1007500020915002821741F0E0914F02F0E0EA5CF4
:10076000FD4F958F80934F02FF91EF919F918F9155
:100770002F910F900BBE0F900FBE0F901F901895EA
:100780008081F2CF1F920F920FB60F9211242F93F8
:100790003F938F939F93AF93BF9380912B02909140
:1007A0002C02A0912D02B0912E0230912A0223E05A
:1007B000230F2D3758F50196A11DB11D20932A0254
:1007C00080932B0290932C02A0932D02B0932E02C3
:1007D00080912F0290913002A0913102B0913202AB
:1007E0000196A11DB11D80932F0290933002A0931A
:1007F0003102B0933202BF91AF919F918F913F919F
:100800002F910F900FBE0F901F90189526E8230F81
:100810000296A11DB11DD2CF10923902109238025A
:1008200088EE93E0A0E0B0E080933A0290933B0220
:10083000A0933C02B0933D028AE092E0909337028D
:100840008093360285ED90E09093430280934202BC
:1008500084ED90E0909345028093440280ED90E017
:10086000909347028093460281ED90E09093490275
:100870008093480282ED90E090934B0280934A026D
:1008800086ED90E090934D0280934C0210924F02BF
:100890001092500210925102109252021092D40201
:1008A0001092D3021092D6021092D5021092D80262
:1008B0001092D70262E170E090E080E00E940807A9
:1008C000009701F19093D4028093D30221E130E0AC
:1008D0003093D6022093D5022091D7023091D802CE
:1008E000232B11F4FC01108281E190E09093D80257
:1008F0008093D70268E172E08091D3029091D40294
:100900000C94F2078091D3029091D402009711F0D9
:100910000E947F061092D4021092D3021092D80245
:100920001092D7021092D6021092D50208957894B0
:1009300084B5826084BD84B5816084BD85B58260E4
:1009400085BD85B5816085BD80916E008160809395
:100950006E001092810080918100826080938100FE
:10096000809181008160809381008091800081600E
:10097000809380008091B10084608093B100809169
:10098000B00081608093B00080919100826080937C
:1009900091008091910081608093910080919000FE
:1009A0008160809390008091A10082608093A1007B
:1009B0008091A10081608093A1008091A00081605E
:1009C0008093A00080912101826080932101809119
:1009D00021018160809321018091200181608093B9
:1009E000200180917A00846080937A0080917A005F
:1009F000826080937A0080917A00816080937A008F
:100A000080917A00806880937A001092C100E09112
:100A10004602F091470282E08083E0914202F09129
:100A200043021082E0914402F09145028FEC8083F2
:100A300010924E02E0914A02F0914B0286E08083D0
:100A4000E0914802F0914902808180618083E091C9
:100A50004802F0914902808188608083E0914802D9
:100A6000F0914902808180688083E0914802F09192
:100A7000490280818F7D808386E10E945E01CFB72D
:100A8000F89480913302811124C0EBEFF1E084915E
:100A9000E1E4F2E09491E82FF0E0EE0FFF1FE4555F
:100AA000FE4FA591B491EC91E92321F461E085E337
:100AB0000E94B10285E30E945E018CB580618CBD0D
:100AC0008CB580648CBD84E30E945E0183E30E9448
:100AD0005E01809133028F5F80933302CFBF8CB56C
:100AE0008C7F8CBD8DB58E7F8DBD61E086E10E94CF
:100AF000B102CBE4D0E060E086E10E94B10290E078
:100B000080E02091D7023091D80282179307F0F449
:100B10002091D3023091D40221153105A9F0280F7C
:100B2000391FF901208120933502209135022EBD15
:100B300000000DB407FEFDCF2EB520933402FE0158
:100B40003197F1F70196DDCF20E0EDCF61E086E14E
:100B50000E94B1020E943D036B017C0188EE882E49
:100B600083E0982EA12CB12C0E943D036C197D09C5
:100B70008E099F09683E734081059105A8F3F1E055
:100B80008F1A9108A108B10828EEC20E23E0D21EE8
:100B9000E11CF11C81149104A104B10429F70E9405
:100BA0008002A9CF8091D3029091D402009711F0D6
:100BB0000C947F060895EE0FFF1F881F8BBF0790D0
:100BC000F691E02D19940F931F93CF93DF9382300A
:100BD000910510F482E090E0E091DB02F091DC02FC
:100BE00030E020E0B0E0A0E0309799F42115310525
:100BF00009F44AC0281B390B24303105D8F58A8105
:100C00009B816115710589F1FB0193838283FE014C
:100C100011C0408151810281138148175907E0F0CA
:100C20004817590799F4109761F012960C93129790
:100C300013961C933296CF01DF91CF911F910F91A4
:100C400008950093DB021093DC02F4CF21153105E7
:100C500051F04217530738F0A901DB019A01BD0199
:100C6000DF01F801C1CFEF01F9CF9093DC0280934F
:100C7000DB02CDCFFE01E20FF31F8193919322504F
:100C8000310939832883D7CF2091D9023091DA02F4
:100C9000232B41F420910202309103023093DA02B7
:100CA0002093D902209100023091010221153105D3
:100CB00041F42DB73EB74091040250910502241B28
:100CC000350BE091D902F091DA02E217F307A0F4B4
:100CD0002E1B3F0B2817390778F0AC014E5F5F4F92
:100CE0002417350748F04E0F5F1F5093DA024093E8
:100CF000D902819391939FCFF0E0E0E09CCFCF9316
:100D0000DF930097E9F0FC01329713821282A091E1
:100D1000DB02B091DC02ED0130E020E01097A1F49D
:100D200020813181820F931F2091D9023091DA0204
:100D30002817390709F061C0F093DA02E093D9026D
:100D4000DF91CF910895EA01CE17DF07E8F54A81D8
:100D50005B819E0141155105B1F7E901FB83EA83EF
:100D600049915991C40FD51FEC17FD0761F480819B
:100D700091810296840F951FE9019983888382816E
:100D800093819B838A83F0E0E0E012968D919C91A1
:100D900013970097B9F52D913C911197CD010296CB
:100DA000820F931F2091D9023091DA022817390758
:100DB00039F6309751F51092DC021092DB02B093B5
:100DC000DA02A093D902BCCFD383C2834081518180
:100DD000840F951FC817D90761F44E5F5F4F888154
:100DE0009981480F591F518340838A819B81938346
:100DF00082832115310509F0B0CFF093DC02E09336
:100E0000DB029ECFFD01DC01C0CF13821282D7CF5F
:100E10004F925F926F927F928F929F92AF92BF920A
:100E2000CF92DF92EF92FF920F931F93CF93DF93B6
:100E30008C01009799F4CB01DF91CF911F910F9115
:100E4000FF90EF90DF90CF90BF90AF909F908F90EA
:100E50007F906F905F904F900C94E305FC01E60F3C
:100E6000F71F9C0122503109E217F30708F4AEC0C6
:100E7000D901CD91DC911197C617D70720F1C53064
:100E8000D10578F0CE0104978617970750F0C61B5E
:100E9000D70B2297C193D1936D937C93CF010E947E
:100EA0007F06C801DF91CF911F910F91FF90EF90C6
:100EB000DF90CF90BF90AF909F908F907F906F907A
:100EC0005F904F9008955B01AC1ABD0A4C018C0EE7
:100ED0009D1EA091DB02B091DC02512C412CF12C23
:100EE000E12C109731F58091D9029091DA028815A2
:100EF000990509F05CC04616570608F058C0809165
:100F0000000290910102009741F48DB79EB7409185
:100F1000040250910502841B950BE817F90708F0AD
:100F200055C0F093DA02E093D902F901718360832E
:100F3000B8CF8D919C91119712966C901297139641
:100F40007C901397A815B90559F56C0142E0C40EC1
:100F5000D11CCA14DB0420F1AC014A195B09DA0187
:100F60001296159780F06282738251834083D90173
:100F70006D937C93E114F10471F0D7011396FC9307
:100F8000EE9312978ECF22968C0F9D1FF9019183BD
:100F90008083F301EFCFF093DC02E093DB0281CF9B
:100FA0004816590608F42C017D01D3019ACFCB01D4
:100FB0000E94E3057C01009749F0AE01B8010E9450
:100FC000E907C8010E947F0687016BCF10E000E0AF
:100FD00068CFFB01DC0102C001900D9241505040EE
:100FE000D8F70895FB01DC0101900D920020E1F794
:100FF000089511E0CAE2D1E000E006C0802FFE01B2
:101000000E94DB052196011DCB32D10780E0080745
:06101000A9F7F894FFCFE0
:101016000000DD0280000000000013027D01AA012D
:101026006002DB01B901CD0141626F6C66617A6CC9
:0A10360020393833313132330A001B
:00000001FF
