:100000000C9430010C9461010C9461010C94610119
:100010000C9461010C9461010C9461010C946101D8
:100020000C9461010C9461010C9461010C946101C8
:100030000C9461010C94DF070C9461010C94610134
:100040000C9461010C9461010C9461010C946101A8
:100050000C9461010C9461010C9461010C947E0874
:100060000C9461010C9461010C9461010C94610188
:100070000C9461010C9461010C9461010C94610178
:100080000C9461010C9461010C9461010C94610168
:100090000C9461010C9461010C9461010C94610158
:1000A0000C9461010C9461010C9461010C94610148
:1000B0000C9461010C9461010C9461010C94610138
:1000C0000C9461010C9461010C9461010C94610128
:1000D0000C9461010C9461010C9461010C94610118
:1000E0000C9461010C949C020C9453020C944502F4
:1000F0000C945D020C941A070C94830A0C94490228
:100100000C9447060C946A020C943F020C94610212
:100110000C943C020C9457020C944F020C94CD02A8
:100120000C9465020C946B020C9438020C9430020F
:100130000C9434020C942A020C946F0200002100EB
:10014000240027002A002D003000330001010000A8
:10015000040107010A0100002000230026002900F5
:100160002C002F00320000010000030106010901EC
:1001700000000A0B02090C0D0E0807030401000021
:10018000000000000000000000000000000000006F
:10019000000000000000000000000000121110002C
:1001A000000000000000000000000000000000004F
:1001B000000000000000010210202008081020406C
:1001C000102040800201020108040201010204081B
:1001D00010204080804020100804020180040201A9
:1001E00080402010080402010804020101020408F2
:1001F00010204080010204081020408000002200EE
:10020000250028002B002E003100340002010000E0
:10021000050108010B010505050507050808080883
:10022000020202020A0A080804040404010101018E
:100230000101010103030303030303030407070789
:100240000C0C0C0C0C0C0C0C02020202060606062E
:10025000060606060B0B0B0B0B0B0B0B0200830A9F
:1002600011241FBECFEFD1E2DEBFCDBF00E00CBF37
:1002700019E0A0E0B2E0ECEFF9E100E00BBF02C052
:1002800007900D92AC36B107D9F72AE0ACE6B9E099
:1002900001C01D92A430B207E1F711E0C0E3D1E044
:1002A00000E006C021970109802FFE010E94C60CC4
:1002B000CF32D10780E00807A9F70E94C8080C9444
:1002C000FC0C0C94000080917B00877F80937B0066
:1002D00080E480937C0080917A00806480937A002F
:1002E00080917A0086FDFCCF809178009091790012
:1002F000089596E0899FD0011124AB58B64F90968F
:100300007C936E935F9791E091969C939197E09187
:10031000E209F091E3099091E109992339F03097CE
:1003200051F0811108C0809191091994309719F00A
:100330005C968C91FACF0895CF92DF92EF92FF9264
:100340000F931F9396E0899FF0011124EB58F64F0D
:1003500011A2278D30A12130310551F178F02230E2
:10036000310509F451C02330310509F452C01F9101
:100370000F91FF90EF90DF90CF9008956623B9F32F
:1003800061E070E00E9479012FB7F89480917109C3
:1003900090917209A0917309B09174092FBF809355
:1003A000CD099093CE09A093CF09B093D009DFCFA8
:1003B0009FB7F894C0907109D0907209E0907309CA
:1003C000F09074099FBF0091CD091091CE09209142
:1003D000CF093091D009C01AD10AE20AF30A00917C
:1003E000DF091091E00930E020E00C151D052E0515
:1003F0003F0550F462E070E01F910F91FF90EF9085
:10040000DF90CF900C9479016111B1CF63E070E07F
:10041000F3CF70E060E0F0CF8150823108F05AC035
:10042000E82FF0E08827E85EFD4F8F4F0C94C60C54
:1004300038023C022A02300234026A023F024502BC
:1004400049024F02530257025D0261026A026502CD
:100450006B026F02809180008F77809380000895F7
:10046000809180008F7DF9CF80918000877FF5CFCC
:1004700084B58F7784BD089584B58F7DFBCF80913F
:10048000B0008F778093B00008958091B0008F7D89
:10049000F9CF809190008F7780939000089580919C
:1004A00090008F7DF9CF80919000877FF5CF80916C
:1004B000A0008F778093A00008958091A0008F7D89
:1004C000F9CF8091A000877FF5CF809120018F77B1
:1004D000809320010895809120018F7DF9CF809134
:1004E0002001877FF5CFCF93DF93282F30E0F901EC
:1004F000E059FE4F8491F901EA54FE4FD491F9017D
:10050000EA5EFD4FC491CC23A1F081110E940C0240
:10051000EC2FF0E0EE0FFF1FEA5AFE4FA591B491C9
:10052000EC91ED2381E090E009F480E0DF91CF9140
:10053000089580E090E0FACF862F0C9473021F9309
:10054000CF93DF93282F30E0F901E059FE4F8491DB
:10055000F901EA54FE4FD491F901EA5EFD4FC491CE
:10056000CC23A9F0162F81110E940C02EC2FF0E091
:10057000EE0FFF1FE450FE4FA591B4918FB7F89492
:10058000EC91111108C0D095DE23DC938FBFDF9171
:10059000CF911F910895DE2BF8CF862F642F0C94F6
:1005A0009F02CF93DF9390E0FC01EA54FE4F249129
:1005B0008A5E9D4FFC0184918823C9F090E0880FEA
:1005C000991FFC01E45CFE4FA591B491FC01E4503D
:1005D000FE4FC591D49161110DC09FB7F8948C91D5
:1005E000209582238C938881282328839FBFDF91C5
:1005F000CF910895623051F49FB7F8943C91822FC7
:10060000809583238C93E8812E2BEFCF8FB7F894BE
:10061000EC912E2B2C938FBFEACF4F925F926F926B
:100620007F928F929F92AF92BF92CF92DF92EF9282
:10063000FF920F931F93CF93DF9300D01F921F92CF
:10064000CDB7DEB78C012A013B018091400888308C
:10065000C9F08F3F09F492C00F900F900F900F9048
:100660000F90DF91CF911F910F91FF90EF90DF904E
:10067000CF90BF90AF909F908F907F906F905F9042
:100680004F900895ECE5F2E084918D8387FDE4CFEF
:1006900061E088E00E94D1029D81992321F08D8143
:1006A000823009F0D2C14801B12CA12C60E072E186
:1006B0008AE790E0A50198010E94A70C29833A835C
:1006C0004B835C8369017A0191E0C91AD108E10882
:1006D000F1088FEFC816D104E104F10409F00CF41D
:1006E00083C160E472E48FE090E0A50198010E946C
:1006F000A70C69017A0191E0C91AD108E108F10853
:100700008D81823009F011C182E09FEFC916D104BA
:10071000E104F10409F00CF460C160E970ED83E0DC
:1007200090E0A50198010E94A70C69017A0181E07F
:10073000C81AD108E108F10883E09FEFC916D10477
:10074000E104F10409F00CF448C168E478EE81E0BA
:1007500090E0A50198010E94A70C69017A0191E03F
:10076000C91AD108E108F1088FEFC816D104E104D5
:10077000F10411F00CF019C184E02FC188E08093DE
:100780004008ECE5F2E094919D83892F9F3F09F4A6
:1007900063CF923009F469C060F4992381F19130FC
:1007A00009F445C087FD58CF61E088E00E94D1027E
:1007B00076CF9D81943009F49AC008F478C09530C2
:1007C00089F7109220011092210180912101886007
:1007D0008093210180912101816080932101EEE1CC
:1007E000F2E0E491F0E0EE0FFF1FE450FE4F859140
:1007F0009491EEEBF1E0E491E093E40949CF14BC6D
:1008000015BC84B5826084BD85B5816085BDEEE18F
:10081000F2E0E491F0E0EE0FFF1FE450FE4F85910F
:100820009491EEEBF1E0E491E093EB0931CF10927B
:100830008000109281008091810088608093810007
:1008400080918100816080938100EEE1F2E0E4918B
:10085000F0E0EE0FFF1FE450FE4F85919491EEEB18
:10086000F1E0E491E093EA0913CF1092B000109206
:10087000B1008091B00082608093B0008091B1009F
:1008800081608093B100EEE1F2E0E491F0E0EE0FE0
:10089000FF1FE450FE4F859194919093E909809356
:1008A000E809EEEBF1E0E491E093E709F1CE109274
:1008B0009000109291008091910088608093910047
:1008C00080919100816080939100EEE1F2E0E491EB
:1008D000F0E0EE0FFF1FE450FE4F85919491EEEB98
:1008E000F1E0E491E093E60983E08D83D1CE1092AC
:1008F000A0001092A1008091A10088608093A100C7
:100900008091A10081608093A100EEE1F2E0E4918A
:10091000F0E0EE0FFF1FE450FE4F85919491EEEB57
:10092000F1E0E491E093E509B3CE8FEFC816D1046E
:10093000E104F10409F00CF486C068E478EE81E08B
:1009400090E0A50198010E94A70C69017A0191E04D
:10095000C91AD108E108F1088D81882309F48DC1F5
:100960008FEFC816D104E104F10409F00CF404CFB0
:1009700062E17AE780E090E0A50194010E94A70C73
:1009800069017A0191E0C91AD108E108F1088D8165
:10099000882309F447C18FEFC816D104E104F1049C
:1009A00011F008F048C186E018C064E274EF80E0FE
:1009B00090E0A50194010E94A70C69017A0191E0E1
:1009C000C91AD108E108F1088FEFC816D104E10473
:1009D000F10411F008F041C185E09091B100987FD9
:1009E000892B8093B10008C081E09D819111F5CFE2
:1009F00095B5987F892B85BD2FEF3FEFA901411455
:100A000051046104710409F049C09D81923009F4D8
:100A1000E7C00CF0CEC0992309F4D3C0913009F09F
:100A20001BCED0928900C09288002093FC0930939D
:100A3000FD094093FE095093FF0980916F00826089
:100A400080936F0009CE82E0D0CFB12CA12C60E062
:100A500072E18AE790E0A50198010E94A70C690164
:100A60007A0181E0C81AD108E108F108C114D10463
:100A700091E0E906F10404F591E08D81813069F59A
:100A800080918100887F892B809381002FEF3FEF39
:100A9000A901411451046104710419F2D801AA0F8B
:100AA000BB1FA30192010E94CE0C28EE33E040E070
:100AB00050E00E94850CA9CF68E478EE81E090E0D8
:100AC000A50198010E94A70C69017A0181E0C81A6A
:100AD000D108E108F10893E0D0CF8D81833001F592
:100AE00080919100887F892B809391002FEF3FEFB9
:100AF000A901411451046104710481F6D092990056
:100B0000C09298002093F4093093F5094093F609B8
:100B10005093F709809171008260809371009CCDA1
:100B20008D81843009F58091A100887F892B809385
:100B3000A1002FEF3FEFA90141145104610471049A
:100B400009F0ACCFD092A900C092A8002093F00980
:100B50003093F1094093F2095093F30980917200A8
:100B600082608093720078CD8D81853009F044CF0A
:100B700080912101887F892B809321012FEF3FEF06
:100B8000A901411451046104710409F087CFD09286
:100B90002901C09228012093EC093093ED0940937C
:100BA000EE095093EF098091730082608093730087
:100BB00053CD8D81843031F20CF4A0CF853039F3E0
:100BC0004BCDC7BC2093000A3093010A4093020A20
:100BD0005093030A80916E00826080936E003CCD3A
:100BE000C092B3002093F8093093F9094093FA09B1
:100BF0005093FB09809170008260809370002CCD2F
:100C0000C980DA80EB80FC809AE0F594E794D79471
:100C1000C7949A95D1F791E0C91AD108E108F10873
:100C200085E0E6CE8FEFC816D104E104F10409F0A7
:100C300038F784E0DDCEC980DA80EB80FC808AE082
:100C4000F594E794D794C7948A95D1F791E0C91A9F
:100C5000D108E108F10887E0C0CE62E17AE780E0E0
:100C600090E0A50194010E94A70C69017A0191E02E
:100C7000C91AD108E108F1088ECE83E09FEFC916AA
:100C8000D104E104F10411F00CF072CEB1CE862F44
:100C9000642F0C94D1023FB7F89480916D09909124
:100CA0006E09A0916F09B091700926B5A89B05C087
:100CB0002F3F19F00196A11DB11D3FBFBA2FA92FDB
:100CC000982F8827BC01CD01620F711D811D911DD8
:100CD00042E0660F771F881F991F4A95D1F7089544
:100CE0008F929F92AF92BF92CF92DF92EF92FF923C
:100CF0006B017C010E944B064B015C01C114D104C5
:100D0000E104F104B9F00E944B06681979098A09D7
:100D10009B09683E73408105910580F321E0C21A6A
:100D2000D108E108F10888EE880E83E0981EA11C26
:100D3000B11CE4CFFF90EF90DF90CF90BF90AF90C9
:100D40009F908F9008952F923F924F925F926F9253
:100D50007F928F929F92AF92BF92CF92DF92EF924B
:100D6000FF920F931F93CF93DF93EB018C01440FFE
:100D7000551F1B01240E351E94EFA92EBB24B394DE
:100D80000E9463019C0169917991C5010E94710CD7
:100D9000F801819091908F016B01770FEE08FF08A9
:100DA000B901330F880B990B0E94780B20E030E0DB
:100DB00040E05BE30E94040C2B013C01B401990C60
:100DC000880B990B0E94780B9B01AC01C301B20107
:100DD0000E94040C0E94400BCB01B701A6010E94A7
:100DE0000D03C701B6010E94780B26E636E646EAF7
:100DF0005FE30E94040C0E94400B072E000C880B3E
:100E0000990B0E947006C215D30509F0B9CFDF9186
:100E1000CF911F910F91FF90EF90DF90CF90BF90F7
:100E2000AF909F908F907F906F905F904F903F908A
:100E30002F9008954F925F926F927F928F929F9220
:100E4000AF92BF92CF92DF92EF92FF920F931F93D8
:100E5000CF93DF932091940930919509213031058A
:100E600009F09CC08033C1F448E350E068E477E0C7
:100E700088EB97E0DF91CF911F910F91FF90EF905A
:100E8000DF90CF90BF90AF909F908F907F906F90AA
:100E90005F904F900C94A306813339F44EE450E0F8
:100EA00060E176E08CEA96E0E5CF823339F449E5FB
:100EB00050E06AEA74E08EE595E0DCCF833339F4E4
:100EC00049E550E064E473E088EF93E0D3CF8433E6
:100ED00039F441E550E060E072E082EA92E0CACF86
:100EE000853309F05BC081EAE82E88E0F82E91E4B2
:100EF000C92E98E0D92E81E6E81689E0F80609F4B3
:100F00004DC00E9463018C01F70121913191419103
:100F100051917F0160E070E08AEF93E40E94CE0A75
:100F20000E94400BF601C191D1916F014B01770FE7
:100F3000AA08BB08B801110F880B990B0E94780B07
:100F400020E030E040E05BE30E94040C2B013C0118
:100F5000BE01DD0F880B990B0E94780B9B01AC0141
:100F6000C301B2010E94040C0E94400BCB01B501E9
:100F7000A4010E940D03C501B4010E94780B26E66E
:100F800036E646EA5FE30E94040C0E94400B072EFF
:100F9000000C880B990B0E947006ADCFDF91CF91AA
:100FA0001F910F91FF90EF90DF90CF90BF90AF9087
:100FB0009F908F907F906F905F904F9008951F92B9
:100FC0000F920FB60F9211240BB60F922F933F93EF
:100FD0004F935F936F937F938F939F93AF93BF9341
:100FE000EF93FF938091F8099091F909A091FA0984
:100FF000B091FB09892B8A2B8B2BE1F19091E709AA
:10100000E091E809F091E909808189278083809146
:10101000F8099091F909A091FA09B091FB09181605
:1010200019061A061B069CF48091F8099091F9099B
:10103000A091FA09B091FB090197A109B109809328
:10104000F8099093F909A093FA09B093FB09FF916D
:10105000EF91BF91AF919F918F917F916F915F9130
:101060004F913F912F910F900BBE0F900FBE0F909D
:101070001F90189580914008ECE5F2E0E4919FEF15
:1010800090934008E230E9F040F4EE2389F0E1303B
:1010900091F060E00E949F02DACFE43049F110F154
:1010A000E530B9F7909173009D7F90937300F1CF75
:1010B00010926E00EECF90916F009D7F90936F0025
:1010C000E8CF909170009D7F9093700091E0909395
:1010D000B0009091B100987F94609093B10010920D
:1010E000B300D7CF909171009D7F90937100D1CFC5
:1010F000909172009D7F90937200CBCF1F920F92C0
:101100000FB60F9211242F933F938F939F93AF931A
:10111000BF938091710990917209A0917309B09168
:10112000740930916C0923E0230F2D3758F501968F
:10113000A11DB11D20936C098093710990937209D0
:10114000A0937309B093740980916D0990916E0911
:10115000A0916F09B09170090196A11DB11D8093F6
:101160006D0990936E09A0936F09B0937009BF91B8
:10117000AF919F918F913F912F910F900FBE0F9044
:101180001F90189526E8230F0296A11DB11DD2CFFE
:10119000789484B5826084BD84B5816084BD85B552
:1011A000826085BD85B5816085BD80916E0081605E
:1011B00080936E0010928100809181008260809304
:1011C0008100809181008160809381008091800006
:1011D0008160809380008091B10084608093B10031
:1011E0008091B00081608093B00080919100826016
:1011F0008093910080919100816080939100809113
:1012000090008160809390008091A1008260809323
:10121000A1008091A10081608093A1008091A00035
:1012200081608093A00080912101826080932101E0
:101230008091210181608093210180912001816052
:101240008093200180917A00846080937A0080915D
:101250007A00826080937A0080917A008160809326
:101260007A0080917A00806880937A001092C100A1
:101270008AE197E09093E3098093E209812C912C15
:101280005401839422242A94322C50E0652E50E09D
:10129000752E51E05093E1098FB7F8944091710990
:1012A0005091720960917309709174098FBF809198
:1012B000D1099091D209A091D309B091D409481BCA
:1012C000590B6A0B7B0B8091DD099091DE09B0E030
:1012D000A0E0C0E084179507A607B70740F010927A
:1012E000E10961147104A9F20E940000D2CF80913B
:1012F000DB09C81760F4E091D709F091D809EC0F29
:10130000F11D62E080810E94D102CF5FF0CF512CAD
:101310008091DC09581608F05FC0052D10E0E091BF
:10132000D909F091DA09E00FF11F61E080810E9494
:10133000D102E091D909F091DA09E00FF11F60E0E4
:1013400080810E949F02D501C401052C04C0880F32
:10135000991FAA1FBB1F0A94D2F76C017C01E0946D
:10136000F094412C8091DB094816F8F4C42DD0E0AC
:10137000E091D709F091D809EC0FFD1F80810E9400
:1013800073022496CC0FDD1FCB58D64F892B41F426
:10139000888199818C299D29998388834394E2CF00
:1013A000888199818E219F21F7CFE091D909F09111
:1013B000DA09E00FF11F61E080810E949F028091B5
:1013C000D9099091DA09080F191F60E0F8018081AE
:1013D0000E94D10253949CCFC5E7D9E0FE01878DCE
:1013E00090A1892B21F4148E368E258E11A236966B
:1013F00059E0E13BF50799F710E08091DB091817F8
:1014000008F053C000E0E12EF12CEE0CFF1CC701E8
:101410008358964F7C012091DC09021708F043C0E5
:10142000F70160817181002E02C0769567950A945C
:10143000E2F7129F90011124200F311DE5E7F9E03A
:1014400080E0458D568D2417350709F45AC08F5F0B
:1014500036968A30B1F760FF24C0E5E7F9E090E006
:1014600080E0448D411118C0E091D509F091D60972
:10147000E20FF31F408156E0589FF001599FF00D95
:101480001124EB58F64F448F368F258F10A2178EFC
:1014900061E00E949C0105C0019636968A30910554
:1014A00001F70F5FB8CF1F5FA8CF80E099A191111E
:1014B000892F269699E0C13BD907C1F79FB7F894C9
:1014C000409171095091720960917309709174098A
:1014D0009FBF4093D1095093D2096093D309709371
:1014E000D409882309F4FBCE80919609882309F456
:1014F000F6CE8091940990919509019709F0EFCE6D
:10150000F0CE6170C6CF1092770910927B091092CD
:101510007A0910927C0985E699E090937609809388
:101520007509E1E9F9E0108214821382158236967A
:1015300089E0ED3CF807B9F78CE298E09093D80980
:101540008093D70988E298E09093DA098093D909CB
:1015500084E08093DB098093DC0980E398E090933A
:10156000D6098093D5098AE090E09093DE098093B4
:10157000DD0984EF91E09093E0098093DF091092F8
:10158000E3091092E2091092D1091092D209109247
:10159000D3091092D4091092E10908950E94E20A39
:1015A0000C94CA0B0E94C30B58F00E94BC0B40F075
:1015B00029F45F3F29F00C94B30B51110C94FE0BEE
:1015C0000C94B90B0E94DB0B68F39923B1F35523FC
:1015D00091F3951B550BBB27AA2762177307840746
:1015E00038F09F5F5F4F220F331F441FAA1FA9F3DC
:1015F00035D00E2E3AF0E0E832D091505040E695CA
:10160000001CCAF72BD0FE2F29D0660F771F881F2A
:10161000BB1F261737074807AB07B0E809F0BB0B1D
:10162000802DBF01FF2793585F4F3AF09E3F510531
:1016300078F00C94B30B0C94FE0B5F3FE4F3983EF0
:10164000D4F3869577956795B795F7959F5FC9F71A
:10165000880F911D9695879597F90895E1E0660F9B
:10166000771F881FBB1F621773078407BA0720F014
:10167000621B730B840BBA0BEE1F88F7E09508957D
:101680000E94470B6894B1110C94FE0B08950E94C0
:10169000E30B88F09F5798F0B92F9927B751B0F016
:1016A000E1F0660F771F881F991F1AF0BA95C9F7E6
:1016B00014C0B13091F00E94FD0BB1E008950C947C
:1016C000FD0B672F782F8827B85F39F0B93FCCF32F
:1016D000869577956795B395D9F73EF49095809563
:1016E000709561957F4F8F4F9F4F0895E89409C083
:1016F00097FB3EF490958095709561957F4F8F4F45
:101700009F4F9923A9F0F92F96E9BB279395F6955A
:10171000879577956795B795F111F8CFFAF4BB0FD8
:1017200011F460FF1BC06F5F7F4F8F4F9F4F16C03C
:10173000882311F096E911C0772321F09EE8872FC6
:10174000762F05C0662371F096E8862F70E060E082
:101750002AF09A95660F771F881FDAF7880F9695FB
:10176000879597F9089597F99F6780E870E060E0A2
:1017700008959FEF80EC089500240A94161617062A
:1017800018060906089500240A9412161306140672
:1017900005060895092E0394000C11F4882352F0D5
:1017A000BB0F40F4BF2B11F460FF04C06F5F7F4F8D
:1017B0008F4F9F4F089557FD9058440F551F59F074
:1017C0005F3F71F04795880F97FB991F61F09F3F2E
:1017D00079F087950895121613061406551FF2CF57
:1017E0004695F1DF08C0161617061806991FF1CFA7
:1017F00086957105610508940895E894BB276627CE
:101800007727CB0197F908950E94170C0C94CA0B07
:101810000E94BC0B38F00E94C30B20F0952311F0FE
:101820000C94B30B0C94B90B11240C94FE0B0E9476
:10183000DB0B70F3959FC1F3950F50E0551F629F2E
:10184000F001729FBB27F00DB11D639FAA27F00D19
:10185000B11DAA1F649F6627B00DA11D661F829F40
:101860002227B00DA11D621F739FB00DA11D621F25
:10187000839FA00D611D221F749F3327A00D611D42
:10188000231F849F600D211D822F762F6A2F112424
:101890009F5750409AF0F1F088234AF0EE0FFF1F57
:1018A000BB1F661F771F881F91505040A9F79E3FAE
:1018B000510580F00C94B30B0C94FE0B5F3FE4F3E6
:1018C000983ED4F3869577956795B795F795E79504
:1018D0009F5FC1F7FE2B880F911D9695879597F90D
:1018E000089597FB072E16F4009407D077FD09D0D2
:1018F0000E94D90C07FC05D03EF4909581959F4F2E
:101900000895709561957F4F0895A1E21A2EAA1B44
:10191000BB1BFD010DC0AA1FBB1FEE1FFF1FA2179F
:10192000B307E407F50720F0A21BB30BE40BF50B9C
:10193000661F771F881F991F1A9469F76095709525
:10194000809590959B01AC01BD01CF010895052EB6
:1019500097FB1EF400940E94BE0C57FD07D00E9416
:10196000850C07FC03D04EF40C94BE0C50954095AA
:10197000309521953F4F4F4F5F4F0895909580953B
:10198000709561957F4F8F4F9F4F0895EE0FFF1F0A
:10199000881F8BBF0790F691E02D19940E94ED0CE3
:1019A000A59F900DB49F900DA49F800D911D1124B3
:1019B0000895AA1BBB1B51E107C0AA1FBB1FA61796
:1019C000B70710F0A61BB70B881F991F5A95A9F7E8
:1019D00080959095BC01CD010895A29FB001B39F61
:1019E000C001A39F700D811D1124911DB29F700D28
:0C19F000811D1124911D0895F894FFCF73
:1019FC0004000800080004000400040008000800AB
:101A0C00040004000400080008000200080008009C
:101A1C00080008000800080008000800040008007E
:101A2C000800020008000800080008000800080070
:101A3C00080008000800080008000800080008005A
:101A4C00080008000400080008000400040004005A
:101A5C00080008000400040004000800080004004A
:101A6C000400040008000800020008000800080038
:101A7C00080008000800080008000800080008001A
:101A8C00080008000800080008000400080008000E
:101A9C0002002601B801B801B80126012601B801DF
:101AAC00B801B8012601B801D2010B02B8014B02F2
:101ABC000B020B02D201D201B801B80188015D0101
:101ACC0088010B02B8012601060126014A015D01BD
:101ADC004A015D018801B8010B02D201B8018801ED
:101AEC005D014A0126010601880188018801B801BF
:101AFC00D201B80188015D018801B80188015D013E
:101B0C004A015D0188015D014A012601D201B8013B
:101B1C00B801880188015D015D014A01B8018801A5
:101B2C0088015D015D014A014A0126015D015D01EB
:101B3C008801B80104000800040008000400080033
:101B4C000800080008000400080004000800040055
:101B5C000800080008000800040008000400080041
:101B6C000400080008000800080004000400080035
:101B7C000800040004000800080004000400080029
:101B8C000800080004000800080008000400040015
:101B9C000800080004000400080008000400040009
:101BAC0008000400040008000800080008000400F5
:101BBC0004000800080004000400080008000400E9
:101BCC0004000800080008000400080008000800D1
:101BDC0004000400040008000400080008000800C9
:101BEC000400040008000800260126012601260135
:101BFC0026012601260126012601260126012601A1
:101C0C002601260126012601260126012601260190
:101C1C002601260126012601DC00060126012601EB
:101C2C0026014A015D015D015D0188014A014A01FD
:101C3C0026010601060126010000DC000601F70062
:101C4C002601F7004A015D015D010601060106014E
:101C5C00060126010601260100000000DC00060139
:101C6C002601260126015D01880188018801B80141
:101C7C00B801B801B8018801B8012601000026019D
:101C8C00A5005D015D018801B80126010000260157
:101C9C005D014A014A015D012601040008000400AF
:101CAC0008000400080008000800080004000800F0
:101CBC0004000800040008000800080008000400E4
:101CCC0008000400080004000800080008000800D0
:101CDC0004000400080008000400040008000800C8
:101CEC0004000400080008000800040008000800B4
:101CFC0008000400040008000800040004000800A8
:101D0C000800040004000800040004000800080097
:101D1C000800080004000400080008000400040087
:101D2C000800080004000400080008000800040073
:101D3C000800080008000400040004000800040067
:101D4C000800080008000400040008000800260130
:101D5C00260126012601260126012601260126013F
:101D6C00260126012601260126012601260126012F
:101D7C002601260126012601260126012601DC006A
:101D8C0006012601260126014A015D015D015D0166
:101D9C0088014A014A0126010601060126010000BC
:101DAC00DC000601F7002601F7004A015D015D0128
:101DBC0006010601060106012601060126010000A6
:101DCC000000DC0006012601260126015D018801C8
:101DDC0088018801B801B801B801B8018801B801BF
:101DEC00260100002601A5005D015D018801B801F6
:101DFC002601000026015D014A014A015D01260110
:101E0C000C000C000C000C000C000C000C000C0066
:101E1C000C000C000C000C000C000C000C000C0056
:101E2C000C000C000C000C000C000C000C000C0046
:101E3C000C000C000C000C000C000C000C000C0036
:101E4C000900090009000C000C000C000C000C002F
:101E5C000C000C000C000C000C000C000C000C0016
:101E6C000C000C000C000C000C000C000C000C0006
:101E7C000C000C000C000C000C000C000C000900F9
:101E8C00090009000C000C000C000C000C000C00EC
:101E9C000C000C000C000C000C000C004D0A4D0A40
:101EAC0000004D0A00002D084D0A0000400C0000F7
:101EBC000000000020060000000000002D080000BB
:101ECC000000200600000000270500000000E006CE
:101EDC000000B80700004907E006000020064D0A84
:101EEC00400CC00D0000EA0A400C00004D0A000036
:101EFC002D082D09B807000000002D080000000077
:101F0C00200600000000270500000000E00600008D
:101F1C00B80700004907E006000020064D0A400CF7
:101F2C00C00D0000EA0A400C00004D0A00002D080C
:101F3C002D09B807000000000C000C000C000C0070
:101F4C000C000C00060003000C000C000C000C0034
:101F5C000C000C00060003000C000C000C000C0024
:101F6C000C000C00060003000C000C000C000C0014
:101F7C000C000C00060006001200120012000600F5
:101F8C0006000600060006000600120012001200F1
:101F9C001200120012000A000A000A000A000A00CD
:101FAC000A0003000300030006010B02DC00B80169
:101FBC00E900D2010000000006010B02DC00B801B0
:101FCC00E900D20100000000AF005D019300260182
:101FDC009C00370100000000AF005D01930026015A
:101FEC009C00370100000000370115012601150186
:101FFC0037013701D000C4001501060172015D01E3
:10200C00A500D201B8019F013701F700E900DC00FF
:10201C00D0000000000000001A1B1C1D1617181918
:10202C003738392F3435362A3132332D43303D2B66
:10203C00FF4A014A015D01880188015D014A0126C0
:10204C00010601060126014A014A01260126014A20
:10205C00014A015D01880188015D014A01260106E2
:10206C0001060126014A0126010601060126012668
:10207C00014A01060126014A015D014A01060126B9
:10208C00014A015D014A01260106012601000000FA
:10209C000000000040000000400000004000000074
:1020AC004000000040000000400000004000000024
:1020BC004000000040000000400000004000000014
:1020CC0040713DAA3F000080400000803F000000AE
:1020DC0040000000400000004000000040000000F4
:1020EC0040000000400000004000000040000000E4
:1020FC0040000000400000004000000040713DAA7C
:10210C003F000080400000803F00000040000000C5
:10211C004000000040000000400000004000008033
:10212C004000008040000000400000004000000023
:10213C004000008040000080400000004000000093
:10214C004000000040000000400000004000000083
:0C215C0040000000004706CD029C02007D
:00000001FF
