:100000000C943A010C946B010C946B010C946B01F1
:100010000C946B010C946B010C946B010C946B01B0
:100020000C946B010C946B010C946B010C946B01A0
:100030000C946B010C946B010C946B010C946B0190
:100040000C946B010C946B010C946B010C946B0180
:100050000C946B010C946B010C946B010C94EF06E7
:100060000C946B010C946B010C946B010C946B0160
:100070000C946B010C946B010C946B010C946B0150
:100080000C946B010C946B010C946B010C946B0140
:100090000C946B010C946B010C946B010C946B0130
:1000A0000C946B010C946B010C946B010C946B0120
:1000B0000C946B010C946B010C946B010C946B0110
:1000C0000C946B010C946B010C946B010C946B0100
:1000D0000C946B010C946B010C946B010C946B01F0
:1000E0000C946B010C942E030C944B020C94700234
:1000F0000C947C090C9474020C948C020C94820273
:100100000C9460020C9400020C9478020C945D0232
:100110000C948B020C9432030C94BD020C9490024C
:100120000C94EE020C94F9080C9433030C947E02A8
:100130000C9455020C9486020C9459020C9466029D
:100140000C946A020C94D1040C94C1050C945102D5
:1001500000002100240027002A002D003000330079
:1001600001010000040107010A010000220025002E
:1001700028002B002E003100340002010000050190
:1001800008010B01000020002300260029002C009C
:100190002F003200000100000301060109010505DE
:1001A0000505070508080808020202020A0A0808ED
:1001B000040404040101010101010101030303031B
:1001C00003030303040707070C0C0C0C0C0C0C0CAA
:1001D0000202020206060606060606060B0B0B0BBB
:1001E0000B0B0B0B010210202008081020401020E0
:1001F00040800201020108040201010204081020EB
:1002000040808040201008040201800402018040E8
:100210002010080402010804020101020408102051
:100220004080010204081020408000000A0B0209EF
:100230000C0D0E0807030401000000000000000080
:1002400000000000000000000000000000000000AE
:10025000000000000000121110000000000000006B
:10026000000000000000000000000000000000008E
:10027000F9087C0911241FBECFEFD1E2DEBFCDBF4C
:1002800000E00CBF22E0ACE3B2E001C01D92A23E50
:10029000B207E1F712E0A0E0B2E0E0EDF8E100E043
:1002A0000BBF02C007900D92AC33B107D9F711E034
:1002B000C9E3D1E000E006C021970109802FFE01CB
:1002C0000E942F0AC833D10780E00807A9F70E94CF
:1002D00039070C94560C0C94000096E0899FD001CD
:1002E0001124A95ABD4F90967C936E935F9791E02D
:1002F00091969C939197E091C402F091C5029091E0
:10030000C302992339F0309751F0811108C08091D0
:1003100073021994309719F05C968C91FACF089576
:10032000CF92DF92EF92FF920F931F9396E0899FF7
:10033000F0011124E95AFD4F11A2278D30A121307F
:10034000310551F178F02230310509F451C02330E4
:10035000310509F452C01F910F91FF90EF90DF908B
:10036000CF9008956623B9F361E070E00E946D01BB
:100370002FB7F8948091530290915402A0915502A6
:10038000B09156022FBF8093AF029093B002A0931A
:10039000B102B093B202DFCF9FB7F894C09053027E
:1003A000D0905402E0905502F09056029FBF009109
:1003B000AF021091B0022091B1023091B202C01A86
:1003C000D10AE20AF30A0091C1021091C20230E0A0
:1003D00020E00C151D052E053F0550F462E070E08D
:1003E0001F910F91FF90EF90DF90CF900C946D01D3
:1003F0006111B1CF63E070E0F3CF70E060E0F0CF67
:10040000AF92BF92CF92DF92EF92FF920F931F9322
:10041000CF93DF936C017B018B01040F151FEB0160
:100420005E01AE18BF08C017D10759F06991D60117
:10043000ED91FC910190F081E02DC6011995892B79
:1004400079F7C501DF91CF911F910F91FF90EF9048
:10045000DF90CF90BF90AF9008958150823108F027
:100460005AC0E82FF0E08827E75CFD4F8F4F0C94CF
:100470002F0A59025D024B02510255028B026002A3
:1004800066026A027002740278027E0282028B02A5
:1004900086028C029002809180008F77809380008A
:1004A0000895809180008F7DF9CF80918000877FB3
:1004B000F5CF84B58F7784BD089584B58F7DFBCF4C
:1004C0008091B0008F778093B00008958091B00044
:1004D0008F7DF9CF809190008F7780939000089561
:1004E000809190008F7DF9CF80919000877FF5CF2C
:1004F0008091A0008F778093A00008958091A00044
:100500008F7DF9CF8091A000877FF5CF809120016A
:100510008F77809320010895809120018F7DF9CFFE
:1005200080912001877FF5CFCF93DF93282F30E094
:10053000F901E65DFD4F8491F901EC51FE4FD49134
:10054000F901E256FE4FC491CC23A1F081110E9423
:100550002D02EC2FF0E0EE0FFF1FEC57FE4FA591A0
:10056000B491EC91ED2381E090E009F480E0DF911B
:10057000CF91089580E090E0FACF862F0C949402FA
:100580001F93CF93DF93282F30E0F901E65DFD4FF5
:100590008491F901EC51FE4FD491F901E256FE4FDE
:1005A000C491CC23A9F0162F81110E942D02EC2FAB
:1005B000F0E0EE0FFF1FE659FE4FA591B4918FB703
:1005C000F894EC91111108C0D095DE23DC938FBF15
:1005D000DF91CF911F910895DE2BF8CF862F642FE6
:1005E0000C94C002CF93DF9390E0FC01EC51FE4FDE
:1005F000249182569E4FFC0184918823C9F090E09B
:10060000880F991FFC01E05BFE4FA591B491FC019E
:10061000E659FE4FC591D49161110DC09FB7F89472
:100620008C91209582238C938881282328839FBFD7
:10063000DF91CF910895623051F49FB7F8943C91C7
:10064000822F809583238C93E8812E2BEFCF8FB759
:10065000F894EC912E2B2C938FBFEACF862F642F2A
:100660000C94F202089590E080E008958F929F929A
:10067000AF92BF920F931F93CF93DF93CDB7DEB7A7
:10068000A1970FB6F894DEBF0FBECDBF19A24230BE
:1006900008F44AE08E010F5D1F4F842E912CB12C7F
:1006A000A12CA50194010E94EE09E62FB901CA010F
:1006B000EA3044F5E05DD801EE938D01232B242B25
:1006C000252B79F790E080E0109769F0FD0101900B
:1006D0000020E9F73197AF014A1B5B0BBD0186ECA7
:1006E00092E00E940002A1960FB6F894DEBF0FBE02
:1006F000CDBFDF91CF911F910F91BF90AF909F9091
:100700008F900895E95CD7CFFC018081918100979B
:1007100011F00C94D30A0895CF93DF93EC0160E0BD
:100720008E810E94C00261E08E810E94C00260E062
:100730008E810E94C0028BE891E00197F1F7DF9172
:10074000CF910895CF92DF92EF92FF920F931F9374
:10075000CF93DF936C017C0187E0E80EF11CD0E0C1
:10076000C0E0062F10E0B8010C2E02C07595679509
:100770000A94E2F76170F70181917F010E94C00243
:100780002196C430D10579F7C601DF91CF911F9131
:100790000F91FF90EF90DF90CF900C948C03CF924D
:1007A000DF92EF92FF920F931F93CF93DF93EC01B1
:1007B000F62E642F8C810E94C0028D818F3F19F02C
:1007C00060E00E94C0020F2D10E08F8584FF25C0DD
:1007D0006E0187E0C80ED11CF12CE12CB8010E2C63
:1007E00002C0759567950A94E2F76170F6018191F0
:1007F0006F010E94C002FFEFEF1AFF0A88E0E816BF
:10080000F10461F7CE01DF91CF911F910F91FF901D
:10081000EF90DF90CF900C948C03B80184E0759535
:1008200067958A95E1F7CE010E94A2036F2DCE0154
:10083000DF91CF911F910F91FF90EF90DF90CF90BC
:100840000C94A20340E0682F86EC92E00C94CF0356
:1008500081E00E9422048BE39FE10197F1F7089564
:10086000CF93DF93823029F49091D50298609093D2
:10087000D5028093D9021092DA0280E48093DB02E1
:1008800080E18093DC0280E58093DD0261E080916D
:10089000CA020E94F2028091CB028F3F19F061E000
:1008A0000E94F20261E08091CC020E94F202C6EC4A
:1008B000D2E09E01265C32408091D50284FD0BC0BF
:1008C00084E090E021962817390744F461E08E8196
:1008D0000E94F202EECF88E090E0F4CF8BE39DE03F
:1008E0000197F1F760E08091CA020E94C00260E0C7
:1008F0008091CC020E94C0028091CB028F3F19F000
:1009000060E00E94C0028091D50284FD34C063E0A3
:1009100086EC92E00E94A203CBE4D6E4CE010197DC
:10092000F1F763E086EC92E00E94A2032197F1F7D1
:1009300063E086EC92E00E94A20383E592E00197D7
:10094000F1F762E086EC92E00E94A2038091D5026A
:1009500080620E94220484E08093D6028CE00E9490
:1009600022040E94280482E08093D70286E0DF916F
:10097000CF910C94220480620E9422048BE496E4BE
:100980000197F1F78091D50280620E94220483E5ED
:1009900092E00197F1F78091D50280620E942204D3
:1009A000D5CF41E00E94CF0381E090E00895CF923F
:1009B000DF92EF92FF9297FF18C06B017C0141E03C
:1009C0006DE286EC92E00E94CF0366277727CB0189
:1009D0006C197D098E099F094AE00E943603019631
:1009E000FF90EF90DF90CF9008954AE0FF90EF9056
:1009F000DF90CF900C943603FC01808191810097A9
:100A000011F00C94880960E070E0CB010895FC01BE
:100A100024813581232B39F421E0FB018081882357
:100A200049F020E007C0808191810E94460C21E0BE
:100A3000892BB9F7822F08950F931F93CF93DF93DC
:100A4000EC0188819981009759F02A813B81261712
:100A5000370730F081E0DF91CF911F910F9108951A
:100A60008B016F5F7F4F0E945C0B009759F0998359
:100A700088831B830A832C813D81232B59F7FC013A
:100A80001082E8CF80E0E7CFCF93DF93EC011982AB
:100A900018821B821A821D821C8270E060E00E9414
:100AA0001C052881398181110FC02115310519F0EC
:100AB000C9010E94D30A198218821D821C821B82DE
:100AC0001A82DF91CF9108951D821C8269E372E042
:100AD000C901DF91CF910C944F0CCF93DF93EC01C0
:100AE00070E060E00E941C052881398181110FC0EF
:100AF0002115310519F0C9010E94D30A1982188203
:100B00001D821C821B821A82DF91CF9108951D8263
:100B10001C8269E372E0C901DF91CF910C944F0C04
:100B2000EF92FF920F931F93CF93DF931F921F9229
:100B3000CDB7DEB78C0169831A82FC01E480F580B1
:100B4000FFEFEF1AFF0AB7010E941C05882381F00E
:100B5000F8012081318184819581BE016F5F7F4FD3
:100B6000820F931F0E944F0CF801F582E48281E00E
:100B70000F900F90DF91CF911F910F91FF90EF9009
:100B80000895CF92DF92EF92FF920F931F93CF932E
:100B9000DF9320917602309177022130310509F000
:100BA00015C1C82F69E372E08CE392E00E9407054B
:100BB000D82F69E372E082E492E00E940705D8230F
:100BC00069E372E088E492E00E9407058D2311F04A
:100BD0000E942804C334B1F48CE392E00E946D05B6
:100BE00082E492E00E946D0588E492E00E946D0527
:100BF000DF91CF911F910F91FF90EF90DF90CF90F9
:100C00000C94280480ED8C0F8A30E8F46C2F86EC6D
:100C100092E00E94D10469E372E088E492E00E94CD
:100C200007056C2F882361F08CE392E0DF91CF9170
:100C30001F910F91FF90EF90DF90CF900C94900553
:100C400082E492E0F3CF69E372E088E492E00E94EC
:100C50000705D82F21E030E0CD3311F430E020E05B
:100C60000D2F10E00223132369E372E08CE392E07E
:100C70000E94070521E030E0882311F030E020E0F9
:100C800020233123232B49F06C2F86EC92E00E9425
:100C9000D1046C2F88E492E0C9CF81E0CD3309F014
:100CA00080E0C1E0D111C0E0C82369E372E082E4D2
:100CB00092E00E940705811189C0CC2309F486C007
:100CC000E091D902E230A0F5E150F0E0EA53FD4FA7
:100CD000848980680E94220464E372E088E492E0E0
:100CE0000E940705882331F18CE392E00E94FC0406
:100CF0006B017C0182E492E00E94FC046C0D7D1D7E
:100D00008E1D9F1D0E94D7048CE392E00E946D050A
:100D100082E492E00E946D0588E492E0DF91CF9139
:100D20001F910F91FF90EF90DF90CF900C946D0585
:100D3000E1E0CBCF66E372E088E492E00E94070531
:100D4000882399F08CE392E00E94FC046B017C0103
:100D500082E492E00E94FC04A7019601261B370B57
:100D6000480B590BCA01B901CDCF68E372E088E4A2
:100D700092E00E940705882379F08CE392E00E94BC
:100D8000FC046B017C0182E492E00E94FC04A70158
:100D900096010E94DE09B6CF6AE372E088E492E031
:100DA0000E940705882309F4AFCF8CE392E00E94EC
:100DB000FC046B017C0182E492E00E94FC049B0134
:100DC000AC01C701B6010E94100ACCCFDF91CF91D0
:100DD0001F910F91FF90EF90DF90CF9008951F9299
:100DE0000F920FB60F9211242F933F938F939F93DF
:100DF000AF93BF938091530290915402A0915502FA
:100E0000B09156023091520223E0230F2D3758F54E
:100E10000196A11DB11D209352028093530290931D
:100E20005402A0935502B093560280914E029091C5
:100E30004F02A0915002B09151020196A11DB11D27
:100E400080934E0290934F02A0935002B0935102B0
:100E5000BF91AF919F918F913F912F910F900FBEB6
:100E60000F901F90189526E8230F0296A11DB11D23
:100E7000D2CF789484B5826084BD84B5816084BD0E
:100E800085B5826085BD85B5816085BD80916E0028
:100E9000816080936E001092810080918100826059
:100EA0008093810080918100816080938100809196
:100EB00080008160809380008091B1008460809385
:100EC000B1008091B00081608093B000809191006A
:100ED0008260809391008091910081608093910065
:100EE000809190008160809390008091A100826049
:100EF0008093A1008091A10081608093A1008091E6
:100F0000A00081608093A000809121018260809385
:100F10002101809121018160809321018091200134
:100F200081608093200180917A00846080937A00B0
:100F300080917A00826080937A0080917A0081604B
:100F400080937A0080917A00806880937A00109272
:100F5000C10082E00E9430040E94280481EC95E0E8
:100F60009093C5028093C402812C912C54018394E8
:100F700022242A94322C50E0652E50E0752E51E048
:100F80005093C3028FB7F89440915302509154028A
:100F900060915502709156028FBF8091B30290917B
:100FA000B402A091B502B091B602481B590B6A0B6E
:100FB0007B0B8091BF029091C002B0E0A0E0C0E046
:100FC00084179507A607B70740F01092C302611473
:100FD0007104A9F20E940000D2CF8091BD02C8170F
:100FE00060F4E091B902F091BA02EC0FF11D62E0F9
:100FF00080810E94F202CF5FF0CF512C8091BE021F
:10100000581608F05FC0052D10E0E091BB02F0918A
:10101000BC02E00FF11F61E080810E94F202E091CA
:10102000BB02F091BC02E00FF11F60E080810E94E2
:10103000C002D501C401052C04C0880F991FAA1F46
:10104000BB1F0A94D2F76C017C01E094F094412C10
:101050008091BD024816F8F4C42DD0E0E091B902A9
:10106000F091BA02EC0FFD1F80810E949402249639
:10107000CC0FDD1FC95ADD4F892B41F4888199813E
:101080008C299D29998388834394E2CF8881998113
:101090008E219F21F7CFE091BB02F091BC02E00FBF
:1010A000F11F61E080810E94C0028091BB0290919B
:1010B000BC02080F191F60E0F80180810E94F20253
:1010C00053949CCFC7E5D2E0FE01878D90A1892B78
:1010D00021F4148E368E258E11A2369652E0E33915
:1010E000F50799F710E08091BD02181708F053C07A
:1010F00000E0E12EF12CEE0CFF1CC701815A9D4F40
:101100007C012091BE02021708F043C0F701608104
:101110007181002E02C0769567950A94E2F7129FBE
:1011200090011124200F311DE7E5F2E080E0458DAC
:10113000568D2417350709F45AC08F5F36968A30CA
:10114000B1F760FF24C0E7E5F2E090E080E0448D75
:10115000411118C0E091B702F091B802E20FF31FFD
:10116000408156E0589FF001599FF00D1124E95A33
:10117000FD4F448F368F258F10A2178E61E00E949D
:10118000900105C0019636968A30910501F70F5FF0
:10119000B8CF1F5FA8CF80E099A19111892F269623
:1011A00092E0C339D907C1F79FB7F8944091530231
:1011B0005091540260915502709156029FBF409326
:1011C000B3025093B4026093B5027093B6028823C1
:1011D00009F4FBCE80917802882309F4F6CE809141
:1011E000760290917702019709F0EFCEF0CE617010
:1011F000C6CF8CE392E00E94440582E492E00E9414
:10120000440588E492E00E9444051092C9021092BD
:10121000C8028CE292E09093C7028093C60282E3F8
:101220008093CA028FEF8093CB0283E38093CC023A
:1012300088E08093CD0289E08093CE028AE080939B
:10124000CF028BE08093D0021092D1021092D20292
:101250001092D3021092D4021092D50281E00E9423
:1012600030041092590210925D0210925C021092AA
:101270005E0282E292E09093580280935702E3E785
:10128000F2E01082148213821582369682E0EF3AE1
:10129000F807B9F784E092E09093BA028093B9021C
:1012A00080E092E09093BC028093BB0284E0809344
:1012B000BD028093BE0288E092E09093B8028093D2
:1012C000B7028AE090E09093C0028093BF0284EF5F
:1012D00091E09093C2028093C1021092C5021092D5
:1012E000C4021092B3021092B4021092B50210928E
:1012F000B6021092C302089588E492E00E9484032B
:1013000082E492E00E9484038CE392E00C948403D4
:101310001F93FC0199278827BC01E8941191103292
:10132000E9F3193010F01E30C8F31B3251F01D32B2
:1013300049F4689406C00E94AF09610F711D811DB8
:10134000911D119110531A30B0F33EF49095809591
:10135000709561957F4F8F4F9F4F1F910895592F23
:10136000482F372F262F660F771F881F991F660F6C
:10137000771F881F991F620F731F841F951F660FA9
:10138000771F881F991F08950E94CF09A59F900D70
:10139000B49F900DA49F800D911D11240895A29FCC
:1013A000B001B39FC001A39F700D811D1124911D39
:1013B000B29F700D811D1124911D0895DB018F9343
:1013C0009F930E94C409BF91AF91A29F800D911D70
:1013D000A39F900DB29F900D11240895A1E21A2EA3
:1013E000AA1BBB1BFD010DC0AA1FBB1FEE1FFF1FC9
:1013F000A217B307E407F50720F0A21BB30BE40B19
:10140000F50B661F771F881F991F1A9469F760955F
:101410007095809590959B01AC01BD01CF01089519
:10142000052E97FB1EF400940E94270A57FD07D053
:101430000E94EE0907FC03D04EF40C94270A509545
:101440004095309521953F4F4F4F5F4F08959095B0
:101450008095709561957F4F8F4F9F4F0895EE0F48
:10146000FF1F881F8BBF0790F691E02D19940F93F3
:101470001F93CF93DF938230910510F482E090E0C8
:10148000E091E002F091E10230E020E0B0E0A0E085
:10149000309799F42115310509F44AC0281B390BFE
:1014A00024303105D8F58A819B816115710589F158
:1014B000FB0193838283FE0111C04081518102812F
:1014C000138148175907E0F04817590799F4109706
:1014D00061F012960C93129713961C933296CF01DB
:1014E000DF91CF911F910F9108950093E002109327
:1014F000E102F4CF2115310551F04217530738F0BE
:10150000A901DB019A01BD01DF01F801C1CFEF01A3
:10151000F9CF9093E1028093E002CDCFFE01E20F7C
:10152000F31F819391932250310939832883D7CFB8
:101530002091DE023091DF02232B41F420911A0228
:1015400030911B023093DF022093DE0220911802BB
:10155000309119022115310541F42DB73EB7409164
:101560001C0250911D02241B350BE091DE02F0910C
:10157000DF02E217F307A0F42E1B3F0B28173907F1
:1015800078F0AC014E5F5F4F2417350748F04E0FDF
:101590005F1F5093DF024093DE02819391939FCFB0
:1015A000F0E0E0E09CCFCF93DF930097E9F0FC01FF
:1015B000329713821282A091E002B091E102ED0114
:1015C00030E020E01097A1F420813181820F931F39
:1015D0002091DE023091DF022817390709F061C03F
:1015E000F093DF02E093DE02DF91CF910895EA01EC
:1015F000CE17DF07E8F54A815B819E014115510551
:10160000B1F7E901FB83EA8349915991C40FD51FD2
:10161000EC17FD0761F4808191810296840F951F7C
:10162000E90199838883828193819B838A83F0E097
:10163000E0E012968D919C9113970097B9F52D914A
:101640003C911197CD010296820F931F2091DE02EB
:101650003091DF022817390739F6309751F510928B
:10166000E1021092E002B093DF02A093DE02BCCF51
:10167000D383C28340815181840F951FC817D90736
:1016800061F44E5F5F4F88819981480F591F5183E4
:1016900040838A819B81938382832115310509F0E0
:1016A000B0CFF093E102E093E0029ECFFD01DC01B8
:1016B000C0CF13821282D7CF4F925F926F927F92E8
:1016C0008F929F92AF92BF92CF92DF92EF92FF9252
:1016D0000F931F93CF93DF938C01009799F4CB0165
:1016E000DF91CF911F910F91FF90EF90DF90CF90FE
:1016F000BF90AF909F908F907F906F905F904F9032
:101700000C94370AFC01E60FF71F9C0122503109A7
:10171000E217F30708F4AEC0D901CD91DC9111971F
:10172000C617D70720F1C530D10578F0CE01049750
:101730008617970750F0C61BD70B2297C193D193FA
:101740006D937C93CF010E94D30AC801DF91CF91A2
:101750001F910F91FF90EF90DF90CF90BF90AF90CF
:101760009F908F907F906F905F904F9008955B0156
:10177000AC1ABD0A4C018C0E9D1EA091E002B091E6
:10178000E102512C412CF12CE12C109731F5809184
:10179000DE029091DF028815990509F05CC04616BB
:1017A000570608F058C080911802909119020097CE
:1017B00041F48DB79EB740911C0250911D02841BCD
:1017C000950BE817F90708F055C0F093DF02E09396
:1017D000DE02F90171836083B8CF8D919C911197DE
:1017E00012966C90129713967C901397A815B905D2
:1017F00059F56C0142E0C40ED11CCA14DB0420F17F
:10180000AC014A195B09DA011296159780F06282E1
:10181000738251834083D9016D937C93E114F10469
:1018200071F0D7011396FC93EE9312978ECF229608
:101830008C0F9D1FF90191838083F301EFCFF0930B
:10184000E102E093E00281CF4816590608F42C012A
:101850007D01D3019ACFCB010E94370A7C0100970A
:1018600049F0AE01B8010E943D0CC8010E94D30AA4
:1018700087016BCF10E000E068CFFB01DC0102C004
:1018800001900D9241505040D8F70895FB01DC01C2
:101890008D91019080190110D9F3990B0895FB01E6
:1018A000DC0101900D920020E1F7089511E0C9E3F9
:1018B000D1E000E006C0802FFE010E942F0A219691
:1018C000011DCA33D10780E00807A9F7F894FFCFBC
:1018D0001A1B1C1D161718193738392F3435362A9C
:1018E0003132332D43303D2B0000E20280000000F6
:1018F00000002E03EE02BD0200000000D104000231
:0C190000330332032B002D002A002F00BF
:00000001FF
