:020000040000FA
:100000000C943A010C946B010C946B010C946B01F1
:100010000C946B010C946B010C946B010C946B01B0
:100020000C946B010C946B010C946B010C946B01A0
:100030000C946B010C946B010C946B010C946B0190
:100040000C946B010C946B010C946B010C946B0180
:100050000C946B010C946B010C946B010C94EF06E7
:100060000C946B010C946B010C946B010C946B0160
:100070000C946B010C946B010C946B010C946B0150
:100080000C946B010C946B010C946B010C946B0140
:100090000C946B010C946B010C946B010C946B0130
:1000A0000C946B010C946B010C946B010C946B0120
:1000B0000C946B010C946B010C946B010C946B0110
:1000C0000C946B010C946B010C946B010C946B0100
:1000D0000C946B010C946B010C946B010C946B01F0
:1000E0000C946B010C942E030C944B020C94700234
:1000F0000C947C090C9474020C948C020C94820273
:100100000C9460020C9400020C9478020C945D0232
:100110000C948B020C9432030C94BD020C9490024C
:100120000C94EE020C94F9080C9433030C947E02A8
:100130000C9455020C9486020C9459020C9466029D
:100140000C946A020C94D1040C94C1050C945102D5
:1001500000002100240027002A002D003000330079
:1001600001010000040107010A010000220025002E
:1001700028002B002E003100340002010000050190
:1001800008010B01000020002300260029002C009C
:100190002F003200000100000301060109010505DE
:1001A0000505070508080808020202020A0A0808ED
:1001B000040404040101010101010101030303031B
:1001C00003030303040707070C0C0C0C0C0C0C0CAA
:1001D0000202020206060606060606060B0B0B0BBB
:1001E0000B0B0B0B010210202008081020401020E0
:1001F00040800201020108040201010204081020EB
:1002000040808040201008040201800402018040E8
:100210002010080402010804020101020408102051
:100220004080010204081020408000000A0B0209EF
:100230000C0D0E0807030401000000000000000080
:1002400000000000000000000000000000000000AE
:10025000000000000000121110000000000000006B
:10026000000000000000000000000000000000008E
:10027000F9087C0911241FBECFEFD1E2DEBFCDBF4C
:1002800000E00CBF22E0ACE3B2E001C01D92A23E50
:10029000B207E1F712E0A0E0B2E0E0EDF8E100E043
:1002A0000BBF02C007900D92AC33B107D9F711E034
:1002B000C9E3D1E000E006C021970109802FFE01CB
:1002C0000E942F0AC833D10780E00807A9F70E94CF
:1002D00039070C94560C0C94000096E0899FD001CD
:1002E0001124A95ABD4F90967C936E935F9791E02D
:1002F00091969C939197E091C402F091C5029091E0
:10030000C302992339F0309751F0811108C08091D0
:1003100073021994309719F05C968C91FACF089576
:10032000CF92DF92EF92FF920F931F9396E0899FF7
:10033000F0011124E95AFD4F11A2278D30A121307F
:10034000310551F178F02230310509F451C02330E4
:10035000310509F452C01F910F91FF90EF90DF908B
:10036000CF9008956623B9F361E070E00E946D01BB
:100370002FB7F8948091530290915402A0915502A6
:10038000B09156022FBF8093AF029093B002A0931A
:10039000B102B093B202DFCF9FB7F894C09053027E
:1003A000D0905402E0905502F09056029FBF009109
:1003B000AF021091B0022091B1023091B202C01A86
:1003C000D10AE20AF30A0091C1021091C20230E0A0
:1003D00020E00C151D052E053F0550F462E070E08D
:1003E0001F910F91FF90EF90DF90CF900C946D01D3
:1003F0006111B1CF63E070E0F3CF70E060E0F0CF67
:10040000AF92BF92CF92DF92EF92FF920F931F9322
:10041000CF93DF936C017B018B01040F151FEB0160
:100420005E01AE18BF08C017D10759F06991D60117
:10043000ED91FC910190F081E02DC6011995892B79
:1004400079F7C501DF91CF911F910F91FF90EF9048
:10045000DF90CF90BF90AF9008958150823108F027
:100460005AC0E82FF0E08827E75CFD4F8F4F0C94CF
:100470002F0A59025D024B02510255028B026002A3
:1004800066026A027002740278027E0282028B02A5
:1004900086028C029002809180008F77809380008A
:1004A0000895809180008F7DF9CF80918000877FB3
:1004B000F5CF84B58F7784BD089584B58F7DFBCF4C
:1004C0008091B0008F778093B00008958091B00044
:1004D0008F7DF9CF809190008F7780939000089561
:1004E000809190008F7DF9CF80919000877FF5CF2C
:1004F0008091A0008F778093A00008958091A00044
:100500008F7DF9CF8091A000877FF5CF809120016A
:100510008F77809320010895809120018F7DF9CFFE
:1005200080912001877FF5CFCF93DF93282F30E094
:10053000F901E65DFD4F8491F901EC51FE4FD49134
:10054000F901E256FE4FC491CC23A1F081110E9423
:100550002D02EC2FF0E0EE0FFF1FEC57FE4FA591A0
:10056000B491EC91ED2381E090E009F480E0DF911B
:10057000CF91089580E090E0FACF862F0C949402FA
:100580001F93CF93DF93282F30E0F901E65DFD4FF5
:100590008491F901EC51FE4FD491F901E256FE4FDE
:1005A000C491CC23A9F0162F81110E942D02EC2FAB
:1005B000F0E0EE0FFF1FE659FE4FA591B4918FB703
:1005C000F894EC91111108C0D095DE23DC938FBF15
:1005D000DF91CF911F910895DE2BF8CF862F642FE6
:1005E0000C94C002CF93DF9390E0FC01EC51FE4FDE
:1005F000249182569E4FFC0184918823C9F090E09B
:10060000880F991FFC01E05BFE4FA591B491FC019E
:10061000E659FE4FC591D49161110DC09FB7F89472
:100620008C91209582238C938881282328839FBFD7
:10063000DF91CF910895623051F49FB7F8943C91C7
:10064000822F809583238C93E8812E2BEFCF8FB759
:10065000F894EC912E2B2C938FBFEACF862F642F2A
:100660000C94F202089590E080E008958F929F929A
:10067000AF92BF920F931F93CF93DF93CDB7DEB7A7
:10068000A1970FB6F894DEBF0FBECDBF19A24230BE
:1006900008F44AE08E010F5D1F4F842E912CB12C7F
:1006A000A12CA50194010E94EE09E62FB901CA010F
:1006B000EA3044F5E05DD801EE938D01232B242B25
:1006C000252B79F790E080E0109769F0FD0101900B
:1006D0000020E9F73197AF014A1B5B0BBD0186ECA7
:1006E00092E00E940002A1960FB6F894DEBF0FBE02
:1006F000CDBFDF91CF911F910F91BF90AF909F9091
:100700008F900895E95CD7CFFC018081918100979B
:1007100011F00C94D30A0895CF93DF93EC0160E0BD
:100720008E810E94C00261E08E810E94C00260E062
:100730008E810E94C0028BE891E00197F1F7DF9172
:10074000CF910895CF92DF92EF92FF920F931F9374
:10075000CF93DF936C017C0187E0E80EF11CD0E0C1
:10076000C0E0062F10E0B8010C2E02C07595679509
:100770000A94E2F76170F70181917F010E94C00243
:100780002196C430D10579F7C601DF91CF911F9131
:100790000F91FF90EF90DF90CF900C948C03CF924D
:1007A000DF92EF92FF920F931F93CF93DF93EC01B1
:1007B000F62E642F8C810E94C0028D818F3F19F02C
:1007C00060E00E94C0020F2D10E08F8584FF25C0DD
:1007D0006E0187E0C80ED11CF12CE12CB8010E2C63
:1007E00002C0759567950A94E2F76170F6018191F0
:1007F0006F010E94C002FFEFEF1AFF0A88E0E816BF
:10080000F10461F7CE01DF91CF911F910F91FF901D
:10081000EF90DF90CF900C948C03B80184E0759535
:1008200067958A95E1F7CE010E94A2036F2DCE0154
:10083000DF91CF911F910F91FF90EF90DF90CF90BC
:100840000C94A20340E0682F86EC92E00C94CF0356
:1008500081E00E9422048BE39FE10197F1F7089564
:10086000CF93DF93823029F49091D50298609093D2
:10087000D5028093D9021092DA0280E48093DB02E1
:1008800080E18093DC0280E58093DD0261E080916D
:10089000CA020E94F2028091CB028F3F19F061E000
:1008A0000E94F20261E08091CC020E94F202C6EC4A
:1008B000D2E09E01265C32408091D50284FD0BC0BF
:1008C00084E090E021962817390744F461E08E8196
:1008D0000E94F202EECF88E090E0F4CF8BE39DE03F
:1008E0000197F1F760E08091CA020E94C00260E0C7
:1008F0008091CC020E94C0028091CB028F3F19F000
:1009000060E00E94C0028091D50284FD34C063E0A3
:1009100086EC92E00E94A203CBE4D6E4CE010197DC
:10092000F1F763E086EC92E00E94A2032197F1F7D1
:1009300063E086EC92E00E94A20383E592E00197D7
:10094000F1F762E086EC92E00E94A2038091D5026A
:1009500080620E94220484E08093D6028CE00E9490
:1009600022040E94280482E08093D70286E0DF916F
:10097000CF910C94220480620E9422048BE496E4BE
:100980000197F1F78091D50280620E94220483E5ED
:1009900092E00197F1F78091D50280620E942204D3
:1009A000D5CF41E00E94CF0381E090E00895CF923F
:1009B000DF92EF92FF9297FF18C06B017C0141E03C
:1009C0006DE286EC92E00E94CF0366277727CB0189
:1009D0006C197D098E099F094AE00E943603019631
:1009E000FF90EF90DF90CF9008954AE0FF90EF9056
:1009F000DF90CF900C943603FC01808191810097A9
:100A000011F00C94880960E070E0CB010895FC01BE
:100A100024813581232B39F421E0FB018081882357
:100A200049F020E007C0808191810E94460C21E0BE
:100A3000892BB9F7822F08950F931F93CF93DF93DC
:100A4000EC0188819981009759F02A813B81261712
:100A5000370730F081E0DF91CF911F910F9108951A
:100A60008B016F5F7F4F0E945C0B009759F0998359
:100A700088831B830A832C813D81232B59F7FC013A
:100A80001082E8CF80E0E7CFCF93DF93EC011982AB
:100A900018821B821A821D821C8270E060E00E9414
:100AA0001C052881398181110FC02115310519F0EC
:100AB000C9010E94D30A198218821D821C821B82DE
:100AC0001A82DF91CF9108951D821C8269E372E042
:100AD000C901DF91CF910C944F0CCF93DF93EC01C0
:100AE00070E060E00E941C052881398181110FC0EF
:100AF0002115310519F0C9010E94D30A1982188203
:100B00001D821C821B821A82DF91CF9108951D8263
:100B10001C8269E372E0C901DF91CF910C944F0C04
:100B2000EF92FF920F931F93CF93DF931F921F9229
:100B3000CDB7DEB78C0169831A82FC01E480F580B1
:100B4000FFEFEF1AFF0AB7010E941C05882381F00E
:100B5000F8012081318184819581BE016F5F7F4FD3
:100B6000820F931F0E944F0CF801F582E48281E00E
:100B70000F900F90DF91CF911F910F91FF90EF9009
:100B80000895CF92DF92EF92FF920F931F93CF932E
:100B9000DF9320917602309177022130310509F000
:100BA00015C1C82F69E372E08CE392E00E9407054B
:100BB000D82F69E372E082E492E00E940705D8230F
:100BC00069E372E088E492E00E9407058D2311F04A
:100BD0000E942804C334B1F48CE392E00E946D05B6
:100BE00082E492E00E946D0588E492E00E946D0527
:100BF000DF91CF911F910F91FF90EF90DF90CF90F9
:100C00000C94280480ED8C0F8A30E8F46C2F86EC6D
:100C100092E00E94D10469E372E088E492E00E94CD
:100C200007056C2F882361F08CE392E0DF91CF9170
:100C30001F910F91FF90EF90DF90CF900C94900553
:100C400082E492E0F3CF69E372E088E492E00E94EC
:100C50000705D82F21E030E0CD3311F430E020E05B
:100C60000D2F10E00223132369E372E08CE392E07E
:100C70000E94070521E030E0882311F030E020E0F9
:100C800020233123232B49F06C2F86EC92E00E9425
:100C9000D1046C2F88E492E0C9CF81E0CD3309F014
:100CA00080E0C1E0D111C0E0C82369E372E082E4D2
:100CB00092E00E940705811189C0CC2309F486C007
:100CC000E091D902E230A0F5E150F0E0EA53FD4FA7
:100CD000848980680E94220464E372E088E492E0E0
:100CE0000E940705882331F18CE392E00E94FC0406
:100CF0006B017C0182E492E00E94FC046C0D7D1D7E
:100D00008E1D9F1D0E94D7048CE392E00E946D050A
:100D100082E492E00E946D0588E492E0DF91CF9139
:100D20001F910F91FF90EF90DF90CF900C946D0585
:100D3000E1E0CBCF66E372E088E492E00E94070531
:100D4000882399F08CE392E00E94FC046B017C0103
:100D500082E492E00E94FC04A7019601261B370B57
:100D6000480B590BCA01B901CDCF68E372E088E4A2
:100D700092E00E940705882379F08CE392E00E94BC
:100D8000FC046B017C0182E492E00E94FC04A70158
:100D900096010E94DE09B6CF6AE372E088E492E031
:100DA0000E940705882309F4AFCF8CE392E00E94EC
:100DB000FC046B017C0182E492E00E94FC049B0134
:100DC000AC01C701B6010E94100ACCCFDF91CF91D0
:100DD0001F910F91FF90EF90DF90CF9008951F9299
:100DE0000F920FB60F9211242F933F938F939F93DF
:100DF000AF93BF938091530290915402A0915502FA
:100E0000B09156023091520223E0230F2D3758F54E
:100E10000196A11DB11D209352028093530290931D
:100E20005402A0935502B093560280914E029091C5
:100E30004F02A0915002B09151020196A11DB11D27
:100E400080934E0290934F02A0935002B0935102B0
:100E5000BF91AF919F918F913F912F910F900FBEB6
:100E60000F901F90189526E8230F0296A11DB11D23
:100E7000D2CF789484B5826084BD84B5816084BD0E
:100E800085B5826085BD85B5816085BD80916E0028
:100E9000816080936E001092810080918100826059
:100EA0008093810080918100816080938100809196
:100EB00080008160809380008091B1008460809385
:100EC000B1008091B00081608093B000809191006A
:100ED0008260809391008091910081608093910065
:100EE000809190008160809390008091A100826049
:100EF0008093A1008091A10081608093A1008091E6
:100F0000A00081608093A000809121018260809385
:100F10002101809121018160809321018091200134
:100F200081608093200180917A00846080937A00B0
:100F300080917A00826080937A0080917A0081604B
:100F400080937A0080917A00806880937A00109272
:100F5000C10082E00E9430040E94280481EC95E0E8
:100F60009093C5028093C402812C912C54018394E8
:100F700022242A94322C50E0652E50E0752E51E048
:100F80005093C3028FB7F89440915302509154028A
:100F900060915502709156028FBF8091B30290917B
:100FA000B402A091B502B091B602481B590B6A0B6E
:100FB0007B0B8091BF029091C002B0E0A0E0C0E046
:100FC00084179507A607B70740F01092C302611473
:100FD0007104A9F20E940000D2CF8091BD02C8170F
:100FE00060F4E091B902F091BA02EC0FF11D62E0F9
:100FF00080810E94F202CF5FF0CF512C8091BE021F
:10100000581608F05FC0052D10E0E091BB02F0918A
:10101000BC02E00FF11F61E080810E94F202E091CA
:10102000BB02F091BC02E00FF11F60E080810E94E2
:10103000C002D501C401052C04C0880F991FAA1F46
:10104000BB1F0A94D2F76C017C01E094F094412C10
:101050008091BD024816F8F4C42DD0E0E091B902A9
:10106000F091BA02EC0FFD1F80810E949402249639
:10107000CC0FDD1FC95ADD4F892B41F4888199813E
:101080008C299D29998388834394E2CF8881998113
:101090008E219F21F7CFE091BB02F091BC02E00FBF
:1010A000F11F61E080810E94C0028091BB0290919B
:1010B000BC02080F191F60E0F80180810E94F20253
:1010C00053949CCFC7E5D2E0FE01878D90A1892B78
:1010D00021F4148E368E258E11A2369652E0E33915
:1010E000F50799F710E08091BD02181708F053C07A
:1010F00000E0E12EF12CEE0CFF1CC701815A9D4F40
:101100007C012091BE02021708F043C0F701608104
:101110007181002E02C0769567950A94E2F7129FBE
:1011200090011124200F311DE7E5F2E080E0458DAC
:10113000568D2417350709F45AC08F5F36968A30CA
:10114000B1F760FF24C0E7E5F2E090E080E0448D75
:10115000411118C0E091B702F091B802E20FF31FFD
:10116000408156E0589FF001599FF00D1124E95A33
:10117000FD4F448F368F258F10A2178E61E00E949D
:10118000900105C0019636968A30910501F70F5FF0
:10119000B8CF1F5FA8CF80E099A19111892F269623
:1011A00092E0C339D907C1F79FB7F8944091530231
:1011B0005091540260915502709156029FBF409326
:1011C000B3025093B4026093B5027093B6028823C1
:1011D00009F4FBCE80917802882309F4F6CE809141
:1011E000760290917702019709F0EFCEF0CE617010
:1011F000C6CF8CE392E00E94440582E492E00E9414
:10120000440588E492E00E9444051092C9021092BD
:10121000C8028CE292E09093C7028093C60282E3F8
:101220008093CA028FEF8093CB0283E38093CC023A
:1012300088E08093CD0289E08093CE028AE080939B
:10124000CF028BE08093D0021092D1021092D20292
:101250001092D3021092D4021092D50281E00E9423
:1012600030041092590210925D0210925C021092AA
:101270005E0282E292E09093580280935702E3E785
:10128000F2E01082148213821582369682E0EF3AE1
:10129000F807B9F784E092E09093BA028093B9021C
:1012A00080E092E09093BC028093BB0284E0809344
:1012B000BD028093BE0288E092E09093B8028093D2
:1012C000B7028AE090E09093C0028093BF0284EF5F
:1012D00091E09093C2028093C1021092C5021092D5
:1012E000C4021092B3021092B4021092B50210928E
:1012F000B6021092C302089588E492E00E9484032B
:1013000082E492E00E9484038CE392E00C948403D4
:101310001F93FC0199278827BC01E8941191103292
:10132000E9F3193010F01E30C8F31B3251F01D32B2
:1013300049F4689406C00E94AF09610F711D811DB8
:10134000911D119110531A30B0F33EF49095809591
:10135000709561957F4F8F4F9F4F1F910895592F23
:10136000482F372F262F660F771F881F991F660F6C
:10137000771F881F991F620F731F841F951F660FA9
:10138000771F881F991F08950E94CF09A59F900D70
:10139000B49F900DA49F800D911D11240895A29FCC
:1013A000B001B39FC001A39F700D811D1124911D39
:1013B000B29F700D811D1124911D0895DB018F9343
:1013C0009F930E94C409BF91AF91A29F800D911D70
:1013D000A39F900DB29F900D11240895A1E21A2EA3
:1013E000AA1BBB1BFD010DC0AA1FBB1FEE1FFF1FC9
:1013F000A217B307E407F50720F0A21BB30BE40B19
:10140000F50B661F771F881F991F1A9469F760955F
:101410007095809590959B01AC01BD01CF01089519
:10142000052E97FB1EF400940E94270A57FD07D053
:101430000E94EE0907FC03D04EF40C94270A509545
:101440004095309521953F4F4F4F5F4F08959095B0
:101450008095709561957F4F8F4F9F4F0895EE0F48
:10146000FF1F881F8BBF0790F691E02D19940F93F3
:101470001F93CF93DF938230910510F482E090E0C8
:10148000E091E002F091E10230E020E0B0E0A0E085
:10149000309799F42115310509F44AC0281B390BFE
:1014A00024303105D8F58A819B816115710589F158
:1014B000FB0193838283FE0111C04081518102812F
:1014C000138148175907E0F04817590799F4109706
:1014D00061F012960C93129713961C933296CF01DB
:1014E000DF91CF911F910F9108950093E002109327
:1014F000E102F4CF2115310551F04217530738F0BE
:10150000A901DB019A01BD01DF01F801C1CFEF01A3
:10151000F9CF9093E1028093E002CDCFFE01E20F7C
:10152000F31F819391932250310939832883D7CFB8
:101530002091DE023091DF02232B41F420911A0228
:1015400030911B023093DF022093DE0220911802BB
:10155000309119022115310541F42DB73EB7409164
:101560001C0250911D02241B350BE091DE02F0910C
:10157000DF02E217F307A0F42E1B3F0B28173907F1
:1015800078F0AC014E5F5F4F2417350748F04E0FDF
:101590005F1F5093DF024093DE02819391939FCFB0
:1015A000F0E0E0E09CCFCF93DF930097E9F0FC01FF
:1015B000329713821282A091E002B091E102ED0114
:1015C00030E020E01097A1F420813181820F931F39
:1015D0002091DE023091DF022817390709F061C03F
:1015E000F093DF02E093DE02DF91CF910895EA01EC
:1015F000CE17DF07E8F54A815B819E014115510551
:10160000B1F7E901FB83EA8349915991C40FD51FD2
:10161000EC17FD0761F4808191810296840F951F7C
:10162000E90199838883828193819B838A83F0E097
:10163000E0E012968D919C9113970097B9F52D914A
:101640003C911197CD010296820F931F2091DE02EB
:101650003091DF022817390739F6309751F510928B
:10166000E1021092E002B093DF02A093DE02BCCF51
:10167000D383C28340815181840F951FC817D90736
:1016800061F44E5F5F4F88819981480F591F5183E4
:1016900040838A819B81938382832115310509F0E0
:1016A000B0CFF093E102E093E0029ECFFD01DC01B8
:1016B000C0CF13821282D7CF4F925F926F927F92E8
:1016C0008F929F92AF92BF92CF92DF92EF92FF9252
:1016D0000F931F93CF93DF938C01009799F4CB0165
:1016E000DF91CF911F910F91FF90EF90DF90CF90FE
:1016F000BF90AF909F908F907F906F905F904F9032
:101700000C94370AFC01E60FF71F9C0122503109A7
:10171000E217F30708F4AEC0D901CD91DC9111971F
:10172000C617D70720F1C530D10578F0CE01049750
:101730008617970750F0C61BD70B2297C193D193FA
:101740006D937C93CF010E94D30AC801DF91CF91A2
:101750001F910F91FF90EF90DF90CF90BF90AF90CF
:101760009F908F907F906F905F904F9008955B0156
:10177000AC1ABD0A4C018C0E9D1EA091E002B091E6
:10178000E102512C412CF12CE12C109731F5809184
:10179000DE029091DF028815990509F05CC04616BB
:1017A000570608F058C080911802909119020097CE
:1017B00041F48DB79EB740911C0250911D02841BCD
:1017C000950BE817F90708F055C0F093DF02E09396
:1017D000DE02F90171836083B8CF8D919C911197DE
:1017E00012966C90129713967C901397A815B905D2
:1017F00059F56C0142E0C40ED11CCA14DB0420F17F
:10180000AC014A195B09DA011296159780F06282E1
:10181000738251834083D9016D937C93E114F10469
:1018200071F0D7011396FC93EE9312978ECF229608
:101830008C0F9D1FF90191838083F301EFCFF0930B
:10184000E102E093E00281CF4816590608F42C012A
:101850007D01D3019ACFCB010E94370A7C0100970A
:1018600049F0AE01B8010E943D0CC8010E94D30AA4
:1018700087016BCF10E000E068CFFB01DC0102C004
:1018800001900D9241505040D8F70895FB01DC01C2
:101890008D91019080190110D9F3990B0895FB01E6
:1018A000DC0101900D920020E1F7089511E0C9E3F9
:1018B000D1E000E006C0802FFE010E942F0A219691
:1018C000011DCA33D10780E00807A9F7F894FFCFBC
:1018D0001A1B1C1D161718193738392F3435362A9C
:1018E0003132332D43303D2B0000E20280000000F6
:1018F00000002E03EE02BD0200000000D104000231
:0C190000330332032B002D002A002F00BF
:020000040003F7
:10E000000D9489F10D94B2F10D94B2F10D94B2F129
:10E010000D94B2F10D94B2F10D94B2F10D94B2F1F0
:10E020000D94B2F10D94B2F10D94B2F10D94B2F1E0
:10E030000D94B2F10D94B2F10D94B2F10D94B2F1D0
:10E040000D94B2F10D94B2F10D94B2F10D94B2F1C0
:10E050000D94B2F10D94B2F10D94B2F10D94B2F1B0
:10E060000D94B2F10D94B2F10D94B2F10D94B2F1A0
:10E070000D94B2F10D94B2F10D94B2F10D94B2F190
:10E080000D94B2F10D94B2F10D94B2F10D94B2F180
:10E090000D94B2F10D94B2F10D94B2F10D94B2F170
:10E0A0000D94B2F10D94B2F10D94B2F10D94B2F160
:10E0B0000D94B2F10D94B2F10D94B2F10D94B2F150
:10E0C0000D94B2F10D94B2F10D94B2F10D94B2F140
:10E0D0000D94B2F10D94B2F10D94B2F10D94B2F130
:10E0E0000D94B2F141546D656761323536300041AF
:10E0F000726475696E6F206578706C6F72657220DE
:10E1000073746B3530305632206279204D4C530099
:10E11000426F6F746C6F616465723E004875683F52
:10E1200000436F6D70696C6564206F6E203D200048
:10E130004350552054797065202020203D20005FF9
:10E140005F4156525F415243485F5F3D2000415658
:10E1500052204C696243205665723D20004743437C
:10E160002056657273696F6E203D20004350552024
:10E1700049442020202020203D20004C6F7720663D
:10E18000757365202020203D20004869676820665F
:10E190007573652020203D200045787420667573D6
:10E1A00065202020203D20004C6F636B2066757336
:10E1B000652020203D20004D617220203720323024
:10E1C000313300312E362E3800342E332E350056A2
:10E1D00023202020414444522020206F7020636F70
:10E1E00064652020202020696E73747275637469E1
:10E1F0006F6E2061646472202020496E74657272B3
:10E20000757074006E6F20766563746F7200726A49
:10E210006D702020006A6D70200057686174207056
:10E220006F72743A00506F7274206E6F7420737541
:10E2300070706F72746564004D7573742062652030
:10E2400061206C6574746572002000577269747483
:10E25000696E672045450052656164696E672045B7
:10E26000450045452065727220636E743D00504F35
:10E27000525400303D5A65726F2061646472003FF1
:10E280003D43505520737461747300403D454550C3
:10E29000524F4D207465737400423D426C696E6B41
:10E2A000204C454400453D44756D70204545505215
:10E2B0004F4D00463D44756D7020464C415348001B
:10E2C000483D48656C70004C3D4C69737420492F83
:10E2D0004F20506F72747300513D51756974005234
:10E2E0003D44756D702052414D00563D73686F7707
:10E2F00020696E7465727275707420566563746FF0
:10E30000727300593D506F727420626C696E6B00BD
:10E310002A0011241FBECFEFD1E2DEBFCDBF01E046
:10E320000CBF12E0A0E0B2E0EEE1FDEF03E00BBFB6
:10E3300002C007900D92A030B107D9F712E0A0E01B
:10E34000B2E001C01D92AE30B107E1F70F9460F367
:10E350000D948DFE01E20EBF0FEF0DBF11241FBE05
:10E360000D9460F30D9400F020E030E040ED57E0B4
:10E3700005C0FA013197F1F72F5F3F4F2817390792
:10E38000C0F308959C01260F311DC901A0E0B0E043
:10E390002F5F3F4FABBFFC018791882361F08093D3
:10E3A000C6008091C00086FFFCCF8091C0008064D1
:10E3B0008093C000EACF08958DE08093C6008091DD
:10E3C000C00086FFFCCF8091C00080648093C000B5
:10E3D0008AE08093C6008091C00086FFFCCF8091C8
:10E3E000C00080648093C00008950F94C2F10F9420
:10E3F000DCF10895FC019081992359F09093C600B7
:10E400008091C00086FFFCCF8091C0008064809323
:10E41000C0003196992379F70895282F982F929567
:10E420009F70892F805D8A3308F0895F8093C600D2
:10E430008091C00086FFFCCF8091C00080648093F3
:10E44000C000822F8F70982F905D9A3308F0995FEB
:10E450009093C6008091C00086FFFCCF8091C000E1
:10E4600080648093C00008959C01FB01853691056E
:10E470001CF46330710594F0C90164E670E00F94F8
:10E480002EFE605D7F4F6093C6008091C00086FFC6
:10E49000FCCF8091C00080648093C0002B30310598
:10E4A00014F43297B4F0C90164E670E00F942EFEC4
:10E4B0006AE070E00F942EFE605D7F4F6093C600AF
:10E4C0008091C00086FFFCCF8091C0008064809363
:10E4D000C000C9016AE070E00F942EFEC0968093E0
:10E4E000C6008091C00086FFFCCF8091C000806490
:10E4F0008093C00008951F93182F8EE692EE60E07F
:10E500000F94C2F11093C6008091C00086FFFCCF2B
:10E510008091C00080648093C0000F94DCF11F9153
:10E5200008952F923F924F925F926F927F928F92B7
:10E530009F92AF92BF92CF92DF92EF92FF920F9392
:10E540001F93DF93CF93CDB7DEB762970FB6F894E2
:10E55000DEBF0FBECDBF382E622ECA01DB015C01CB
:10E560006D01772420E2222E2E010894411C511CBB
:10E570008BC081E0A81680E0B80681E0C80680E084
:10E58000D80628F0C601AA27BB270F940DF2BB2797
:10E59000AD2D9C2D8B2D0F940DF28A2D0F940DF225
:10E5A0002092C6008091C00086FFFCCF8091C00001
:10E5B00080648093C0009DE29093C6008091C0006B
:10E5C00086FFFCCF8091C00080648093C0002092C1
:10E5D000C6008091C00086FFFCCF8091C00080649F
:10E5E0008093C00019828601750188249924A1E0D6
:10E5F0003A1651F03A1620F0B2E03B1661F409C029
:10E600000BBFF701779007C0C7010F9477FE782EF4
:10E6100002C0F7017080872D0F940DF22092C60082
:10E620008091C00086FFFCCF8091C0008064809301
:10E63000C000872D8052F401EF70F0708F3520F408
:10E64000E40DF51D708204C0E40DF51D8EE280839B
:10E650000894E11CF11C011D111D0894811C911CE2
:10E6600090E18916910409F0C2CF80E190E0A0E02A
:10E67000B0E0A80EB91ECA1EDB1E198AC2010F9493
:10E68000FAF10F94DCF16A94662009F072CF629679
:10E690000FB6F894DEBF0FBECDBFCF91DF911F91B3
:10E6A0000F91FF90EF90DF90CF90BF90AF909F9031
:10E6B0008F907F906F905F904F903F902F90089534
:10E6C0002F923F924F925F926F927F928F929F9282
:10E6D000AF92BF92CF92DF92EF92FF920F931F9370
:10E6E000DF93CF93CDB7DEB7CD53D1400FB6F894BB
:10E6F000DEBF0FBECDBF01E20EBF0FEF0DBF94B75F
:10E70000F894A89514BE80916000886180936000A1
:10E7100010926000789493FF05C0E0910002F091A0
:10E7200001021995279A2F9A8091C00082608093E8
:10E73000C00080E18093C40088E18093C1000000A4
:10E74000EE24FF24870144E0A42EB12CCC24DD2448
:10E7500024C0C5010197F1F70894E11CF11C011DCB
:10E76000111D21E2E2162EE4F20620E0020720E06D
:10E77000120718F031E0C32ED12CC801B70127ECE5
:10E780003BE140E050E00F9441FE611571058105C9
:10E79000910519F485B1805885B98091C00087FD35
:10E7A00003C0C114D104A9F2A6014F5F5F4FC25E3E
:10E7B000DE4F59834883CE51D140C25EDE4F8881FF
:10E7C0009981CE51D140019711F00D9410FEC05D9A
:10E7D000DE4F19821882C053D14060E0C15DDE4F28
:10E7E0001882CF52D14088249924C35DDE4F19820C
:10E7F0001882CD52D140C05EDE4F188219821A8233
:10E800001B82C052D140CE5CDE4F188219821A8220
:10E810001B82C253D140EE24FF2487010BBFF701B6
:10E8200007911691C45CDE4F19830883CC53D14005
:10E830000D940BFEC25EDE4F28813981CE51D1404E
:10E840002130310509F52091C600C25EDE4F1982E4
:10E850001882CE51D14022C02F5F3F4F4F4F5F4FA4
:10E86000213082E138078AE7480780E0580780F0C6
:10E87000C45CDE4FE881F981CC53D140EF5FFF4F9C
:10E8800019F0EE27FF27099420E030E040E050E047
:10E890008091C00087FFE0CF2091C600C35DDE4FAE
:10E8A00048815981CD52D1404F5F5F4FC35DDE4FEC
:10E8B00059834883CD52D140213209F063C64A3092
:10E8C000510508F05FC60894811C911C53E0851621
:10E8D000910409F059C600E010E018C081E280936D
:10E8E000C6008091C00086FFFCCF8091C00080648C
:10E8F0008093C0002F5F3F4F2931310579F70F9486
:10E90000DCF10F5F1F4F0530110519F020E030E0FA
:10E91000E5CF10920A0210920B0210920C02109294
:10E920000D02109206021092070210920802109235
:10E930000902109202021092030210920402109235
:10E9400005028FEE90EE60E00F94F5F180E191EE1C
:10E9500060E00F94C2F18091C00087FFFCCF9091DE
:10E96000C600903608F09F759032B8F09093C600BC
:10E970008091C00086FFFCCF8091C00080648093AE
:10E98000C000A0E2A093C6008091C00086FFFCCF2B
:10E990008091C00080648093C000983409F4D7C18E
:10E9A0009934B8F4923409F459C1933458F490333B
:10E9B00019F1903308F4E3C59F33A1F1903409F0C5
:10E9C000DEC5BDC0953409F470C1963409F0D7C5D1
:10E9D00098C1923509F42BC2933538F49C3409F46C
:10E9E000F5C1913509F0CBC518C2963509F445C279
:10E9F000993509F0C4C567C483E792EE62E00F94CD
:10EA0000F5F110920602109207021092080210927D
:10EA1000090210920A0210920B0210920C0210923C
:10EA20000D0213C18FE792EE62E00F94F5F18FEEC5
:10EA300090EE60E00F94F5F181E291EE60E00F94CA
:10EA4000C2F187EB91EE60E00F94F5F180E391EE77
:10EA500060E00F94C2F184EE90EE60E00F94F5F167
:10EA60008FE391EE60E00F94C2F186E090E061E008
:10EA700070E00F9434F20F94DCF18DE591EE60E0DC
:10EA80000F94C2F189EC91EE60E00F94F5F18EE401
:10EA900091EE60E00F94C2F183EC91EE60E00F9490
:10EAA000F5F18CE691EE60E00F94C2F18EE10F94E7
:10EAB0000DF288E90F940DF281E00F940DF20F949E
:10EAC000DCF18BE791EE60E00F94C2F119E0E0E039
:10EAD000F0E010935700E4918E2F0F940DF20F94F5
:10EAE000DCF18AE891EE60E00F94C2F1E3E0F0E03F
:10EAF00010935700E4918E2F0F940DF20F94DCF1D8
:10EB000089E991EE60E00F94C2F1E2E0F0E0109349
:10EB10005700E4918E2F0F940DF20F94DCF188EAE8
:10EB200091EE60E00F94C2F1E1E0F0E01093570045
:10EB30001491812F0F940DF20F94DCF107CF8BE825
:10EB400092EE62E00F94F5F18BE492EE60E00F94A8
:10EB5000F5F10F94DCF100E010E019C0C8016F2D51
:10EB60000F947FFEFF2031F489E492EE60E00F9471
:10EB7000C2F10BC0F092C6008091C00086FFFCCFAE
:10EB80008091C00080648093C0000F5F1F4FC80158
:10EB900081519F41A0E0B0E0ABBFFC01F790BAE229
:10EBA000FB1621F0E2E000301E07C1F60F94DCF105
:10EBB0000F94DCF187E592EE60E00F94F5F10F948D
:10EBC000DCF1CC24DD2400E010E01EC0C8010F946D
:10EBD00077FEF82E882331F489E492EE60E00F94FA
:10EBE000C2F10BC08093C6008091C00086FFFCCFAD
:10EBF0008091C00080648093C000FE1419F00894D6
:10EC0000C11CD11C0F5F1F4FC80181519F41A0E063
:10EC1000B0E0ABBFFC01E790FAE2EF1621F022E092
:10EC20000030120799F60F94DCF10F94DCF182E6C4
:10EC300092EE60E00F94C2F1C60161E070E00F94C3
:10EC400034F20F94DCF10F94DCF110920202109276
:10EC50000302109204021092050278CE89E992EE26
:10EC600062E00F94F5F1279A2F9A16C02F9880E052
:10EC700090E0E0EDF7E03197F1F7019684369105E9
:10EC8000C1F72F9A80E090E0E0EDF7E03197F1F7DF
:10EC9000019684369105C1F78091C00087FFE6CFC9
:10ECA0008091C00087FFFCCF64C485EA92EE62E0E9
:10ECB0000F94F5F140910202509103026091040219
:10ECC0007091050281E020E10F9491F2809102029F
:10ECD00090910302A0910402B091050280509F4FD1
:10ECE000AF4FBF4F8093020290930302A0930402A0
:10ECF000B093050280509041A040B04008F426CE69
:10ED0000A4CF83EB92EE62E00F94F5F140910602FE
:10ED100050910702609108027091090280E020E1A1
:10ED20000F9491F28091060290910702A09108023F
:10ED3000B091090280509F4FAF4FBF4F80930602A2
:10ED400090930702A0930802B0930902FFCD80ECD4
:10ED500092EE62E00F94F5F183E792EE60E00F949B
:10ED6000F5F18FE792EE60E00F94F5F18BE892EE0B
:10ED700060E00F94F5F189E992EE60E00F94F5F10F
:10ED800085EA92EE60E00F94F5F183EB92EE60E09D
:10ED90000F94F5F180EC92EE60E00F94F5F187ECC2
:10EDA00092EE60E00F94F5F188ED92EE60E00F9442
:10EDB000F5F18FED92EE60E00F94F5F18AEE92EEB0
:10EDC00060E00F94F5F183E093EEBDCD87EC92EE19
:10EDD00062E00F94F5F181E40F947BF282E40F94EA
:10EDE0007BF283E40F947BF284E40F947BF285E45E
:10EDF0000F947BF286E40F947BF287E40F947BF20E
:10EE000088E40F947BF28AE40F947BF28BE40F94F6
:10EE10007BF28CE40F947BF299CD88ED92EE62E068
:10EE20000F94F5F1772473948824992409C48FED05
:10EE300092EE62E00F94F5F140910A0250910B02BC
:10EE400060910C0270910D0282E020E10F9491F22A
:10EE500080910A0290910B02A0910C02B0910D02D8
:10EE600080509F4FAF4FBF4F80930A0290930B0289
:10EE7000A0930C02B0930D0269CD8AEE92EE62E08F
:10EE80000F94F5F184EE90EE60E00F94F5F18FECC5
:10EE900091EE60E00F94F5F1662477244301CC5D98
:10EEA000DE4F19821882C452D140D401C301B695F5
:10EEB000A79597958795CA5DDE4F88839983AA8326
:10EEC000BB83C652D140CC5DDE4FA881B981C4520C
:10EED000D1401196CC5DDE4FB983A883C452D14096
:10EEE000CD0162E070E00F9434F2B0E2B093C6005E
:10EEF0008091C00086FFFCCF8091C0008064809329
:10EF0000C000EDE2E093C6008091C00086FFFCCF18
:10EF10008091C00080648093C000F0E2F093C6004E
:10EF20008091C00086FFFCCF8091C00080648093F8
:10EF3000C000CA5DDE4FE880F9800A811B81C6529D
:10EF4000D140BB27A12F902F8F2D0F940DF2CA5DBA
:10EF5000DE4F8881C652D1400F940DF2B0E2FB2EF5
:10EF6000F092C6008091C00086FFFCCF8091C00067
:10EF700080648093C0000DE30093C6008091C000C0
:10EF800086FFFCCF8091C00080648093C00010E2B7
:10EF90001093C6008091C00086FFFCCF8091C00016
:10EFA00080648093C0008BBEF3012791C65DDE4F65
:10EFB0002883CA52D140A22EBB24CC24DD2408943D
:10EFC000611C711C811C911C8BBEF3018791282E42
:10EFD0003324442455240894611C711C811C911C09
:10EFE0008BBEF3013791C55DDE4F3883CB52D140E4
:10EFF0000894611C711C811C911C8BBEF30147910C
:10F00000C45DDE4F4883CC52D140ADEFEA2EAFEF66
:10F01000FA2EAFEF0A2FAFEF1A2F6E0C7F1C801E57
:10F02000911E142D032DF22CEE24EA0CFB1C0C1D5A
:10F030001D1D0F940DF220E22093C6008091C000A8
:10F0400086FFFCCF8091C00080648093C000C65DC5
:10F05000DE4F8881CA52D1400F940DF230E23093D6
:10F06000C6008091C00086FFFCCF8091C000806404
:10F070008093C000C45DDE4F8881CC52D1400F9494
:10F080000DF240E24093C6008091C00086FFFCCFA5
:10F090008091C00080648093C000C55DDE4F888190
:10F0A000CB52D1400F940DF250E25093C6008091A4
:10F0B000C00086FFFCCF8091C00080648093C000B8
:10F0C0008FEFE8168FEFF80680E0080780E018075A
:10F0D00031F484E092EE60E00F94C2F1DFC0D80119
:10F0E000C7018070907CA070B0708050904CA040A0
:10F0F000B040D1F52FEF3FE340E050E0E222F322B1
:10F1000004231523CA5DDE4FA880B980CA80DB8046
:10F11000C652D140AE0CBF1CC01ED11EAA0CBB1CD7
:10F12000CC1CDD1C8EE092EE60E00F94C2F1BB2798
:10F13000A12F902F8F2D0F940DF28E2D0F940DF285
:10F1400030E23093C6008091C00086FFFCCF8091F2
:10F15000C00080648093C0004EE34093C60080915D
:10F16000C00086FFFCCF87C08EE09EEFA0E0B0E03D
:10F17000E822F9220A231B239CE0E91694E9F90608
:10F1800090E0090790E0190709F088C0C45DDE4FE0
:10F19000A881CC52D140EA2EFF2400E010E0102FCD
:10F1A0000F2DFE2CEE24C55DDE4FB881CB52D14031
:10F1B000EB0EF11C011D111DD601C501817090706F
:10F1C000A070B070DC0199278827E80EF91E0A1F8D
:10F1D0001B1F20EF30E040E050E0A222B322C42207
:10F1E000D52241E1AA0CBB1CCC1CDD1C4A95D1F7F1
:10F1F000EA0CFB1C0C1D1D1D81E090E0A0E0B0E0BE
:10F20000282239224A225B2235E1220C331C441C7D
:10F21000551C3A95D1F7E20CF31C041D151D57013E
:10F220006801AA0CBB1CCC1CDD1C85E192EE60E0E1
:10F230000F94C2F1C801AA27BB270F940DF2BB2778
:10F24000A12F902F8F2D0F940DF28E2D0F940DF274
:10F2500090E29093C6008091C00086FFFCCF809121
:10F26000C00080648093C000AEE3A093C60080918C
:10F27000C00086FFFCCF8091C00080648093C000F6
:10F28000C601AA27BB270F940DF2BB27AD2D9C2DDD
:10F290008B2D0F940DF28A2D0F940DF20F94DCF14B
:10F2A000CC5DDE4FE881F981C452D140F99709F471
:10F2B0004DCBF4E0EF2EF12C012D112D6E0C7F1CA7
:10F2C000801E911EF2CD83E093EE62E00F94F5F183
:10F2D0008AE192EE60E00F94C2F18091C00087FF56
:10F2E000FCCF1091C6001F751093C6008091C0001E
:10F2F00086FFFCCF8091C00080648093C0000F9493
:10F30000DCF1812F81548A3108F036C1163409F4BA
:10F3100095C0173490F4133409F44EC0143430F40B
:10F320001134F1F0123409F01DC130C0143409F465
:10F3300059C0153409F016C16BC01A3409F4C4C0A1
:10F340001B3438F4173409F48FC0183409F00AC19B
:10F35000A1C01B3409F4D2C01C3409F003C1E8C0B9
:10F360008FEF81B90DC082B1809582B980E090E0C5
:10F37000E0EDF7E03197F1F70196883C9105C1F790
:10F380008091C00087FFEFCF12B8EFC08FEF84B934
:10F390000DC085B1809585B980E090E0E0EDF7E0A3
:10F3A0003197F1F70196883C9105C1F78091C00033
:10F3B00087FFEFCF15B8D9C08FEF87B90DC088B1DF
:10F3C000809588B980E090E0E0EDF7E03197F1F7C3
:10F3D0000196883C9105C1F78091C00087FFEFCF6F
:10F3E00018B8C3C08FEF8AB90DC08BB180958BB9A7
:10F3F00080E090E0E0EDF7E03197F1F70196883C8E
:10F400009105C1F78091C00087FFEFCF1BB8ADC059
:10F410008FEF8DB90DC08EB180958EB980E090E0F0
:10F42000E0EDF7E03197F1F70196883C9105C1F7DF
:10F430008091C00087FFEFCF1EB897C08FEF80BBD1
:10F440000DC081B3809581BB80E090E0E0EDF7E0F6
:10F450003197F1F70196883C9105C1F78091C00082
:10F4600087FFEFCF11BA81C08FEF83BB0DC084B38C
:10F47000809584BB80E090E0E0EDF7E03197F1F714
:10F480000196883C9105C1F78091C00087FFEFCFBE
:10F4900014BA6BC08FEF809301010FC080910201FD
:10F4A00080958093020180E090E0E0EDF7E03197F5
:10F4B000F1F70196883C9105C1F78091C00087FF64
:10F4C000EDCF1092020151C08FEF809304010FC065
:10F4D0008091050180958093050180E090E0E0ED4A
:10F4E000F7E03197F1F70196883C9105C1F78091DB
:10F4F000C00087FFEDCF1092050137C08FEF8093DA
:10F5000007010FC08091080180958093080180E079
:10F5100090E0E0EDF7E03197F1F70196883C910536
:10F52000C1F78091C00087FFEDCF109208011DC088
:10F530008FEF80930A010FC080910B01809580931B
:10F540000B0180E090E0E0EDF7E03197F1F70196F4
:10F55000883C9105C1F78091C00087FFEDCF1092E4
:10F560000B0103C085E292EEEEC98091C00087FFD7
:10F57000FCCF8091C600EAC988E392EEE4C98CE131
:10F5800091EEE1C988249924933011F1943028F444
:10F59000913089F09230B8F408C0953061F195301F
:10F5A000F0F0963009F048C043C02B3109F042C951
:10F5B00091E06BE13FC96227C15DDE4F2883CF52E6
:10F5C000D14092E037C9B22FA0E0622793E032C960
:10F5D000822F90E0A82BB92B622794E02BC92E3004
:10F5E00009F039C3622795E0C05DDE4F19821882A9
:10F5F000C053D1401FC9E1E0F0E0EC0FFD1FC05D3A
:10F60000DE4F08811981C053D140E00FF11F2083E4
:10F610000F5F1F4FC05DDE4F19830883C053D14079
:10F6200062270A171B0709F005C9D80196E002C92D
:10F63000261709F010C303C0973009F0FBC87724E0
:10F640009981933109F412C19431C8F4963009F4C8
:10F65000D8C0973050F4923009F406C1933009F4C1
:10F660006DC0913009F059C253C0913109F477C08F
:10F67000923108F0BBC0903109F04FC2F5C098310B
:10F6800009F487C0993150F4953109F4EFC09531F0
:10F6900008F4C6C1963109F040C2C2C19A3109F4DA
:10F6A0006CC09A3108F491C09B3109F45BC09D3164
:10F6B00009F033C29D81903359F48F81882311F46E
:10F6C0009EE11CC0813011F091E018C098E916C08D
:10F6D000892F807591F0903539F4E0E0F0E089E011
:10F6E0008093570094910AC0983539F4E3E0F0E034
:10F6F00089E080935700949101C090E01A821B82A8
:10F700008D818C831D829E831F8227E030E009C299
:10F710001A8288E08B8381E48C8386E58D8382E581
:10F720008E8389E48F8383E5888780E589878FE5E9
:10F730008A8782E38B872BE030E0F3C18A818139AD
:10F7400041F0823941F0803911F48FE005C080E04A
:10F7500003C082E001C08AE01A828B8344C0772410
:10F76000739482C08D81882311F48EE12CC0813086
:10F7700011F081E028C088E926C01A82E1E0F0E0BB
:10F7800089E08093570084918B831C8224E030E0D1
:10F79000C8C18B81803589F48C81883039F4E2E0EE
:10F7A000F0E089E08093570084910DC0E0E0F0E044
:10F7B00089E080935700849106C0E3E0F0E089E09F
:10F7C0008093570084911A82DFCF8D81836C99E0FA
:10F7D000E1E0F0E0082E90935700E89507B600FCB2
:10F7E000FDCF1A821B8223E030E09BC180EC8A832C
:10F7F000CE5CDE4F188219821A821B82C253D1401E
:10F800008EC18A8190E0A0E0B0E0582F44273327D2
:10F8100022278B8190E0A0E0B0E0DC0199278827C7
:10F82000282B392B4A2B5B2B8D8190E0A0E0B0E098
:10F83000282B392B4A2B5B2B8C8190E0A0E0B0E089
:10F84000BA2FA92F982F8827282B392B4A2B5B2BCF
:10F85000220F331F441F551FC05EDE4F288339839C
:10F860004A835B83C052D1401A8259C13A81C95C34
:10F87000DE4F3883C753D140CA5CDE4F1882C6536F
:10F88000D1408B81C82EDD24CA5CDE4F488159816E
:10F89000C653D140C42AD52A933109F082C0CE5C28
:10F8A000DE4F88819981AA81BB81C253D1408050AB
:10F8B000904CA340B04030F583E0CE5CDE4FE88052
:10F8C000F9800A811B81C253D140F70100935B008C
:10F8D00080935700E89507B600FCFDCFCE5CDE4F65
:10F8E000088119812A813B81C253D14000501F4FAA
:10F8F0002F4F3F4FCE5CDE4F088319832A833B8313
:10F90000C253D140C05EDE4F488159816A817B81FC
:10F91000C052D140DE011B9631E08C9111962C91A2
:10F9200011971296C75CDE4F2883C953D140C85C3B
:10F93000DE4F1882C853D14090E0C85CDE4FE881AA
:10F94000F981C853D1408E2B9F2B0C01FA01609393
:10F950005B0030935700E89511244E5F5F4F6F4F67
:10F960007F4F0EEFE02E0FEFF02ECE0CDF1CC114F8
:10F97000D10499F685E0C05EDE4F088119812A81A5
:10F980003B81C052D140F80120935B008093570027
:10F99000E89507B600FCFDCF81E180935700E8951C
:10F9A00035C0C05EDE4F88819981AA81BB81C0527B
:10F9B000D140B695A795979587957C018601ABE0D8
:10F9C000AA2EB12CAC0EBD1E0BC0D5016D915D01F0
:10F9D000C7010F947FFE0894E11CF11C01501040F8
:10F9E0000115110591F7A60160E070E0440F551F65
:10F9F000661F771FC05EDE4FE880F9800A811B8199
:10FA0000C052D1404E0D5F1D601F711F1A82C05E33
:10FA1000DE4F488359836A837B83C052D1407FC0C5
:10FA2000FA80C55CDE4FF882CB53D140C65CDE4F16
:10FA30001882CA53D1408B81C82EDD24C65CDE4FAC
:10FA400008811981CA53D140C02AD12A1A828981DA
:10FA5000BE016D5F7F4F843121F59601C05EDE4FA0
:10FA6000E880F9800A811B81C052D1400BBFF701A9
:10FA700087919691DB018C9311969C936E5F7F4FDB
:10FA8000D801C7010296A11DB11DC05EDE4F88835B
:10FA90009983AA83BB83C052D14022503040F1F6F3
:10FAA00036C0C05EDE4F288139814A815B81C052F9
:10FAB000D1400894C108D108760100E010E0089414
:10FAC000C11CD11C0894E11CF11C011D111DE20E8A
:10FAD000F31E041F151F21BDBB27A52F942F832FB5
:10FAE00082BD2F5F3F4F4F4F5F4FF89A80B5DB01CC
:10FAF0008D93BD012E153F054007510761F7C05E8C
:10FB0000DE4F288339834A835B83C052D1409601FC
:10FB10002D5F3F4FFB01108204C080EC8A8322E0FE
:10FB200030E08BE18093C6008091C00086FFFCCF5F
:10FB30008091C00080648093C000C15DDE4FF88179
:10FB4000CF52D140F093C6008091C00086FFFCCF19
:10FB50008091C00080648093C000432F3093C60022
:10FB60008091C00086FFFCCF8091C00080648093AC
:10FB7000C000922F2093C6008091C00086FFFCCF6A
:10FB80008091C00080648093C0008EE08093C600A6
:10FB90008091C00086FFFCCF8091C000806480937C
:10FBA000C00065E1C15DDE4FE880CF52D1406E25D7
:10FBB00069276427FE01319610C090819093C6009A
:10FBC0008091C00086FFFCCF31968091C000806498
:10FBD0008093C0006927215030402115310569F715
:10FBE0006093C6008091C00086FFFCCF8091C0006A
:10FBF00080648093C00085B1805885B9772081F4F6
:10FC0000C15DDE4F0881CF52D1400F5FC15DDE4F35
:10FC10000883CF52D14090E0A0E0B0E00D941AF4F8
:10FC200027982F9880E090E020ED37E0F901319798
:10FC3000F1F7019684369105C9F700008091C00064
:10FC40008D7F8093C00081E180935700E895EE2777
:10FC5000FF270994FFCF90E00D941AF497FB092E2B
:10FC600007260AD077FD04D02ED006D000201AF443
:10FC7000709561957F4F0895F6F7909581959F4F08
:10FC80000895A1E21A2EAA1BBB1BFD010DC0AA1FDD
:10FC9000BB1FEE1FFF1FA217B307E407F50720F0F5
:10FCA000A21BB30BE40BF50B661F771F881F991F70
:10FCB0001A9469F760957095809590959B01AC01B9
:10FCC000BD01CF010895AA1BBB1B51E107C0AA1FAC
:10FCD000BB1FA617B70710F0A61BB70B881F991FED
:10FCE0005A95A9F780959095BC01CD010895F99991
:10FCF000FECF92BD81BDF89A992780B50895262F31
:10FD0000F999FECF1FBA92BD81BD20BD0FB6F89400
:0EFD1000FA9AF99A0FBE01960895F894FFCF63
:00000001FF
