:100000000C9428010C9459010C9459010C94590139
:100010000C9459010C9459010C9459010C945901F8
:100020000C9459010C9459010C9459010C945901E8
:100030000C9459010C9459010C9459010C945901D8
:100040000C9459010C9459010C9459010C945901C8
:100050000C9459010C9459010C9459010C94DF0330
:100060000C9459010C9459010C9459010C945901A8
:100070000C9459010C9459010C9459010C94590198
:100080000C9459010C9459010C9459010C94590188
:100090000C9459010C9459010C9459010C94590178
:1000A0000C9459010C9459010C9459010C94590168
:1000B0000C9459010C9459010C9459010C94590158
:1000C0000C9459010C9459010C9459010C94A903F6
:1000D0000C947F030C9459010C9459010C94590110
:1000E0000C9459010C9415030C94BF020C943E021D
:1000F0000C9497010C94D6020C94B9010C94110342
:100100000C94E5020C94FD020C94EF020C947D0516
:100110000C94EB020C940B030C94DE020C94DA02A8
:100120000C9407030C9403030C94E2020C94C40295
:100130000C94F9020C94F5020C94AB010C94F101AF
:100140000C9488010C945B0100000A0B02090C0D51
:100150000E0807030401000000000000000000007A
:10016000000000000000000000000000000000008F
:10017000000000001211100000000000000000004C
:10018000000000000000000000000000000000006F
:100190002200250028002B002E003100340002012F
:1001A0000000050108010B010000210024002700C8
:1001B0002A002D0030003300010100000401070176
:1001C0000A010505050507050808080802020202DC
:1001D0000A0A0808040404040101010101010101E3
:1001E0000303030303030303040707070C0C0C0CAE
:1001F0000C0C0C0C02020202060606060606060697
:100200000B0B0B0B0B0B0B0B010210202008081023
:100210002040102040800201020108040201010276
:10022000040810204080804020100804020180044F
:1002300002018040201008040201080402010102AA
:1002400004081020408001020408102040807D0531
:1002500011241FBECFEFD1E2DEBFCDBF00E00CBF47
:1002600017E0A0E0B2E0E8E6FBE000E00BBF02C070
:1002700007900D92AE31B107D9F727E0AEE1B7E0B4
:1002800001C01D92A43CB207E1F711E0C8E2D1E041
:1002900000E006C021970109802FFE010E94AA05F7
:1002A000C732D10780E00807A9F70E9429040C94FF
:1002B000B2050C940000AF92BF92CF92DF92EF9202
:1002C000FF920F931F93CF93DF936C017B018B0100
:1002D000040F151FEB015E01AE18BF08C017D10750
:1002E00059F06991D601ED91FC910190F081E02DDA
:1002F000C6011995892B79F7C501DF91CF911F911F
:100300000F91FF90EF90DF90CF90BF90AF90089546
:10031000FC01538D448D252F30E0842F90E0821B0B
:10032000930B541710F0CF96089501970895FC0190
:10033000918D828D981761F0A28DAE0FBF2FB11DE8
:100340005D968C91928D9F5F9F73928F90E0089540
:100350008FEF9FEF0895FC01918D828D981731F0FA
:10036000828DE80FF11D858D90E008958FEF9FEF4E
:100370000895FC01918D228D892F90E0805C9F4F24
:10038000821B91098F739927089587E297E00E9455
:10039000B90121E0892B09F420E0822F0895FC01A6
:1003A000A48DA80FB92FB11DA35ABF4F2C91848DD6
:1003B00090E001968F739927848FA689B7892C9333
:1003C000A089B1898C91837080648C93938D848D86
:1003D000981306C00288F389E02D80818F7D808389
:1003E0000895EF92FF920F931F93CF93DF93EC0149
:1003F00081E0888F9B8D8C8D98131AC0E889F989CC
:10040000808185FF15C09FB7F894EE89FF896083CE
:10041000E889F98980818370806480839FBF81E04F
:1004200090E0DF91CF911F910F91FF90EF90089591
:10043000F62E0B8D10E00F5F1F4F0F731127E02E6C
:100440008C8D8E110CC00FB607FCFACFE889F989A4
:10045000808185FFF5CFCE010E94CF01F1CFEB8DDA
:10046000EC0FFD2FF11DE35AFF4FF0829FB7F89478
:100470000B8FEA89FB8980818062CFCFCF93DF9396
:10048000EC01888D8823B9F0AA89BB89E889F989AC
:100490008C9185FD03C0808186FD0DC00FB607FCE1
:1004A000F7CF8C9185FFF2CF808185FFEDCFCE0114
:1004B0000E94CF01E9CFDF91CF91089580E090E0D5
:1004C000892B49F080E090E0892B29F00E94000000
:1004D00081110E94000080E090E0892B49F080E0CB
:1004E00090E0892B29F00E94000081110E940000F9
:1004F00080E090E0892B29F00E94C50181110E94C3
:10050000000080E090E0892B49F080E090E0892BAA
:1005100029F00E94000081110C9400000895282FFA
:1005200030E0F901E85BFE4F9491F901E85FFD4F7F
:1005300044912E533E4FF9012491222309F435C0F2
:10054000992311F191509231F8F4E92FF0E08827C6
:10055000E355FD4F8F4F0C94AA05DE02E202BF0265
:10056000D602DA02C402E502EB02EF02F502F9025A
:10057000FD0203030703C4020B031103150380915B
:1005800080008F7780938000E22FF0E0EE0FFF1F56
:10059000E257FE4FA591B4918FB7F894EC91611199
:1005A00048C040954E234C938FBF089580918000A2
:1005B0008F7DE8CF80918000877FE4CF84B58F77EF
:1005C00084BDE2CF84B58F7DFBCF8091B0008F7763
:1005D0008093B000D9CF8091B0008F7DF9CF80910A
:1005E00090008F7780939000CFCF809190008F7D87
:1005F000F9CF80919000877FF5CF8091A0008F7711
:100600008093A000C1CF8091A0008F7DF9CF809111
:10061000A000877FF5CF809120018F778093200104
:10062000B3CF809120018F7DF9CF80912001877F0A
:10063000F5CF4E2BB8CF3FB7F89480912307909118
:100640002407A0912507B091260726B5A89B05C0D1
:100650002F3F19F00196A11DB11D3FBFBA2FA92F41
:10066000982F8827BC01CD01620F711D811D911D3E
:1006700042E0660F771F881F991F4A95D1F70895AA
:100680008F929F92AF92BF92CF92DF92EF92FF92A2
:100690004B015C010E941B036B017C010E941B0348
:1006A0006C197D098E099F09683E7340810591058B
:1006B000A8F321E0821A9108A108B10888EEC80EBB
:1006C00083E0D81EE11CF11C81149104A104B10443
:1006D00029F7FF90EF90DF90CF90BF90AF909F9061
:1006E0008F900895FC0101900020E9F73197AF0148
:1006F000481B590BBC0187E297E00C945B011F92E9
:100700000F920FB60F9211240BB60F922F933F93B7
:100710004F935F936F937F938F939F93AF93BF9309
:10072000EF93FF9387E297E00E94CF01FF91EF9153
:10073000BF91AF919F918F917F916F915F914F91F9
:100740003F912F910F900BBE0F900FBE0F901F90F7
:1007500018951F920F920FB60F9211240BB60F929D
:100760002F938F939F93EF93FF93E0913707F0912F
:1007700038078081E0913D07F0913E0782FD1DC062
:100780009081809140078F5F8F732091410782177E
:1007900041F0E0914007F0E0E95DF84F958F8093DC
:1007A0004007FF91EF919F918F912F910F900BBE7A
:1007B0000F900FBE0F901F9018958081F2CF1F925F
:1007C0000F920FB60F9211242F933F938F939F9305
:1007D000AF93BF9380911F0790912007A0912107AD
:1007E000B091220730911E0723E0230F2D3758F5D3
:1007F0000196A11DB11D20931E0780931F079093A2
:100800002007A0932107B09322078091230790919E
:100810002407A0912507B09126070196A11DB11DBF
:100820008093230790932407A0932507B09326076E
:10083000BF91AF919F918F913F912F910F900FBEDC
:100840000F901F90189526E8230F0296A11DB11D49
:10085000D2CF789484B5826084BD84B5816084BD34
:1008600085B5826085BD85B5816085BD80916E004E
:10087000816080936E00109281008091810082607F
:1008800080938100809181008160809381008091BC
:1008900080008160809380008091B10084608093AB
:1008A000B1008091B00081608093B0008091910090
:1008B000826080939100809191008160809391008B
:1008C000809190008160809390008091A10082606F
:1008D0008093A1008091A10081608093A10080910C
:1008E000A00081608093A0008091210182608093AC
:1008F000210180912101816080932101809120015B
:1009000081608093200180917A00846080937A00D6
:1009100080917A00826080937A0080917A00816071
:1009200080937A0080917A00806880937A00109298
:10093000C1002CE132E0C2E1D2E08991999199277E
:10094000FC01E85FFD4F44918E539E4FFC01849162
:10095000882399F090E0880F991FFC01E855FE4F1D
:10096000A591B491FC01E257FE4F859194918FB708
:10097000F894EC91E42BEC938FBF2C173D07E9F62C
:10098000E0913707F091380782E08083E0913307E8
:10099000F09134071082E0913507F09136078FEC23
:1009A000808310923F07E0913B07F0913C0786E07F
:1009B0008083E0913907F0913A07808180618083DC
:1009C000E0913907F0913A07808188608083E09157
:1009D0003907F0913A07808180688083E091390778
:1009E000F0913A0780818F7D808323E2D22E87E2C7
:1009F00097E00E94B90118161906ACF587E297E056
:100A00000E949701182F682F87E297E00E94F1015A
:100A100088E097E00E9472038FE9810F8A3130F5F8
:100A2000812F012E000C990B815691092FEB210F7C
:100A30002A3130F4812F012E000C990B8154910939
:100A400020ED210F2A3020F4812F110F990B4697AA
:100A50008F3F980771F48BE097E00E94720388E063
:100A600097E00E9472030E945E02C1CF8FEF9FEF5A
:100A7000DDCFD89E8001D99E100D1124065C1D4F3C
:100A800096E0A92EB12C82E1882E82E0982EF12CDE
:100A9000E12CF4018081F2E08F0E911CF801EE0D43
:100AA000FF1D60810E948F022FEFE21AF20A85E09B
:100AB000E816F10471F764E670E080E090E00E94CF
:100AC000400391E0A91AB10805501109EFEFAE16E5
:100AD000BE06C9F602E112E0F80180810E5F1F4FE9
:100AE00060E00E948F02C017D107B1F768EC70E098
:100AF00080E090E00E944003B6CFE7E2F7E0138287
:100B0000128288EE93E0A0E0B0E084839583A68310
:100B1000B78384E092E09183808385ED90E09587B0
:100B2000848784ED90E09787868780ED90E0918BB5
:100B3000808B81ED90E0938B828B82ED90E0958BA2
:100B4000848B86ED90E0978B868B118E128E138EA0
:100B5000148E0895EE0FFF1F881F8BBF0790F6912C
:080B6000E02D1994F894FFCF79
:100B680000000000F1015B0188013E02B901970114
:100B7800AB0116001700180019001A000000010048
:100B88000000010001000100000001010000000157
:100B98000101010101010000000101000000010143
:100BA8000101010001000000010100000001010134
:100BB8000101000100000001010000000101010124
:100BC8000101000001010100010000000100000016
:100BD800000100000000010000000000010000000A
:100BE80000000101010101010000010000010001F4
:100BF80000000001010000000101000000010100E7
:100C080000010001010100000101010101010000D2
:100C180000000100000000010101010001000000C6
:100C280000010000000001010101010101010101B1
:100C380001000000000100000000010101010001A5
:100C48000000000001000000000100000000000199
:100C58000101000100000001010000000001000185
:100C68000101010000000101000000010001010173
:100C78000001000000010100000001010000000166
:100C88000101010101010000000101000000010152
:100C98000000000100010101000000010000000047
:100CA8000100000000010000000001000000000138
:100CB8000000000101010000000101010000000125
:100CC8000000000001000000000100010000010018
:100CD8000100000100000101000001000000010105
:100CE80000000100010001000001010000000100F6
:100CF80001000001000001000100000001010000E6
:100D080000000100000000010000000001000000D8
:100D180000010000000001000000000101010101C4
:100D280001000000010101000101010101010101AF
:100D380000010001010000000101000000010100A4
:100D48000000010100000001010100000101010192
:100D58000001010001000101000101010100000181
:100D68000101000000010001010100010000000173
:100D78000100000001010000000101000000010164
:100D88000000000100010101000101010100010052
:100D98000000010100000001010101010001000043
:100DA8000000010000000001000000000001010136
:100DB8000001000000010100000001010001000124
:100DC8000100000101010000010000010100010112
:100DD8000101010001000000010100000001010102
:100DE80001010001000100000100000100010000F4
:100DF80000010001010101010000000001000000E4
:100E080000000101010000000000010000000001D5
:100E180001010101000101010101000001000000C0
:100E280000010000000001000000000100000000B7
:100E380001000000000100000100000001010000A5
:100E48000001010000000101000000010100000094
:100E58000101000000010001010100010000000182
:100E68000100000001010000000101000000010074
:100E78000100010000010001000000010000010064
:100E88000000010100000001010000000101000153
:100E9800000101010101010101000101010000003F
:100EA8000101000000010101000101000101010030
:100EB8000000010000000101010001010001010121
:100EC8000000000101000000010100000001000114
:100ED8000001000000010000000001000000000106
:100EE80000000000010000010101010100000000F4
:100EF80001000000010000000100000001000000E6
:100F080001000000000101010101000101010001CF
:100F180000000001010000010101000100010101C0
:100F280000000101000000010001010100000001B2
:100F380000000001010000010101000000000100A3
:100F48000000000100000000010000010101010192
:100F58000001010100010000000101000000010082
:100F68000000010000000100000001000000010174
:100F78000101010001010100010000000100000061
:100F88000001000001010000000000010100000054
:100F98000100010101000000000100000001010042
:100FA8000001000100010000010001010101010030
:100FB8000000010000000001000101010101010021
:100FC8000000000100000000000101010000000015
:100FD8000001000000000101010101000001010100
:100FE80000010000000101000000000101010100F2
:100FF80001000000010100000001000101010001E1
:1010080001010101000000000100000001000000D2
:1010180001000000010000000001000000010000C4
:1010280000000001010100010000000101000000B2
:1010380001000101010001000000010100000001A0
:10104800000101010000010101000100000001018F
:101058000000000100010101010000000001010081
:1010680000000100010101000D0A00696E76616C43
:0E1078006964206368617261637465720000D0
:00000001FF
